:020000040000FA
:100000000C947A000C94A2000C94A2000C94A20010
:100010000C94A2000C94A2000C94A2000C94A200D8
:100020000C94A2000C94A2000C94A2000C94A200C8
:100030000C94A2000C94EB120C94A2000C94A2005D
:100040000C94A1120C94A2000C946F120C944912FF
:100050000C94A2000C94A2000C94A2000C94A20098
:100060000C94A2000C94A200CDCCCC3D0AD7233C2A
:1000700017B7D13877CC2B329595E6241FB14F0AAC
:10008000000020410000C84200401C4620BCBE4C7D
:10009000CA1B0E5AAEC59D74000000002400270044
:1000A0002A0000000000250028002B0000000000AE
:1000B00023002600290004040404040404040202AA
:1000C00002020202030303030303010204081020D7
:1000D00040800102040810200102040810200000E2
:1000E00000080002010000030407000000000000F7
:1000F0000000911611241FBECFEFD8E0DEBFCDBFA8
:1001000012E0A0E0B1E0E0E3F9E502C005900D9255
:10011000A03CB107D9F726E0A0ECB2E001C01D92E7
:10012000A138B207E1F710E0CAE7D0E004C0219798
:10013000FE010E94C427C937D107C9F70E942517BD
:100140000C94962C0C940000FC016431710509F4A8
:1001500047C094F46830710589F13CF4611571056C
:10016000F9F06430710521F108956C30710561F189
:100170006031710579F108956032710509F442C06A
:100180003CF46831710591F16C317105A9F1089564
:1001900064327105E9F16F3F710509F43FC00895BC
:1001A000ED5AFF4F80819181816091838083089512
:1001B000ED5AFF4F808191818260F7CFED5AFF4F5A
:1001C000808191818460F1CFED5AFF4F80819181D0
:1001D0008860EBCFED5AFF4F808191818061E5CF40
:1001E000ED5AFF4F808191818062DFCFED5AFF4F42
:1001F000808191818064D9CFED5AFF4F80819181B8
:100200008068D3CFED5AFF4F808191819160CDCF2F
:10021000ED5AFF4F808191819260C7CF8D5A9F4FD9
:100220002FEF3FEFFC01318320830895BC019091B3
:100230002504292F30E0359527953595279523708E
:10024000E22FF0E0EF5DFB4F658340E150E0022ECE
:1002500001C0440F0A94EAF770FF11C0492B409384
:10026000250481E0820F63E00E949027990F990F87
:1002700080912504837F980F9093250408954095DD
:100280004923EDCFCF92DF92EF92FF920F931F930E
:10029000CF93DF936B01CC24C114D104C1F5873017
:1002A000C1F068F4823079F0863071F1DF91CF913E
:1002B0001F910F91FF90EF90DF90CF9008958830BD
:1002C00091F08F3F99F76F3F710599F48FEF9FEF92
:1002D00005C08091210490912204816090932204B2
:1002E00080932104E3CF80912104909122048260C5
:1002F000F5CFCB01DF91CF911F910F91FF90EF9040
:10030000DF90CF900C941601CB019395F3CF0FEFB4
:10031000070F81E2E82E84E0F82E10E0EB01DD27E4
:10032000011721F0C1148FEFD80629F4BE01C701CF
:100330004A960E94A4001F5F8FE5E80EF11C16305C
:1003400079F7B4CF89309105D1F198F482309105D5
:1003500069F130F4009721F1019729F18FEF0895A9
:100360008430910549F128F10897C1F780912F0455
:1003700008958D30910549F140F48A30910511F1CD
:100380000C9761F7809132040895803F910501F147
:10039000813F910509F10E9709F780913304089583
:1003A00080912904089580912D04089580912C0452
:1003B000089580912B04089580912E0408958091D2
:1003C0003104089580913004089580913404089593
:1003D00080917A068170089580917B06FBCFCF9340
:1003E000DF93EC0188819981DC01ED91FC91019012
:1003F000F081E02D64E270E00995009741F02FE173
:10040000FC01238321E02283DF91CF91089521E035
:100410002A83FACFAF92BF92CF92DF92EF92FF92F0
:100420000F931F93CF93DF936C017B018B01040F1C
:10043000151FEB015E01AE18BF08C017D10759F0B8
:100440006991D601ED91FC910190F081E02DC601FA
:100450000995892B79F7C501DF91CF911F910F91F4
:10046000FF90EF90DF90CF90BF90AF900895FC0188
:10047000538D448D252F30E0842F90E0821B930B09
:10048000541710F0CF96089501970895FC01918DAF
:10049000828D981761F0A28DAE0FBF2FB11D5D96B2
:1004A0008C91928D9F5F9F73928F90E008958FEF54
:1004B0009FEF0895FC01918D828D981731F0828D08
:1004C000E80FF11D858D90E008958FEF9FEF08955F
:1004D000FC01918D228D892F90E0805C9F4F821BC3
:1004E00091098F739927089584E893E00E94680228
:1004F00021E0892B09F420E0822F089580E090E02C
:10050000892B29F00E94740281110C940000089537
:10051000FC01A48DA80FB92FB11DA35ABF4F2C9178
:10052000848D90E001968F739927848FA689B7896F
:100530002C93A089B1898C91837080648C93938D66
:10054000848D981306C00288F389E02D80818F7D09
:1005500080830895EF92FF920F931F93CF93DF93C1
:10056000EC0181E0888F9B8D8C8D98131AC0E889EF
:10057000F989808185FF15C09FB7F894EE89FF89BE
:100580006083E889F98980818370806480839FBF5C
:1005900081E090E0DF91CF911F910F91FF90EF905C
:1005A0000895F62E0B8D10E00F5F1F4F0F7311276C
:1005B000E02E8C8D8E110CC00FB607FCFACFE889A7
:1005C000F989808185FFF5CFCE010E948802F1CFA5
:1005D000EB8DEC0FFD2FF11DE35AFF4FF0829FB71B
:1005E000F8940B8FEA89FB8980818062CFCFCF930B
:1005F000DF93EC01888D8823B9F0AA89BB89E8894B
:10060000F9898C9185FD03C0808186FD0DC00FB6F0
:1006100007FCF7CF8C9185FFF2CF808185FFEDCF6E
:10062000CE010E948802E9CFDF91CF9108958330F7
:1006300081F028F4813099F08230A9F00895873054
:10064000A9F08830C9F08430B1F4809180008F7DAA
:1006500003C0809180008F7780938000089584B5D7
:100660008F7784BD089584B58F7DFBCF8091B000D6
:100670008F778093B00008958091B0008F7DF9CF7F
:10068000CF93DF93282F30E0F901E252FF4F84919E
:10069000F901E653FF4FD491F901EA54FF4FC49199
:1006A000CC23A1F081110E941703EC2FF0E0EE0F94
:1006B000FF1FE455FF4FA591B491EC91ED2381E02C
:1006C00090E009F480E0DF91CF91089580E090E020
:1006D000FACF1F93CF93DF93282F30E0F901E25236
:1006E000FF4F8491F901E653FF4FD491F901EA5489
:1006F000FF4FC491CC23A9F0162F81110E9417033C
:10070000EC2FF0E0EE0FFF1FEE55FF4FA591B491D7
:100710008FB7F894EC91111108C0D095DE23DC93CB
:100720008FBFDF91CF911F910895DE2BF8CFCF932C
:10073000DF9390E0FC01E653FF4F24918A549F4FD2
:10074000FC0184918823D1F090E0880F991FFC016F
:10075000E856FF4FA591B491FC01EE55FF4FC591AE
:10076000D49161110EC09FB7F8948C91E22FE0955F
:100770008E238C932881E223E8839FBFDF91CF9162
:1007800008958FB7F894EC91E22BEC938FBFF6CFDE
:100790008E3008F08E508770806480937C0080914A
:1007A0007A00806480937A0080917A0086FDFCCF85
:1007B000809178009091790008953FB7F8948091E6
:1007C000C5029091C602A091C702B091C80226B599
:1007D000A89B05C02F3F19F00196A11DB11D3FBF79
:1007E000BA2FA92F982F8827BC01CD01620F711D48
:1007F000811D911D42E0660F771F881F991F4A9542
:10080000D1F708958F929F92AF92BF92CF92DF92CD
:10081000EF92FF924B015C010E94DD036B017C01B2
:100820000E94DD036C197D098E099F09683E7340A3
:1008300081059105A8F321E0821A9108A108B10869
:1008400088EEC80E83E0D81EE11CF11C81149104CF
:10085000A104B10429F7FF90EF90DF90CF90BF90F3
:10086000AF909F908F9008952FB7F8946091C10238
:100870007091C2028091C3029091C4022FBF08956B
:10088000CF93DF93EC018A81823070F0623020F4E4
:10089000DF91CF910C9469030E94400361E0892BA2
:1008A00009F060E08A81F4CFDF91CF9108951F9322
:1008B000CF93DF93EC01162F88810E9469031111F9
:1008C0000DC00E943404FE01E75BFF4F608371831B
:1008D00082839383CD5BDF4F19821882DF91CF91A2
:1008E0001F910895CF93DF938F3F39F580912E04A8
:1008F0008F7080937B06C0E0DFE580912904C817E4
:1009000018F520917B06DC9FC00111248F5D9B4F61
:10091000FC01E659FF4F208387599F4FFC0110824D
:1009200061E0213009F060E0CD9FC0011124855CB9
:100930009B4F0E945704CF5FE0CF8E3FD1F680914E
:100940007B0691E08927D5CFDF91CF910895CF9293
:10095000DF92EF92FF920F931F93CF93DF93EC01FF
:1009600088A999A989359240B0F089AD90E00196A7
:1009700063E070E00E94B02789AFFC013996EE0F6A
:10098000FF1FEE0FFF1FEC0FFD1F1082118212825E
:10099000138219AA18AA89810E94C8037C0109AD93
:1009A00084E0089F800111240C0F1D1FC70196953C
:1009B000879596958795889FB001899F700D700DDA
:1009C000112490E080E00E9411269B01AC01F80107
:1009D00064A175A186A197A10E94F824F80164A3DF
:1009E00075A386A397A388A999A9019699AB88AB0B
:1009F000FE01E05CFF4F208131818E01015B1F4FC2
:100A0000F80180818130B9F170F08330C9F185300F
:100A100009F491C0DF91CF911F910F91FF90EF905A
:100A2000DF90CF9008952E153F05F0F48D85882333
:100A300041F06FEFCE010E94400481E0F801808315
:100A4000E9CFFE01ED5BFF4F80819181019691839B
:100A500080833197208128171906E0F660E0CE01E7
:100A60000E94570483E0EACFC35BDF4F84EF91E03D
:100A700099838883CFCF2E153F0518F31082CACFF4
:100A80008C85813059F108F45EC0823019F60E94DD
:100A90003404FE01E35BFF4F20813181DE01A75B5F
:100AA000BF4FCD90DD90ED90FC90AB01BC014C1997
:100AB0005D096E097F096901F12CE12CC416D50688
:100AC000E606F70608F0A6CF203187E2380728F5BA
:100AD000C9018C509E4F918380831FC00E943404B3
:100AE000FE01E75BFF4FC080D180E280F3806C198C
:100AF0007D098E099F09653F71408105910508F4C4
:100B000089CFFE01E35BFF4F808191818C509E4F26
:100B100091838083843C9940B0F4F801108261E0B5
:100B2000CE01DF91CF911F910F91FF90EF90DF9059
:100B3000CF900C9457048EA99FA9CC9708F06ACF48
:100B40008C858111EACF86E079CFCF93DF93EC01DA
:100B50008881843018F061E00E9497038A81843094
:100B600028F061E0DF91CF910C949703DF91CF9152
:100B700008956F3FB1F0E62FE295EF7044E0E49FF7
:100B800090011124DC01ED91FC91E20FF31F6F70D5
:100B9000B8E06B9FC001112462817381860F971F9B
:100BA000089590E080E00895CF93C82FCB016C2F7B
:100BB00045960E94B9052FEF009711F0FC012581A1
:100BC000BC018C2F922FCF910895982F80336CF019
:100BD0008A3324F08F3524F08B3724F481E0089594
:100BE00081341CF081E09B350CF080E00895FC011D
:100BF000828581110AC0A781B085CD0101969087B9
:100C000087838C91818781E08287818508951F93F6
:100C1000CF93DF93EC01162F0E94F705811306C0D6
:100C20001A8681E0DF91CF911F91089580E0FACF7D
:100C30000F931F93CF93DF938C01EB01899188234E
:100C400069F0C8010E94F705882379F0FE01319709
:100C5000908198130DC0F8011286F0CF90E080E0EB
:100C6000DF91CF911F910F91089582E090E0F8CF2E
:100C700083E090E0F5CFCF93DF93EC01CE010E94AB
:100C8000F7058B304CF489305CF4882359F081E00F
:100C90008E8390E080E00BC08D3011F08032B9F788
:100CA0001A86ECCF8E81811105C081E090E0DF9142
:100CB000CF91089582E090E0FACF8F929F92AF9209
:100CC000BF92CF92DF92EF92FF920F931F93CF9339
:100CD000DF9382E00E944003892B09F447C0809192
:100CE00075068F5F8093750683E00E944003892B11
:100CF00009F442C0809177068F5F809377068091D8
:100D000079068F5F80937906C0913604809129041B
:100D1000C817A8F40C2F10E03FE5B32ECB9DE001DF
:100D20001124CE01855C9B4F6C01CF5DDB4FFE0132
:100D3000E659FF4F8081823028F1823039F180916D
:100D4000360490E0019667E070E00E94B02780933F
:100D50003604DF91CF911F910F91FF90EF90DF90BC
:100D6000CF90BF90AF909F908F900895809176061E
:100D70008F5F80937606B8CF809178068F5F8093DF
:100D80007806BDCFC6010E94A704D9CF7E019DE59C
:100D9000E90EF11CF701808191818E30914008F0BD
:100DA0004EC08A8D0E944003811105C061E0C601DA
:100DB0000E945704C4CFF701808191817C0123E018
:100DC000F694E7942A95E1F78F709927E894E0F874
:100DD000F1E0FF22892B41F48B8D0E94C803F701BB
:100DE000EE59FC4F9183808398012F5F3F4F8FE531
:100DF000829FD001839FB00D1124AF5DBB4FF701DF
:100E0000EE59FC4F208131814D915D916D917C9126
:100E10001397420F531F611D711D4D935D936D9389
:100E20007C931397809FF001819FF00D1124E2586D
:100E3000FB4F8081918101969183808380CF60E018
:100E4000C6010E945704C8010196B89EF001B99EE0
:100E5000F00D1124EF5DFB4F6081718182819381E0
:100E60000E9411262D8D3E8D4F8D58A10E94C826BF
:100E70004B015C01F7016081718190E080E00E948C
:100E800011269B01AC01C501B4010E9469256B01CB
:100E90007C0120E030E0A9010E94C32620E030E080
:100EA00040E05FE387FD1DC0C701B6010E94F82442
:100EB0000E94DB258FE5809FF001819FF00D1124BA
:100EC000EF5DFB4F74A363A3DF01A359BF4F8D9167
:100ED0009C91119796608D939C93E659FF4F1082D9
:100EE0002ECFC701B6010E94F724E2CF4F925F9246
:100EF0006F927F928F929F92AF92BF92CF92DF922A
:100F0000EF92FF920F931F93CF93DF93EB01DC01DE
:100F10002C912B32D9F12D32D1F50196FF24F39487
:100F2000FC01208130ED320F3A3018F02E3209F0FA
:100F300042C18C0160E070E0CB01F801219130EDFD
:100F4000832E820E39E0381520F16A3949E9740799
:100F5000840749E1940738F5AAE0B0E09B01AC01B1
:100F60000E94B324912CB12CA12C24013501409472
:100F7000509460947094461657066806790698F067
:100F8000680D791D8A1D9B1D8F01D7CF0196F12C0D
:100F9000C7CF211108C0FF20E9F16130710581053B
:100FA00050E89507A0F0E12CBAE08B2E912CA12CF3
:100FB000B12C6115710530E883079105B0F1A501E9
:100FC00094010E94C624CA01B901E394F2CF2C8196
:100FD00020782A602C839B01AC0188279927DC01AB
:100FE000821B930BA40BB50B88839983AA83BB83C5
:100FF0008F2DDF91CF911F910F91FF90EF90DF9098
:10100000CF90BF90AF909F908F907F906F905F90A8
:101010004F9008952C81207828602C8368837983F1
:101020008A839B83FF24F394E3CFF801D8012D91A9
:101030008D0130ED320F3A3010F4E394F6CF2E32BA
:1010400001F58F010F5F1F4FF8010F5F1F4F2081C8
:10105000A0EDDA2ED20EB9E0BD1598F06C3CECECA8
:101060007E07ECE08E07910578F7AAE0B0E09B01DF
:10107000AC010E94B3246D0D711D811D911DEA9478
:10108000E3CF20812F7D10E000E0253409F05BC024
:1010900021812D32D1F53296CC24C394DF0110E0AA
:1010A00000E02E2D0E2C000C330B5AE0B52EFD0166
:1010B000DD9040ED4D0D4A3008F040C0B09EA001DB
:1010C000B19E500D11240D2DDD0C110B0053110993
:1010D000040F151FA801420F531F473251053CF35F
:1010E0008C81CC20C9F040E050E060E070E8F11065
:1010F00003C040E050E0BA0180788C608C83488364
:1011000059836A837B83FC2C73CF2B3219F0319681
:10111000C12CC4CF3296FCCF40E050E060E87FEFB6
:10112000F11004C040E050E060E87FE780788C6018
:101130008C83488359836A837B8374CFCC2019F0D6
:101140001195019511092081211135C00E0D111D38
:10115000E7FC1A950E94112630E8C32E30E0D32E0A
:10116000101611063CF011950195110948E6C42EA0
:1011700040E0D42EE12C0115110591F000FF0CC0C8
:1011800024E0E29EF0011124EC0DFD1D2591359126
:10119000459154910E94C82615950795E394EBCF8D
:1011A000F11090582C8120782C602C8368837983EF
:1011B0008A839B8337CFF12C1BCFCF92DF92EF92A4
:1011C000FF92CF93DF9300D000D01F92CDB7DEB750
:1011D000FC0184818F778630C1F038F4843019F1B6
:1011E000853071F190E080E012C08A3021F08C30BF
:1011F00079F18830B9F780819181A281B38100971C
:1012000021E0A207B10518F0EDCF808190E00F90AA
:101210000F900F900F900F90DF91CF91FF90EF9074
:10122000DF90CF900895808191811D82BE016F5F14
:101230007F4F0E947607CE0101960E94DD08E7CF1E
:10124000808191811D82BE016F5F7F4F0496F1CF37
:10125000C080D180E280F38020E030E0A901C701A6
:10126000B6010E94C32687FDBDCF20E03FEF4FE7C8
:1012700057E4C701B6010E94642518160CF4B2CFDA
:10128000C701B6010E94E225CB01C1CFCF92DF9208
:10129000EF92FF92CF93DF9300D000D01F92CDB793
:1012A000DEB7FC0184818F778630C1F030F4843062
:1012B00011F1853069F180E012C08A3021F08C3064
:1012C00079F18830C1F780819181A281B3818F3F0C
:1012D0009105A105B10519F010F0EDCF80810F90B7
:1012E0000F900F900F900F90DF91CF91FF90EF90A4
:1012F000DF90CF900895808191811D82BE016F5F44
:101300007F4F0E947607CE0101960E944609E7CFE3
:10131000808191811D82BE016F5F7F4F0496F1CF66
:10132000C080D180E280F38020E030E0A901C701D5
:10133000B6010E94C32687FDBECF20E030E04FE714
:1013400053E4C701B6010E94642518160CF4B3CF0C
:10135000C701B6010E94E225862FC1CFCF92DF924E
:10136000EF92FF92CF93DF9300D000D01F92CDB7C2
:10137000DEB7FC0184818F778630C1F030F4843091
:1013800099F18530F1F180E012C08A30E1F08C30C3
:1013900009F43FC08830B9F780819181A281B3817F
:1013A00080389105A105B10570F701C080810F90CB
:1013B0000F900F900F900F90DF91CF91FF90EF90D3
:1013C000DF90CF90089580819181A281B381AC019B
:1013D000BD0140585F4F6F4F7F4F4F3F5105610533
:1013E000710509F080F6E3CF808191811D82BE01F5
:1013F0006F5F7F4F0E947607CE0101960E94AE0973
:10140000D6CF808191811D82BE016F5F7F4F049690
:10141000F1CFC080D180E280F38020E030E040E076
:1014200053ECC701B6010E94C32687FDACCF20E074
:1014300030E04EEF52E4C701B6010E946425181651
:101440000CF4A1CFC701B6010E94DB25862FAFCFD8
:101450001F93CF93DF93EC01CB011B81612F459646
:101460000E94B905998388831A83009719F0FC01BB
:1014700085818B83DF91CF911F910895EF92FF9229
:101480000F931F93CF93DF9300D000D0CDB7DEB77B
:10149000FC01E380F480058116810180F281E02D5A
:1014A000309749F19481892F807496FF19C0B70154
:1014B00080810E94D40569837A838B839C83898190
:1014C0009A810097C1F00115110541F0B701CE01D5
:1014D00001960E94280A01501109F1CF0E94460985
:1014E0000F900F900F900F90DF91CF911F910F9160
:1014F000FF90EF90089580E0F3CFFC019289915026
:1015000084E0989F90011124A089B189A20FB31F94
:101510001296ED91FC9113973097E9F011962C916A
:1015200011978C912817B8F481E0820F11968C9353
:1015300088E0289FA0011124E40FF51F309759F08F
:1015400014828FEF858317821682BF01892F8295BF
:10155000807F820F089560E070E08FEF0895DF9242
:10156000EF92FF920F931F93CF93DF93EC017B01D8
:10157000D12C688979898A89D816E0F484E0D89ECC
:1015800080011124060F171FD80112966D917C91CE
:101590006115710541F0D701ED91FC910280F38155
:1015A000E02DC7010995F801138212821082118281
:1015B000D394DFCF1A8A8FEF8C8BC617D70761F0D1
:1015C000D701ED91FC910280F381E02DC7010995CF
:1015D000D98BC88B84E08B8BDF91CF911F910F91BA
:1015E000FF90EF90DF900895DB01ED91FC91119752
:1015F0000280F381E02DBC01CD0109940F931F936C
:10160000CF93DF93EC01088119818B819C81009736
:1016100049F0FC01208131813C832B83B8010E9479
:10162000F40AF3CF68817981CE010596DF91CF91DD
:101630001F910F910C94AF0ACF93DF93EC01E881D7
:10164000F981B0E0A0E03097F9F09F012C5F3F4FA7
:1016500062177307A1F4928191509283911114C083
:1016600080819181109741F08D939C93BA01CF01B5
:10167000DF91CF910C94F40A99838883F7CFDF012F
:101680000190F081E02DDFCFDF91CF9108958F920F
:101690009F92AF92BF92CF92DF92EF92FF920F9301
:1016A0001F93CF93DF938C01EB01FC01848180FFBA
:1016B0000AC048815981608171816C5F7F4FCE0182
:1016C00003960E941C0BF8018481807681F101153C
:1016D000110569F1D0805E01F5E1AF0EB11C4E013C
:1016E00083E0880E911CEFEFDE16F1F06D2DC50141
:1016F0000E94B9057C01FC01C580848187FF07C079
:101700004881598166817781C4010E941C0BBE010A
:10171000C7010E94470BF701848180788483898DFB
:101720008583D98EDC2CDFCFF801D082D182DF9186
:10173000CF911F910F91FF90EF90DF90CF90BF90CE
:10174000AF909F908F900895EF92FF920F931F9309
:10175000CF93DF937C018B01EA016F3F710509F0A4
:10176000B0F4E881F9810480F581E02DAB014B5F95
:101770005F4FBC01CE010995009749F0FC0103833E
:10178000DF91CF911F910F91FF90EF900895E88125
:10179000F9810280F381E02DB701CE01099590E037
:1017A00080E0EECFFF920F931F93CF93DF93EC0176
:1017B000F62E8A819B810097C9F06C817D81FC01A6
:1017C00023812617170691F408811981F8014081B9
:1017D0005181660F771F6F5F7F4F0E94A40B0097A8
:1017E00019F421E0F80122839B838A838A819B81FB
:1017F000009759F02C813D81A9014F5F5F4F5D83B8
:101800004C83820F931FFC01F482DF91CF911F91D3
:101810000F91FF9008959F92AF92BF92CF92DF9267
:10182000EF92FF920F931F93CF93DF9300D000D0DE
:101830001F92CDB7DEB78C010E94F705D82EF801B4
:101840001286F12CE12C60EFC62EC8010E94F7052C
:10185000F8011286D81609F4B3C0811113C082E0D2
:1018600090E00F900F900F900F900F90DF91CF911D
:101870001F910F91FF90EF90DF90CF90BF90AF90AE
:101880009F9008958C3509F099C0C8010E94F70512
:10189000882329F3E4E3F1E0853709F083C0F801F8
:1018A000128654E0952EB12CA12CC8010E94F70598
:1018B0008823A9F2813434F48053803130F083E0FE
:1018C00090E0CFCF8F7D8753F8CF44E0AA0CBB1CAC
:1018D0004A95E1F7A82AF80112869A949110E5CF6B
:1018E000C501985D8115944020F47501F3E0FF2255
:1018F000ACCFC5019C5D81159440A8F483E0B8226B
:10190000B701762F6627770F770F6A297B2990E03A
:1019100080E00196603871058105910540F4C801A9
:101920000E94D20B92CFB50190E080E0F3CF1982F4
:10193000262F2F7320682A8326E096958795779522
:1019400067952A95D1F76032710580F4606C6B83DE
:101950005E01E4E0AE0EB11CF50162915F01662309
:1019600009F473CFC8010E94D20BF6CF262F2F7334
:1019700020682B8386E0769567958A95E1F760313C
:10198000710538F4606E6C835E01F5E0AF0EB11C3A
:10199000E3CF60686C83CD825E0126E0A20EB11CAD
:1019A000DBCF32969081992309F489CF8913F9CF3F
:1019B0008181882309F483CFF8011286682FAFCF85
:1019C00082819381892B19F484E090E04ACF90E0E2
:1019D00080E047CFAF92BF92CF92DF92EF92FF921B
:1019E0000F931F93CF93DF93DC011296ED91FC913F
:1019F000139714968D919C911597E80FF91F1482F7
:101A00000D911C91119714966D917C9115971296DA
:101A10008D919C9113979C012C5F3F4FE801EB81C6
:101A2000FC817B01E20EF31E3097B9F0438146172B
:101A3000170679F45901AF014C5F5F4FEA14FB04BC
:101A400099F1E501C9905E01EA01D990AE01CD148A
:101A5000A9F30190F081E02DE7CFED01F80140817D
:101A600051810E94A40BFC01892B21F481E0D80153
:101A700012968C93A881B98113968D919C9114979D
:101A8000918380831496FC93EE9313971B821A82A2
:101A9000CF01DF91CF911F910F91FF90EF90DF90D9
:101AA000CF90BF90AF90089582818F5F8283F0CFF7
:101AB000FC0101900020E9F73197AF01481B590B59
:101AC000BC0184E893E00C940A028F929F92AF923B
:101AD000BF920F931F93CF93DF93CDB7DEB7A1973C
:101AE0000FB6F894DEBF0FBECDBF19A2423008F486
:101AF0004AE08E010F5D1F4F842E912CB12CA12C3A
:101B0000A50194010E94C624E62FB901CA01EA305A
:101B1000F4F4E05DD801EE938D01232B242B252BCB
:101B200079F790E080E0109719F0CD010E94580DF0
:101B3000A1960FB6F894DEBF0FBECDBFDF91CF9157
:101B40001F910F91BF90AF909F908F900895E95C87
:101B5000E1CFCF93DF93D0E0C0E0009719F00E946F
:101B6000580DEC0185E491E00E94580D8C0F9D1FEB
:101B7000DF91CF9108950C94580DDF92EF92FF9270
:101B80000F931F93CF93DF9300D000D0CDB7DEB774
:101B90006115710581F460E070E08FEF9D2D0F906D
:101BA0000F900F900F90DF91CF911F910F91FF90A9
:101BB000EF90DF9008957A018B01BA01FC018081DA
:101BC0000E94D40569837A838B839C83E981FA819F
:101BD000309709F3A681B781F80101900020E9F759
:101BE00031979F01201B310B90E080E0109741F06E
:101BF000FD0101900020E9F7CF0101978A1B9B0BA3
:101C00002817390769F4C801A901400F511F481767
:101C1000590761F0FC013191CF012D913217B9F3D1
:101C2000B701CE0101960E94280AD0CF69817A813E
:101C30008B81DC80B3CFFC01248125FF06C0009797
:101C400021F00E94BD0DCB01089590E080E0089541
:101C5000FC0140815181CA014A96628173810097DB
:101C600011F00C941B0E90E080E008950F931F93E9
:101C7000CF93DF93FC0101811281C581D68101964A
:101C80000E94280E009741F0A801BE01DF91CF917C
:101C90001F910F910C941B0E90E080E0DF91CF918B
:101CA0001F910F9108950E94360E009711F00C9429
:101CB000DD0890E080E00895CF93DF93FC01C181BF
:101CC000D2810E94360E009761F0FC01248126FF2C
:101CD00008C0382F292F632F722FCE01DF91CF91AB
:101CE000089530E020E0F7CFAC014A960E941B0E29
:101CF00021E0892B09F420E0822F08950F931F9390
:101D0000CF93DF93CDB7DEB7E2970FB6F894DEBF7F
:101D10000FBECDBF1F924F937F936F931F928F93F0
:101D200088E491E09F938F938E010F5F1F4F1F9365
:101D30000F930E94BE29C8010E94BB0D0FB6F894F4
:101D4000DEBF0FBECDBFE2960FB6F894DEBF0FBE6A
:101D5000CDBFDF91CF911F910F9108958F929F92E8
:101D6000AF92BF92CF92DF92EF92FF920F931F93A9
:101D7000CF93DF93CDB7DEB7A4970FB6F894DEBF4D
:101D80000FBECDBF8C01FC01EE5AFF4F6083399628
:101D900051834083E62EF12C8FEFE81AF80AF6946F
:101DA000FE2CEE24F794E794FE0131966F014E016C
:101DB000F5E28F0E911C5601EC18FD08C701019643
:101DC0007C01C7018A0D9B1D0E947E24F501819331
:101DD0005F01E815F905A9F780E0F6019E012C5D89
:101DE0003F4F91918927E217F307D9F79CA18917F3
:101DF000B9F019828EE08A831B821C821D821E82AA
:101E00001F82198618868EE18C8782E08D871E8658
:101E10001F861A8A1D8A188E1B8E1E8E19A21CA25E
:101E200084E2F601D80101900D928A95E1F7F8015C
:101E300083A1811116C084E791E0A4960FB6F894AF
:101E4000DEBF0FBECDBFDF91CF911F910F91FF90ED
:101E5000EF90DF90CF90BF90AF909F908F900C94B9
:101E6000A90D878190856AE070E00E949C272385F8
:101E7000269FC001279F900D1124BC0190E080E0B7
:101E80000E94112620E030E040E05FE30E94F82449
:101E90000E94DB25F80177AF66AF13AA12AAC8012A
:101EA0000E94A50560E0C8010E9457040E942624F4
:101EB00028E532E040E050E00E949424F80171AB44
:101EC00060AB6781708590E080E00E9411262DEC68
:101ED0003CEC4CEA5FE30E94C826F8012381348180
:101EE000458156810E9469256B017C0120E030E02C
:101EF000A9010E94C32620E030E040E05FE387FDB7
:101F000046C0C701B6010E94F8240E94DB25F801F3
:101F1000E05CFF4F718360833F96108231961082A0
:101F200031961082F80183856AE00E949027F82E8E
:101F3000682F70E090E080E00E94132620E030E0FF
:101F400040E85FE30E94642587FF02C0FF24F3940A
:101F5000F801EE5BFF4FF082E2E6F3E0119211929E
:101F600083E0E438F807D1F7A4960FB6F894DEBF03
:101F70000FBECDBFDF91CF911F910F91FF90EF90DA
:101F8000DF90CF90BF90AF909F908F900895C70142
:101F9000B6010E94F724B9CF8F929F92AF92BF9261
:101FA000CF92DF92EF92FF920F931F93CF93DF9325
:101FB0006C018B01DB015996FC90BFEFFB1621F100
:101FC0006F2DC80145960E94B905EC018D81F8017D
:101FD000818F209709F496C01C828FEF8D831F821A
:101FE0001E82D60111966C916F3F09F49FC0C80103
:101FF00045960E94B905FC01F582D6011196FC9226
:10200000BE018F2D9D8084C05B01F5E0AF0EB11C39
:10201000DB01ED90FC90119757968C91882349F045
:10202000C5010E947D0AC62FD72F209711F0F82EE8
:10203000D8CFF801C789908DC91325C0C03109F4E4
:1020400061C0CC0F65897689D701ED91FC91B4E030
:10205000CB9FA0011124A616B70609F04BC0019032
:10206000F081E02DBA01C7010995009709F44AC033
:1020700020E1F501DC0101900D922A95E1F7F801CC
:10208000968B858BC08FD8015596CD91DC91569754
:1020900057968C91579721E0280F57962C93B4E0D0
:1020A0008B9FC0011124C80FD91F90E1892E2031C8
:1020B00011F48FE0882EE8E08E9EB0011124D70144
:1020C000ED91FC910190F081E02DC70109959B8372
:1020D0008A83892B09F4812C88821982CD2B91F077
:1020E000C5010E947D0AC62FD72FF82E209709F030
:1020F00078CF08C00480F581E02DC70109950097CD
:1021000009F0BDCF81E0F801828360E070E08FEFDD
:10211000992DDF91CF911F910F91FF90EF90DF905C
:10212000CF90BF90AF909F908F900895F601F0826E
:10213000F18266CF8F929F92AF92BF92CF92DF9241
:10214000EF92FF920F931F93CF93DF93EC018B01DC
:10215000D42E0E943B067C01892B09F047C0CE019A
:102160000E94F705863609F452C124F5873229F01A
:102170008B3561F1823209F053C11D821C828A8144
:102180009B81892B31F4888199810E94EF019B8387
:102190008A83CE010E940B0C7C01892B39F5CE017C
:1021A0000E94EA0CF8012481207825602483918321
:1021B00080831CC0843709F412C18B3709F45BC0DB
:1021C0008E3609F02DC169E971E012C1F8018481F0
:1021D0008078806484830115110519F08FEF808366
:1021E0008183D11011C025E0E22EF12CC701DF91CF
:1021F000CF911F910F91FF90EF90DF90CF90BF9004
:10220000AF909F908F9008951A86CE010E943B0652
:10221000009709F085C06DE5CE010E940706811187
:10222000E5CFDA946B857C85C8010E94CC0F6115DF
:10223000710521F484E0E82EF12CD8CF4D2DCE018C
:102240000E949A10009709F06BC0CE010E943B06D5
:10225000009709F065C06DE5CE010E940706811167
:10226000C5CF6CE2CE010E9407068111DBCF93E05F
:10227000E92EF12CBBCFF8018481807880628483C1
:102280000115110519F08FEF80838183DD2009F49A
:10229000AACF1A86CE010E943B06009709F040C0E3
:1022A0006DE7CE010E9407068111A0CFBB24BA942E
:1022B000BD0C1D821C828A819B81892B31F488810F
:1022C00099810E94EF019B838A83CE010E94F705CA
:1022D0008732E1F08232D1F0CE010E94F705D82E8C
:1022E0000E94E505882319F21A866D2DCE010E9401
:1022F000D20BCE010E94F705D82E0E94E505811170
:10230000F3CF8A819B81892B31F494CFCE010E9437
:102310000B0C009729F4CE010E943B06009711F0A8
:102320007C0164CF6AE3CE010E940706882309F48A
:102330009ECFEA81FB818C819D81E80FF91F148279
:102340004B855C856A817B816C5F7F4FC8010E94F1
:10235000BD0DCB016B01672BC9F5CE010E94EA0CC4
:102360004C016B857C85C8010E94CC0F6B01611507
:10237000710509F45FCFFB01848180688483F4E0F8
:102380008F0E911CF601978286824B2DB601CE01ED
:102390000E949A10009721F6CE010E943B060097FA
:1023A00009F0BECF6DE7CE010E94070681111ECF56
:1023B0006CE2CE010E940706882309F458CFCE01B3
:1023C0000E943B06009709F474CFAACF6B857C85E9
:1023D0000E94470BF601848180788483D6CFF80170
:1023E000848180788660848381E080836EE871E0F8
:1023F000CE01DF91CF911F910F91FF90EF90DF9071
:10240000CF90BF90AF909F908F900C941806F801DA
:102410008481807886608483108263E971E0E8CFEC
:10242000CE010E94F7055E01FDE0AF0EB11CD12C7C
:102430009A2CCB2C803374F08A3374F49FE3D91632
:1024400099F01A86D394F50181935F01CE010E9421
:10245000F705F0CF8B3291F393ED980F923070F334
:10246000982F9F7D953451F3CD0DD11D1D86B80158
:10247000892D9C2D0E9476078111B8CEF8CECB0114
:10248000BA010C94EF28CB010C946628CB010C9474
:10249000CA271F920F920FB60F9211242F933F93CA
:1024A0004F935F936F937F938F939F93AF93BF935C
:1024B000EF93FF9384E893E00E948802FF91EF91ED
:1024C000BF91AF919F918F917F916F915F914F914C
:1024D0003F912F910F900FBE0F901F9018951F9254
:1024E0000F920FB60F9211242F938F939F93EF9318
:1024F000FF93E0919403F09195038081E0919A031A
:10250000F0919B0382FD1BC0908180919D038F5FA2
:102510008F7320919E03821741F0E0919D03F0E0BC
:10252000EC57FC4F958F80939D03FF91EF919F9106
:102530008F912F910F900FBE0F901F901895808153
:10254000F4CF1F920F920FB60F9211242F933F9347
:102550008F939F93AF93BF938091C1029091C202DA
:10256000A091C302B091C4023091C00223E0230FB6
:102570002D3758F50196A11DB11D2093C0028093FF
:10258000C1029093C202A093C302B093C40280918F
:10259000C5029091C602A091C702B091C8020196EF
:1025A000A11DB11D8093C5029093C602A093C702DE
:1025B000B093C802BF91AF919F918F913F912F919E
:1025C0000F900FBE0F901F90189526E8230F0296CC
:1025D000A11DB11DD2CF1F920F920FB60F921124E1
:1025E0002F933F934F935F936F937F938F939F931B
:1025F000AF93BF93EF93FF93E091C902F091CA02AA
:102600000995FF91EF91BF91AF919F918F917F912C
:102610006F915F914F913F912F910F900FBE0F904F
:102620001F9018959F92AF92BF92CF92DF92EF9238
:10263000FF920F931F93CF93DF939C01862F293036
:10264000310509F48CC028F52230310509F46FC03A
:10265000A0F42115310509F448C02130310509F4F1
:102660005FC0DF91CF911F910F91FF90EF90DF90AE
:10267000CF90BF90AF909F9008952430310509F41A
:102680006BC008F460C02830310559F760932F04FF
:10269000E8CF2E30310509F47DC090F42C3031059F
:1026A00009F469C008F06AC02A303105D1F660919A
:1026B0003004709131046627860F972F911D56C004
:1026C000213F310509F46FC02F3F310509F478C06F
:1026D000203F310531F680912104909122049160D0
:1026E0009093220480932104BCCFC0912904C61783
:1026F00009F4B7CF60932904DFE580912904C81756
:1027000008F0AFCF40912B0450912C04CD9FC00115
:1027100011246C2F855C9B4F0E94AE0ECF5FEDCFD6
:1027200091E0611101C090E090932D049ACF6091E7
:102730002B0490E0982F8827860F911D90932C04EE
:1027400080932B048ECF60912B0470912C0466270C
:10275000860F972F911DF2CF60932E0482CF609148
:10276000300490E0982F8827860F911D90933104B4
:102770008093300476CF6093320473CF609133043A
:1027800090E0982F8827860F911D909334048093B2
:10279000330467CF60913304709134046627860F49
:1027A000972F911DF2CFDF91CF911F910F91FF9045
:1027B000EF90DF90CF90BF90AF909F900C947204F9
:1027C00010923504E9E2F4E0809135049191892773
:1027D0008093350424E0E533F207B1F709E214E011
:1027E000C1E0D0E0F801F1908F01CE010E947E247B
:1027F000F81621F06F2DCE010E9486242196CE304E
:10280000D10581F710E00FE580912904181708F031
:1028100028CF109FF0011124CF01855C9B4FEF5D05
:10282000FB4FDF01A459BF4FCC91D0E02196D69544
:10283000DC2FCC27D795C79515AEAC014D5D5F4F0A
:10284000DC01FD9620813D9123272083A417B50745
:10285000C9F76C01F4E2CF0ED11C7C01C81BD90B67
:10286000F70191907F015E01AE0EBF1EC5010E946F
:102870007E24981621F0692DC5010E948624EC144F
:10288000FD0471F71F5FC0CF2F923F924F925F926E
:102890006F927F928F929F92AF92BF92CF92DF9270
:1028A000EF92FF920F931F93CF93DF93CDB7DEB7D5
:1028B0002A970FB6F894DEBF0FBECDBF7B015A87B3
:1028C00049871B01222421143104E1F0893009F0E9
:1028D00056C02A960FB6F894DEBF0FBECDBFDF916B
:1028E000CF911F910F91FF90EF90DF90CF90BF900D
:1028F000AF909F908F907F906F905F904F903F90A0
:102900002F9008958130D1F0853019F729853A85C7
:102910003A83298310E000E0E981FA816191FA832A
:10292000E983C701800F911F0E9412130F5F1F4F91
:102930000430110589F7C701939507C0E985FA8529
:102940006081C7010E941213C7012A960FB6F8943E
:10295000DEBF0FBECDBFDF91CF911F910F91FF90D2
:10296000EF90DF90CF90BF90AF909F908F907F902F
:102970006F905F904F903F902F900C9416014424DD
:102980004A944F0C842D90E04FE5449E8001112421
:102990009801255C3B4F6901512CFF240F5D1B4FB3
:1029A00058013AE6A30EB11C4801E9E68E0E911CCF
:1029B0009801235A3F4F3A8329830196489F9001FB
:1029C000499F300D1124C9018F5D9B4F9C838B83E0
:1029D00038019DE6690E711CF801E85AFF4FFE832D
:1029E000ED839801245B3F4F38872F83451421F0F6
:1029F00021143FEF3306C9F488E1E816F10409F425
:102A00003CC1C4F5E8E0EE16F10409F400C194F409
:102A1000E114F10409F46DC024E0E216F10409F4B4
:102A2000B2C0B701C6010E94A4005394F6E05F1241
:102A3000DDCF4FCF30E1E316F10409F4FAC084E1B1
:102A4000E816F10409F407C19CE0E916F10449F71E
:102A5000E985FA858081F80183A7E985FA85818176
:102A600090E0982F88272281820F911DF80195A769
:102A700084A7D7CFE0EFEE16F10409F422C1DCF40D
:102A80002CE1E216F10409F40AC130E2E316F10484
:102A900041F6E985FA858081F80182AFE985FA85FA
:102AA000818190E0982F88272281820F911DF80163
:102AB00094AF83AFB6CF82EFE816F10409F422C1D8
:102AC0000CF419C1E3EFEE16F10409F0AACFF501F9
:102AD0008081811121C1E981FA8111821082EB810B
:102AE000FC81108211821282138282E0F5018083C0
:102AF00098CFF801828D843018F060E00E9497032F
:102B0000F801848D843018F060E00E949703E98515
:102B1000FA85808190E034E0959587953A95E1F7C4
:102B2000F801828FE985FA8580818F70825FF801D4
:102B3000838FE985FA8581818F70F801848FE9851B
:102B4000FA85628170E0762F66278381680F711D98
:102B5000072E000C880B990B0E94132620E030E012
:102B600048EC52E40E946925F801658F768F878FC3
:102B700090A3F30180819181816091838083C6015C
:102B80000E94A5054ECFE985FA85808190E0959554
:102B900087959595879521E0892B09F420E0F80128
:102BA00027A3E985FA8580818370F80186A3E985EA
:102BB000FA852181F80125A3E985FA85828190E0D3
:102BC000982F88273381830F911DF80192A381A349
:102BD0006AE070E00E949C27269FC001279F900D0D
:102BE0001124BC0190E080E00E94112620E030E03A
:102BF00040E05FE30E94F8240E94DB25ED81FE8126
:102C000071836083EF81F885118210820ACFE98594
:102C1000FA858081F80180A7E985FA85818190E0B5
:102C2000982F88272281820F911DF80192A781A7F2
:102C3000F8CEE985FA858081F80186A7E985FA85CD
:102C4000818190E0982F88272281820F911DF801C1
:102C500090AB87A7E6CEE985FA858081F80181AB44
:102C6000E985FA85818190E0982F88272281820F5B
:102C7000911DF80193AB82ABD4CEE985FA858081B2
:102C8000F80184ABE985FA85818190E0982F882747
:102C90002281820F911DF80196AB85ABC2CEE985EA
:102CA000FA858081F80187ABE985FA85818190E01A
:102CB000982F88272281820F911DF80191AF80AF54
:102CC000B0CEE985FA858081F5018F3F61F480817E
:102CD000811122C081E08083F401108261E0C6018D
:102CE0000E9457049ECE8083F401108261E08130FF
:102CF000B1F360E0F4CFE985FA856081C6010E94F6
:102D000040048FCEF4018081863009F08ACE108293
:102D100081E0F5018083E2CFF5011082F401108299
:102D2000E8CF109287031092860388EE93E0A0E02C
:102D3000B0E08093880390938903A0938A03B093B3
:102D40008B0386E291E0909385038093840385EC66
:102D500090E0909391038093900384EC90E09093A3
:102D600093038093920380EC90E09093950380937B
:102D7000940381EC90E0909397038093960382EC08
:102D800090E0909399038093980386EC90E0909361
:102D90009B0380939A0310929D0310929E031092BE
:102DA0009F031092A0031092240410922304109207
:102DB0002504109236040E94340460933704709303
:102DC00038048093390490933A04EFE5F4E022E06C
:102DD00080ED97E010821182128213821482158294
:102DE000168217821086118612861386158614861F
:102DF00017861686118A108A138A128A148A158AEF
:102E0000158E148E268F92A781A713A614A615A639
:102E100016A612AA11AA13AA11AE12AEE15AFF4FBA
:102E200036E0E939F307B1F610927506109276068E
:102E300010927706109278061092790610927A0610
:102E400010927B0610927C060895CF93DF93CDB746
:102E5000DEB7CE59D1090FB6F894DEBF0FBECDBF95
:102E6000789484B5826084BD84B5816084BD85B565
:102E7000826085BD85B5816085BD80916E00816071
:102E800080936E0010928100809181008260809317
:102E90008100809181008160809381008091800019
:102EA0008160809380008091B10084608093B10044
:102EB0008091B00081608093B00080917A0084603E
:102EC00080937A0080917A00826080937A0080916A
:102ED0007A00816080937A0080917A008068809384
:102EE0007A001092C10068EE73E080E090E00E94EA
:102EF0000204E0919403F091950382E08083E091D5
:102F00009003F09191031082E0919203F09193036A
:102F100080E1808310929C03E0919803F0919903E3
:102F200086E08083E0919603F09197038081806131
:102F30008083E0919603F09197038081886080837D
:102F4000E0919603F0919703808180688083E091FF
:102F50009603F091970380818F7D808384E893E0CE
:102F60000E946802892B29F084E893E00E944602BF
:102F7000F5CF8EE991E00E94A90D0E94DD03611555
:102F800071058105910511F00E9475246E0126E8F6
:102F9000C20ED11CEE24E394F12C8601C7010E94DD
:102FA0007E24D6018D936D01BFEFEB1AFB0AEEE094
:102FB000EE16F10499F7F12CF801C8010C96219155
:102FC000F226E817F907D9F78FEB91E00E94BB0DC5
:102FD000D8011C96EC906E2D70E090E080E04AE005
:102FE0000E94650D89EC91E00E94BB0D6F2D70E091
:102FF00090E080E04AE00E94650D8DEB91E00E9438
:10300000A90DFE1441F1F80110820E9426242FEF31
:1030100030E040E050E00E949424D80111966C9377
:10302000119782ED94E013969C938E9312971496C9
:103030001C92149715961C92159716961C9216972B
:1030400018961C921E92179719961C9219971B9608
:103050001C921E921A978DE0F801A9E2B4E001904B
:103060000D928A95E1F710928D0481E08093EC0433
:1030700082E080934B0583E08093AA0584E08093EF
:10308000090685E08093680610E00FE58091290429
:10309000181770F440912B0450912C04109FC0011C
:1030A0001124612F855C9B4F0E94AE0E1F5FEECFF7
:1030B00080E00E9472046AE070E080E090E00E948C
:1030C00002048DE596E09093CA028093C902F894B9
:1030D00080917A00887F846080937A0010928000CB
:1030E00080E892E09093870080938600109285009C
:1030F0001092840081E18093810081E080936F00D1
:1031000078946AE070E080E090E00E9402048FEF23
:103110000E9472046FEF70E08FEF0E9442016FEF28
:103120007FEF8FEF0E9442011E01B5E62B0E311C8E
:10313000F1013596C756DF4FF983E883C959D0406E
:103140009101265E3F4FC356DF4F39832883CD5907
:10315000D040AE014F5F5F4F4A0184E893E00E9488
:103160006802892B09F47BC384E893E00E9446023D
:1031700090916103E92FF0E0E553FD4F80839111B9
:103180000AC08091CB028D3041F38A3031F381E067
:1031900080936103E2CF8D3019F08A3009F05BC370
:1031A0001082E0E0F1E0D1011196FC93EE931296CB
:1031B0001C92129714961C921E921397C756DF4FBB
:1031C00028813981C959D04056963C932E93559702
:1031D00057961C92579784E058968C9358978FEF88
:1031E00059968C9359975E961C925E9740E051E0F9
:1031F00090965C934E935F97BF01C9010E94AF0AFE
:10320000D10112961C9212970D911C91F1018381AC
:103210009481009749F0DC012D913C913483238304
:10322000B8010E94F40AF2CF168E3A8229821C82DB
:103230001B821E821D821F822BEC32E03987288779
:103240001B863D862C864AE0C356DF4F6881798114
:10325000CD59D040C4010E949A108C01892B51F4A1
:103260008A85882339F0D1015E968C9183FF02C054
:1032700003E010E08B819C81009731F0E981FA81B5
:10328000608171810E94F40A0115110509F0D9C20B
:1032900061ED71E0C1010E94740E882309F483C0BE
:1032A0003A82298281ED91E09C838B83C4010E9444
:1032B000280EFC01892B39F084818F77843031F01E
:1032C000853009F476C0B12CA12C02C0A080B18059
:1032D00065ED71E0C1010E94740E882369F03A82A5
:1032E000298285ED91E09C838B83C4010E94280E86
:1032F000009711F00E94AE096AED71E0C5010E94CD
:10330000B529892B09F02AC16DED71E0C1010E9438
:10331000740E882309F422C13B822A828DED91E04C
:103320009D838C83E1EEF1E0FF83EE83C4010E9474
:10333000360E00E0009719F00E944609082F3B82E4
:103340002A828DEDE82E81E0F82EFD82EC8225EEBA
:1033500031E03F832E83C4010E945C0E2B013C01AF
:103360004A825B826C827D821F821E82C4010E941F
:103370003E0A182F382F3F71D32E3B822A82FD82BE
:10338000EC824AEE51E05F834E83C4010E94530EEB
:103390007C01023B09F4C7C090F4013709F4CBC0AB
:1033A000003B09F4B6C0C1010E94FE0A10926103FD
:1033B000D4CEA080B180B4E0AB0EB11C89CF0D3B60
:1033C00009F4A7C010E4712E7D0C0D3E61F78091C9
:1033D0002F0478120AC08091300490913104E816CD
:1033E000F90619F481E00E94720480913204781287
:1033F0000AC08091330490913404E816F90619F458
:1034000080E00E947204612CFFE55F2E4424439407
:1034100080912904681608F0A1C0C62CD12C659CA7
:10342000F00111248F01055C1B4FEF5DFB4F80A560
:10343000781210C081A592A5E816F90659F4DF01AB
:10344000A659BF4F4C92E759FF4F108261E0C80167
:103450000E9457045C9CF0015D9CF00D1124EF5D0F
:10346000FB4F83A5781210C084A595A5E816F90630
:1034700059F4DF01A659BF4F1C92E759FF4F108244
:1034800060E0C8010E9457045C9CF0015D9CF00D57
:103490001124EF5DFB4F86A5781213C087A590A974
:1034A000E816F90671F4DF01A759BF4F8C918630F9
:1034B00041F41C92E659FF4F408261E0C8010E942E
:1034C00057045C9CF0015D9CF00D1124EF5DFB4FF7
:1034D00081A9781209C082A993A9E816F90621F4F6
:1034E00060E0C8010E9440045C9CF0015D9CF00D0E
:1034F0001124EF5DFB4F84A9781209C085A996A914
:10350000E816F90621F461E0C8010E9440046394C2
:103510007FCFD1FADD24D0F800E2702E7D0C5FEF72
:10352000E51AF50A54CF1170B0E87B2E710E8FEFBB
:10353000E81AF80A4CCF91E0D91235CF4A825B8263
:103540006C827D82A1E0B0E0BF83AE83C4010E94A3
:103550003E0A8370A0E67A2E780E39CF6FEE71E0C6
:10356000C5010E94B529892B19F48EEF0E947204BF
:1035700063EF71E0C5010E94B529892B09F013CFD3
:103580006DED71E0C1010E94740E882309F40BCF28
:10359000EDB7FEB7C556DF4FF983E883CB59D0406E
:1035A0003B822A828DED91E09D838C8321EE31E078
:1035B0003F832E83C4010E94360E10E0009719F05D
:1035C0000E944609182F3B822A82EDEDCE2EE1E0C3
:1035D000DE2EDD82CC824AEE51E05F834E83C40151
:1035E0000E94530E7C013B822A82DD82CC8286EFD0
:1035F00091E09F838E83C4010E94530E5C013B8245
:103600002A82DD82CC82A5EEB1E0BF83AE83C40105
:103610000E945C0E2B013C01CB56DF4F79836883FF
:10362000C559D040C956DF4F99838883C759D040C8
:10363000FB01C12C3097D9F0BC0180810E94D405D8
:1036400069837A838B839C83D12CC12C89819A8155
:10365000892B69F0FFEFCF1ADF0AC956DF4F688167
:103660007981C759D040C4010E94280AEFCF0C2DA0
:103670002DB73EB72C1931090FB6F8943EBF0FBED7
:103680002DBF4DB75EB74F5F5F4FCD56DF4F5983AC
:103690004883C359D0401150193008F039C0E12F88
:1036A000F0E0EB5AF44E0C94C4275E1B7D1B881B84
:1036B000881B941BCB1BD61BD91BE41BCC2041F1D0
:1036C00080912B0490912C04A816B90609F55B8211
:1036D0004A827D826C821F821E82C4010E943E0A41
:1036E000CD56DF4FA881B981C359D0408C93AD012D
:1036F000B70181E00E9444140BC080912B0490918B
:103700002C04A816B90621F4B70182E00E944201F8
:10371000C556DF4FE881F981CB59D0400FB6F894F8
:10372000FEBF0FBEEDBF3FCE043090F380912B045F
:1037300090912C04A816B90659F7CD56DF4FC880D2
:10374000D980C359D040B12CA12CCB56DF4FE88192
:10375000F981C559D040FB83EA83C956DF4F2881E0
:103760003981C759D0403D832C83BF82AE82C401CA
:103770000E943E0AD6018D936D01BFEFAB1ABB0AC2
:10378000A01618F3CD56DF4F48815981C359D04058
:10379000B70185E0AFCF80912B0490912C04A8163F
:1037A000B90609F0B5CFB70186E0B0CFB70187E021
:1037B000ADCF80912B0490912C04A816B90609F086
:1037C000A7CFB70188E0A2CFB70189E00E944201EC
:1037D000043008F49DCF80912B0490912C04E816BE
:1037E000F90609F095CFCD56DF4FE880F980C3592F
:1037F000D040D12CC12CCB56DF4FE881F981C5597F
:10380000D040FB83EA83C956DF4F28813981C759ED
:10381000D0403D832C83DF82CE82C4010E943E0AC9
:10382000D7018D937D01BFEFCB1ADB0AC01618F3C9
:10383000CD56DF4F48815981C359D040B50189E049
:1038400059CF000F111FF801EA5EFE4F8081918170
:103850000E94A90DA8CD9F5F909361037ECC8091BB
:103860007906893208F470C020917506222329F068
:1038700031E080917606811101C030E060917806D8
:1038800080917706882319F081E0611101C080E002
:1038900050912E04507F932F982741E0503109F02A
:1038A00040E04923332369F0882361F0261B330B62
:1038B00037FF03C031952195310981E02A30310568
:1038C0000CF080E091E0511190E08923942F990F42
:1038D000890F90917A06891769F180937A0610E032
:1038E0000FE5809129041817E0F4019FC00111240D
:1038F0008F5D9B4FFC01E559FF4F20917A06208395
:1039000086599F4F61E0DC018C91813009F060E0C5
:10391000109FC0011124855C9B4F0E9457041F5FBC
:10392000E0CF809121049091220491609093220431
:1039300080932104109276061092750610927806F4
:1039400010927706109279060E9434040091370491
:10395000109138042091390430913A04601B710BA6
:10396000820B930B653171058105910508F47CC0CC
:103970000E943404609337047093380480933904B0
:1039800090933A0440912504242F30E0C901959585
:103990008795959587958427932783709927892BF9
:1039A00009F497C0E42FE3702E2F30E0C90101968F
:1039B00063E070E00E94B0274C7F840F8093250461
:1039C00090E002C095958795EA95E2F754E0880F5C
:1039D000991F5A95E1F7882791702F5D3B4FF901A8
:1039E0002581820F911D8C011127F0902B04E0900E
:1039F0002C0490FF46C0C80103960E94A201B82E75
:103A0000C80102960E94A201C82EC80101960E9418
:103A1000A201D82EC8010E94A2011F92BF921F923C
:103A2000CF921F92DF921F928F931F930F931F923B
:103A300086E48F93EF92FF928AEF91E09F938F93AA
:103A400081E092E09F938F939F928F920E94BE2974
:103A50002DB73EB72C5E3F4F0FB6F8943EBF0FBE5A
:103A60002DBFC4010E94BB0D80E090E0892B09F4BA
:103A700074CB0E947402882309F46FCB0E9400006B
:103A80006CCBC8010E94A2011F921F921F921F922D
:103A90001F921F921F928F931F930F931F9282E486
:103AA0008F93EF92FF9286E492E09F938F9381E051
:103AB00092E09F938F939F928F920E94BE294DB761
:103AC0005EB74C5E5F4F0FB6F8945EBF0FBE4DBF42
:103AD000C8CF809121049091220480FF34C08E7F52
:103AE000909322048093210480912A041F928F9343
:103AF0001F9281E08F931F9289E18F931F928F9382
:103B00001F921F921F9287E48F9380912C048F93B2
:103B100080912B048F938AEF91E09F938F9381E0A4
:103B200092E09F938F939F928F920E94BE29C4012F
:103B30000E94BB0D8DB79EB744960FB6F8949EBFFA
:103B40000FBE8DBF91CF81FF1FC08D7F9093220448
:103B50008093210480912A041F928F931F9281E009
:103B60008F931F9289E18F931F928F931F921F92C1
:103B70001F9288E48F9380912C048F9380912B0463
:103B80008F938AEF91E0D1C082FF21C08B7F909309
:103B900022048093210480912B0490912C049C0199
:103BA00033273F932F931F929F9320912D041F92B1
:103BB0002F93209129041F922F931F921F921F92DF
:103BC00026E42F939F938F938AEF91E0E3C083FFC6
:103BD00034C0877F90932204809321041F921F9208
:103BE0001F921F921F921F9280912E041F928F93FB
:103BF0001F9284E08F931F9282E48F9380912C0414
:103C00008F9380912B048F9386E492E09F938F9300
:103C100081E092E09F938F939F928F920E94BE29A2
:103C2000C4010E94BB0D2DB73EB72C5E3F4F0FB6AF
:103C3000F8943EBF0FBE2DBF17CF84FF3AC08F7ED2
:103C40009093220480932104809130049091310458
:103C50001F921F929C0133273F932F931F929F9394
:103C600080912F041F928F931F9288E08F931F9251
:103C700086E48F9380912C048F9380912B048F93F3
:103C80008AEF91E09F938F9381E092E09F938F93CF
:103C90009F928F920E94BE29C4010E94BB0D4DB716
:103CA0005EB74C5E5F4F0FB6F8945EBF0FBE4DBF60
:103CB000DBCE85FF1BC08F7D90932204809321046F
:103CC00080913304909134041F921F929C013327FA
:103CD0003F932F931F929F93809132041F928F9353
:103CE0001F928CE08F931F9286E40ECF90FF33C01B
:103CF0009E7F90932204809321041F921F921F9213
:103D00001F921F921F9280917A061F928F931F928B
:103D100080EF8F931F9282E48F9380912C048F9376
:103D200080912B048F9386E492E09F938F9381E0A0
:103D300092E09F938F939F928F920E94BE29C4011D
:103D40000E94BB0DADB7BEB754960FB6F894BEBF78
:103D50000FBEADBF89CE91FF33C09D7F90932204EB
:103D6000809321041F921F921F921F921F921F92F5
:103D700080917B061F928F931F9281EF8F931F92EA
:103D800082E48F9380912C048F9380912B048F93E6
:103D900086E492E09F938F9381E092E09F938F93CC
:103DA0009F928F920E94BE29C4010E94BB0DEDB765
:103DB000FEB774960FB6F894FEBF0FBEEDBF54CE9B
:103DC000CD56DF4F1882C359D0402FE5809129048A
:103DD000CD56DF4FF881C359D040F81708F044CED4
:103DE0000F2F10E0209FF001219FF00D1124EF5DB7
:103DF000FB4FDF01A359BF4F8D919C91119780FF1D
:103E000053C08E7F8D939C9320E030E048EC52E4C9
:103E1000658D768D878D90A10E94C8266B017C01EF
:103E200020E030E0A9010E94C32620E030E040E01D
:103E30005FE387FD34C0C701B6010E94F8240E94E9
:103E4000DB25CB0199279F938F931F927F938FE55B
:103E5000809FF001819FF00D1124EF5DFB4F848D59
:103E60001F928F93828D20E1829FC0011124238DA8
:103E70002E50330B820F931F9F938F93DF01A45912
:103E8000BF4F8C9190E001968F931F921F9286E412
:103E90008F93EB58FF4F81818F938081F0CEC701C4
:103EA000B6010E94F724CBCF81FF2EC08D7F8D936A
:103EB0009C9381A192A19C0133273F932F931F9242
:103EC0009F9385A11F928F9387A154E0859F9001B6
:103ED000112486A18370820F932F911D9F938F933E
:103EE000DF01A459BF4F8C9190E0982F88278C5FF9
:103EF0009E4F9F938F931F9286E48F93EB58FF4FB3
:103F000081818F93808106CE82FF24C08B7F8D9329
:103F10009C9381A592A51F921F929C0133273F93EA
:103F20002F931F929F9380A51F928F93DF01A45917
:103F3000BF4F8C9190E0982F8827885F9E4F9F936A
:103F40008F931F9286E48F93EB58FF4F81818F935D
:103F5000808116CE83FF24C0877F8D939C9384A598
:103F600095A51F921F929C0133273F932F931F9279
:103F70009F9383A51F928F93DF01A459BF4F8C910C
:103F800090E0982F8827845F9E4F9F938F931F9276
:103F900086E48F93EB58FF4F81818F93808113CEFE
:103FA00084FF27C08F7E8D939C9387A590A91F9235
:103FB0001F929C0133273F932F931F929F9386A5B7
:103FC0001F928F93DF01A459BF4F8C9190E0982FDF
:103FD0008827805F9E4F9F938F931F9286E48F93D5
:103FE000EB58FF4F81818F9380818F938AEF91E00F
:103FF0000DCE85FF1CC08F7D8D939C9382A993A9C4
:104000001F921F929C0133273F932F931F929F93E0
:1040100081A91F928F93DF01A459BF4F8C9190E02B
:10402000982F88278C5E9E4F9F938F932FCF86FF6C
:104030001AC08F7B8D939C9385A996A91F921F927E
:104040009C0133273F932F931F929F9384A91F9224
:104050008F93DF01A459BF4F8C9190E0982F882750
:10406000885E9E4F46CF87FF1AC08F778D939C93B3
:1040700080AD91AD1F921F929C0133273F932F93E8
:104080001F929F9387A91F928F93DF01A459BF4F5F
:104090008C9190E0982F8827845E9E4F50CF90FFA0
:1040A00024C02FE5209FF001219FF00D1124EF5D2A
:1040B000FB4FDF01A359BF4F9E7F11969C938E93B8
:1040C00083AD94AD1F921F929C0133273F932F9392
:1040D0001F929F9382AD1F928F9311978C9190E0C6
:1040E000982F8827805E9E4F50CF91FF23C02FE5E9
:1040F000209FF001219FF00D1124EF5DFB4FDF01A8
:10410000A359BF4F9D7F11969C938E9383A194A139
:104110001F921F921F921F929C0133273F932F9350
:104120001F929F9311978C9190E0982F88278C5D18
:104130009E4F51CF92FF3AC04FE5409F9001419F63
:10414000300D11242F5D3B4FF901E359FF4F9B7F49
:1041500091838083809183038F93809182038F93D7
:10416000809179038F93809178038F9380916D0371
:104170008F9380916C038F93809163038F938091D1
:1041800062038F933197808190E0982F8827885D14
:104190009E4F9F938F931F9286E48F9339968181D0
:1041A0008F9380818F938DE492E06CCD209FC0012E
:1041B000219F900D1124DC01AF5DBB4F7D01FD01FE
:1041C000EE5AFF4FE081AD5ABF4F3C91E31709F41F
:1041D000E5C2F0E03996EE0FFF1FEE0FFF1FE80F6C
:1041E000F91FEF5DFB4F20E030E046E154E4628DC3
:1041F000738D848D958D0E9469250E943B2720E058
:1042000030E040E850E40E94C826F701258D368D45
:10421000478D50A10E94C8262B013C0120E030E0D0
:1042200040E251E40E9469259B01AC010E94C8262E
:104230005B016C01D70191968D919C916AE070E0D1
:104240000E949C2790E080E00E9411269B01AC0117
:10425000C601B5010E9469256B017C0120E030E0B8
:10426000A9010E94C32620E030E040E05FE387FD23
:10427000B8C1C701B6010E94F8240E94DB257B016A
:104280008FE5809FF001819FF00D1124EF5DFB4FC2
:10429000DF01A45BBF4FAD90BC9065A170E0C5018C
:1042A0000E949C2790E080E00E94112620E030E0F0
:1042B00040E05FE30E94F8240E94DB256A3071052C
:1042C0008105910524F46AE070E080E090E0EA0C5A
:1042D000FB1C2FE5209FF001219FF00D1124E359D5
:1042E000FB4FF182E0826E157F0508F07FC1E61A70
:1042F000F70AF182E0822FE5209FC001219F900DF7
:104300001124FC01EF5DFB4F7F01E45BFF4F6081F7
:10431000718190E080E00E9411265B016C01F70141
:10432000E85AFF4F6081718190E080E00E94112681
:104330009B01AC01C601B5010E94692520E030E077
:1043400048EC52E40E94C8266B017C0120E030E07A
:10435000A9010E94C32620E030E040E05FE387FD32
:1043600048C1C701B6010E94F8240E94DB258FE5F1
:10437000809FF001819FF00D1124EF58FB4F718356
:10438000608320E030E0A901C301B2010E94C3268E
:1043900020E030E040E05FE387FD30C1C301B201BF
:1043A0000E94F8240E94DB252FE5209FC001219F59
:1043B000900D11249C012F5D3B4F7901F901E25BC7
:1043C000FF4F718360833696408051806280738096
:1043D00038EE430E33E0531E611C711C0E943404FE
:1043E000461657066806790608F0CDC0D701D7965D
:1043F0008C91D797807E59F0A759BF4FF701E958A4
:10440000FF4F442443949C918081981301C0412C18
:104410008FE5809FF001819FF00D1124EF5DFB4F30
:10442000DF01A05BBF4FAD90BC9082AD807E41F0BC
:10443000E858FF4F8081552453948A151B0409F4D2
:10444000512C2FE5209FC001219F900D1124FC01CC
:10445000EF5DFB4F7F01E45BFF4F8081918164E65C
:1044600070E00E949C2790E080E00E94112620E0EE
:1044700030E040E05FE30E94F8240E94DB256B01FE
:10448000D7015C968C910E9440039F938F93F70114
:10449000E659FF4F80811F928F933701B9E66B0E6B
:1044A000711CF30180811F928F933F9680811F9230
:1044B0008F93BA9781818F9380818F93DF92CF9270
:1044C000B50190E080E00E94112620E030E040E05D
:1044D0005FE30E94F8240E94DB257F936F93F7012E
:1044E000E459FF4F80811F928F9384E592E09F9360
:1044F0008F939F928F920E94BE29C4010E94BB0D90
:104500002DB73EB72C5E3F4F0FB6F8943EBF0FBE9F
:104510002DBF442009F4C0C0D3012C91F70182AD16
:1045200090E035E0959587953A95E1F782309105D1
:1045300009F499C00CF067C0019709F47EC02FE51B
:10454000209FC001219F900D11248F5D9B4FFC0186
:10455000E958FF4F87599F4FDC018C9180838FE58D
:10456000809FF001819FF00D1124EB58FB4F80815B
:104570009181A281B38188519C4FAF4FBF4F8083FF
:104580009183A283B3832FE5209FC001219F900DCB
:1045900011248C010F5D1B4FF801EE5AFF4F8081F3
:1045A00090E0019663E070E00E94B027808332972C
:1045B000808191818937910508F456CACD56DF4F25
:1045C000B881C359D040B29FC001112460E0855C1E
:1045D0009B4F0E945704F801E759FF4F85E0808305
:1045E00043CAC701B6010E94F72447CE1182108248
:1045F00082CEC701B6010E94F724B7CEC301B20133
:104600000E94F724CFCE8330910591F1049709F0F1
:1046100096CF87A9482F4170233018F08095482FF6
:1046200041708FE5809FF001819FF00D1124EF5DB7
:10463000FB4F63AD74AD82EB13C087A9482F417067
:10464000233018F08095482F41708FE5809FF0014E
:10465000819FF00D1124EF5DFB4F63AD74AD80EBD6
:104660000E947E0E6CCF63AD74AD422F8DEEF8CFFD
:1046700087A9482F4170233018F08095482F41704A
:104680008FE5809FF001819FF00D1124EF5DFB4FBE
:1046900063AD74AD85EEE4CF552009F460CFF7012A
:1046A00082ADE05BFF4F60817181282F30E095E0A3
:1046B000359527959A95E1F72230310509F443C0E5
:1046C0008CF42130310549F12FE5209FC001219F55
:1046D000900D11248F5D9B4FFC01E858FF4F805BCC
:1046E0009F4F3ACF2330310509F444C024303105BF
:1046F00059F7482F41706536710518F48095482F99
:1047000041708FE5809FF001819FF00D1124EF5DD6
:10471000FB4F63AD74AD82EB13C0482F417065361B
:10472000710518F48095482F41708FE5809FF00146
:10473000819FF00D1124EF5DFB4F63AD74AD80EBF5
:104740000E947E0EC1CF769567957695679590E02D
:1047500080E00E94112620E030E040E05FE30E940C
:10476000F8240E94DB25462FD701DB966D917C91C2
:104770008DEEE6CF482F41706536710518F48095AF
:10478000482F41708FE5809FF001819FF00D11242B
:10479000EF5DFB4F63AD74AD85EED2CFCD56DF4FED
:1047A000E881C359D040EF5FCD56DF4FE883C3594E
:1047B000D0400CCB8F929F92AF92BF92CF92DF925C
:1047C000EF92FF92CF93DF93EC01688179818A8128
:1047D0009B81611571058105910521F464E279EDF4
:1047E0008BE597E02DE133EF41E050E00E94942407
:1047F00049015A019B01AC01A7EAB1E40E94B3242C
:104800006B017C01ACEEB4EFA50194010E94C124C0
:10481000C60ED71EE81EF91EF7FE06C081E0C81AB4
:10482000D108E10880E8F80AC882D982EA82FB82CE
:10483000C701B6019F77DF91CF91FF90EF90DF9096
:10484000CF90BF90AF909F908F9008958F929F923E
:10485000AF92BF92CF92DF92EF92FF9260910201EE
:10486000709103018091040190910501611571051A
:104870008105910521F464E279ED8BE597E02DE166
:1048800033EF41E050E00E94942449015A019B011A
:10489000AC01A7EAB1E40E94B3246B017C01ACEE49
:1048A000B4EFA50194010E94C124C60ED71EE81ED4
:1048B000F91EF7FE06C081E0C81AD108E10880E8B9
:1048C000F80AC0920201D0920301E0920401F09232
:1048D0000501C701B6019F77FF90EF90DF90CF9061
:1048E000BF90AF909F908F90089560930201709356
:1048F000030180930401909305010895F999FECF77
:1049000092BD81BDF89A992780B50895262FF9990F
:10491000FECF1FBA92BD81BD20BD0FB6F894FA9AA2
:10492000F99A0FBE01960895052E97FB1EF4009488
:104930000E94AB2457FD07D00E94C62407FC03D079
:104940004EF40C94AB2450954095309521953F4FF3
:104950004F4F5F4F089590958095709561957F4F6B
:104960008F4F9F4F08950E94E824A59F900DB49FFC
:10497000900DA49F800D911D11240895B7FF0C94F4
:10498000B3240E94B324821B930B0895A1E21A2E34
:10499000AA1BBB1BFD010DC0AA1FBB1FEE1FFF1FE3
:1049A000A217B307E407F50720F0A21BB30BE40B33
:1049B000F50B661F771F881F991F1A9469F760957A
:1049C0007095809590959B01AC01BD01CF01089534
:1049D000A29FB001B39FC001A39F700D811D112440
:1049E000911DB29F700D811D1124911D0895505885
:1049F000BB27AA270E940F250C9489260E947B269C
:104A000038F00E94822620F039F49F3F19F426F4F2
:104A10000C9478260EF4E095E7FB0C947226E92FAF
:104A20000E949A2658F3BA176207730784079507FE
:104A300020F079F4A6F50C94BC260EF4E0950B2E2C
:104A4000BA2FA02D0B01B90190010C01CA01A001E0
:104A50001124FF27591B99F0593F50F4503E68F13B
:104A60001A16F040A22F232F342F4427585FF3CF7C
:104A7000469537952795A795F0405395C9F77EF44D
:104A80001F16BA0B620B730B840BBAF09150A1F096
:104A9000FF0FBB1F661F771F881FC2F70EC0BA0F1C
:104AA000621F731F841F48F4879577956795B795A4
:104AB000F7959E3F08F0B0CF9395880F08F099279F
:104AC000EE0F9795879508950E944E2608F481E091
:104AD00008950E947D250C9489260E94822658F014
:104AE0000E947B2640F029F45F3F29F00C94722647
:104AF00051110C94BD260C9478260E949A2668F3D6
:104B00009923B1F3552391F3951B550BBB27AA2786
:104B100062177307840738F09F5F5F4F220F331FC0
:104B2000441FAA1FA9F335D00E2E3AF0E0E832D088
:104B300091505040E695001CCAF72BD0FE2F29D08B
:104B4000660F771F881FBB1F261737074807AB075D
:104B5000B0E809F0BB0B802DBF01FF2793585F4FD2
:104B60003AF09E3F510578F00C9472260C94BD26C5
:104B70005F3FE4F3983ED4F3869577956795B795B4
:104B8000F7959F5FC9F7880F911D9695879597F9BF
:104B90000895E1E0660F771F881FBB1F6217730738
:104BA0008407BA0720F0621B730B840BBA0BEE1F4D
:104BB00088F7E09508950E94E2256894B1110C945D
:104BC000BD2608950E94A22688F09F5798F0B92F1D
:104BD0009927B751B0F0E1F0660F771F881F991F32
:104BE0001AF0BA95C9F714C0B13091F00E94BC26F2
:104BF000B1E008950C94BC26672F782F8827B85F02
:104C000039F0B93FCCF3869577956795B395D9F789
:104C10003EF490958095709561957F4F8F4F9F4F93
:104C20000895E89409C097FB3EF49095809570959F
:104C300061957F4F8F4F9F4F9923A9F0F92F96E9E8
:104C4000BB279395F695879577956795B795F1115D
:104C5000F8CFFAF4BB0F11F460FF1BC06F5F7F4FFA
:104C60008F4F9F4F16C0882311F096E911C077230C
:104C700021F09EE8872F762F05C0662371F096E815
:104C8000862F70E060E02AF09A95660F771F881FE4
:104C9000DAF7880F9695879597F90895990F000888
:104CA000550FAA0BE0E8FEEF16161706E807F907FE
:104CB000C0F012161306E407F50798F0621B730B99
:104CC000840B950B39F40A2661F0232B242B252B1A
:104CD00021F408950A2609F4A140A6958FEF811DBD
:104CE000811D089597F99F6780E870E060E008955E
:104CF0009FEF80EC089500240A94161617061806F4
:104D00000906089500240A941216130614060506CF
:104D10000895092E0394000C11F4882352F0BB0F60
:104D200040F4BF2B11F460FF04C06F5F7F4F8F4FC3
:104D30009F4F089557FD9058440F551F59F05F3FFE
:104D400071F04795880F97FB991F61F09F3F79F0AD
:104D500087950895121613061406551FF2CF46952F
:104D6000F1DF08C0161617061806991FF1CF8695B1
:104D70007105610508940895E894BB276627772795
:104D8000CB0197F908950E944E2608F48FEF0895FD
:104D90000E94DB260C9489260E947B2638F00E9414
:104DA000822620F0952311F00C9472260C9478261C
:104DB00011240C94BD260E949A2670F3959FC1F38E
:104DC000950F50E0551F629FF001729FBB27F00DB9
:104DD000B11D639FAA27F00DB11DAA1F649F66270E
:104DE000B00DA11D661F829F2227B00DA11D621F5D
:104DF000739FB00DA11D621F839FA00D611D221F17
:104E0000749F3327A00D611D231F849F600D211DFA
:104E1000822F762F6A2F11249F5750409AF0F1F07D
:104E200088234AF0EE0FFF1FBB1F661F771F881FE6
:104E300091505040A9F79E3F510580F00C94722686
:104E40000C94BD265F3FE4F3983ED4F386957795A6
:104E50006795B795F795E7959F5FC1F7FE2B880F8C
:104E6000911D9695879597F9089519F416F40C9469
:104E700078260C947B270E94A226B8F39923C9F3C5
:104E8000B6F39F57550B87FF0E9489270024A0E6A1
:104E900040EA900180585695979528F4805C660FFB
:104EA000771F881F20F026173707480730F4621B4A
:104EB000730B840B202931294A2BA695179407944C
:104EC000202531254A2758F7660F771F881F20F0C5
:104ED00026173707480730F4620B730B840B200D3D
:104EE000311D411DA09581F7B901842F9158880F7C
:104EF0009695879508959F3F31F0915020F48795BE
:104F000077956795B795880F911D9695879597F931
:104F1000089591505040660F771F881FD2F708956B
:104F2000991B79E004C0991F961708F0961B881FFB
:104F30007A95C9F780950895AA1BBB1B51E107C05C
:104F4000AA1FBB1FA617B70710F0A61BB70B881F19
:104F5000991F5A95A9F780959095BC01CD010895A8
:104F600097FB072E16F4009407D077FD09D00E9416
:104F70009C2707FC05D03EF4909581959F4F08959E
:104F8000709561957F4F0895EE0FFF1F0590F49186
:104F9000E02D09940F931F93CF93DF9382309105F7
:104FA00010F482E090E0E0917F06F091800630E01E
:104FB00020E0B0E0A0E0309799F42115310509F424
:104FC0004AC0281B390B24303105D8F58A819B81D2
:104FD0006115710589F1FB0193838283FE0111C084
:104FE000408151810281138148175907E0F0481729
:104FF000590799F4109761F012960C931297139633
:105000001C933296CF01DF91CF911F910F9108959C
:1050100000937F0610938006F4CF2115310551F0DF
:105020004217530738F0A901DB019A01BD01DF01E6
:10503000F801C1CFEF01F9CF9093800680937F06EE
:10504000CDCFFE01E20FF31F8193919322503109DE
:1050500039832883D7CF20917D0630917E06232B7C
:1050600041F4209108013091090130937E0620938C
:105070007D0620910601309107012115310541F48B
:105080002DB73EB740910A0150910B01241B350BFF
:10509000E0917D06F0917E06E217F307A0F42E1B47
:1050A0003F0B2817390778F0AC014E5F5F4F24178C
:1050B000350748F04E0F5F1F50937E0640937D06E4
:1050C000819391939FCFF0E0E0E09CCFCF93DF936B
:1050D0000097E9F0FC01329713821282A0917F06BB
:1050E000B0918006ED0130E020E01097A1F420811E
:1050F0003181820F931F20917D0630917E06281703
:10510000390709F061C0F0937E06E0937D06DF91D8
:10511000CF910895EA01CE17DF07E8F54A815B8158
:105120009E0141155105B1F7E901FB83EA834991DD
:105130005991C40FD51FEC17FD0761F4808191814F
:105140000296840F951FE901998388838281938158
:105150009B838A83F0E0E0E012968D919C911397F7
:105160000097B9F52D913C911197CD010296820FD0
:10517000931F20917D0630917E062817390739F656
:10518000309751F51092800610927F06B0937E06FC
:10519000A0937D06BCCFD383C28340815181840F0D
:1051A000951FC817D90761F44E5F5F4F88819981B9
:1051B000480F591F518340838A819B819383828347
:1051C0002115310509F0B0CFF0938006E0937F06FA
:1051D0009ECFFD01DC01C0CF13821282D7CFB0E099
:1051E000A0E0E5EFF8E20C94612C8C01009751F4FB
:1051F000CB010E94CA278C01C801CDB7DEB7E0E120
:105200000C947D2CFC01E60FF71F9C012250310904
:10521000E217F30708F49DC0D901CD91DC911197F5
:10522000C617D70798F0C530D10530F3CE010497E3
:105230008617970708F3C61BD70B2297C193D19304
:105240006D937C93CF010E946628D6CF5B01AC1A88
:10525000BD0A4C018C0E9D1EA0917F06B091800668
:10526000512C412CF12CE12C109731F580917D06C9
:1052700090917E068815990509F05CC04616570680
:1052800008F058C08091060190910701009741F401
:105290008DB79EB740910A0150910B01841B950B6D
:1052A000E817F90708F055C0F0937E06E0937D06F5
:1052B000F90171836083A0CF8D919C911197129613
:1052C0006C90129713967C901397A815B90559F511
:1052D0006C0142E0C40ED11CCA14DB0420F1AC0105
:1052E0004A195B09DA011296159780F0628273827F
:1052F00051834083D9016D937C93E114F10471F0E3
:10530000D7011396FC93EE93129776CF22968C0FCB
:105310009D1FF90191838083F301EFCFF093800605
:10532000E0937F0669CF4816590608F42C017D01E9
:10533000D3019ACFCB010E94CA277C01009749F084
:10534000AE01B8010E94AC29C8010E9466288701FD
:1053500053CF10E000E050CFFB01DC0102C0019010
:105360000D9241505040D8F70895FB01DC018D911A
:10537000019080190110D9F3990B0895AEE0B0E0C7
:10538000E4ECF9E20C946D2C0D891E8986E08C8387
:105390001A8309838FEF9FE79E838D83AE01475E5B
:1053A0005F4F6F89788DCE0101960E94E1292F8190
:1053B0003885020F131FF80110822E96E4E00C943A
:1053C000892CABE0B0E0E7EEF9E20C945F2C7C01B5
:1053D0003B018A01FC0117821682838181FFC8C1CB
:1053E000CE0101965C01F7019381F30193FD859154
:1053F00093FF81913F01882309F453C1853239F429
:1054000093FD859193FF81913F01853229F4B70186
:1054100090E00E94D12BE7CF912C212C312CFFE181
:10542000F31538F08B3211F190F4803209F18332A8
:1054300029F137FC3CC020ED280F2A3050F536FE0C
:1054400020C08AE0989E200D1124922E06C08D3235
:1054500091F0803371F7689430F8F30193FD8591F2
:1054600093FF81913F018111DACF21C0689431F817
:10547000689432F8F2CF689433F8EFCF689434F838
:10548000ECCFEAE02E9E200D1124222E689435F8F0
:10549000E4CF8E3229F436FC04C1689436F8DDCFAF
:1054A0008C3619F4689437F8D8CF8836B1F2982F33
:1054B0009F7D95549330E0F08336A1F18337C1F19D
:1054C000833509F063C02801F2E04F0E511CF8014A
:1054D000C080D180692D70E036FC02C06FEF7FEF95
:1054E000C6010E94BB2B4C01689437F882010AC0A8
:1054F0000C5F1F4FFFE3F98388248394912C65018F
:10550000E89437F833FE2DC0522C8114910471F5C4
:10551000552009F468CFB70180E290E00E94D12BBA
:105520005A94F6CFF801808189830E5F1F4FE4CF34
:105530002801F2E04F0E511CF801C080D180692D86
:1055400070E036FC02C06FEF7FEFC6010E94C62BF1
:105550004C018201D5CFB70180E290E00E94D12BAF
:105560002A942814190409F0B0F7CECFF60137FCBD
:10557000859137FE81916F01B70190E00E94D12B98
:1055800051105A94F1E08F1A9108BFCF843619F068
:10559000893609F077C0F80137FE6BC060817181F0
:1055A000828193810C5F1F4FF32DFF763F2E97FF73
:1055B00009C090958095709561957F4F8F4F9F4F53
:1055C000689437F82AE030E0A5010E94012CC82E2B
:1055D000CA188C2C432C36FE0CC0E89440F8C91431
:1055E00040F434FE05C032FC03C0F32DFE7E4F2E86
:1055F000892C44FE95C0FE01EC0DF11D80818033A5
:1056000009F087C0242D297E422E842D8870582EC3
:1056100043FC95C040FE8FC09C2C821418F42C0CC7
:10562000922C981844FE91C0B70180E390E00E944C
:10563000D12B42FE09C088E790E041FE02C088E518
:1056400090E0B7010E94D12BC91408F48AC0CA9413
:10565000D12C9FEFC91AD90ACA0CDB1CF601829122
:105660006F01B70190E00E94D12BAC14BD04B1F7DB
:105670004FCF60817181072E000C880B990B0E5F54
:105680001F4F92CFD32CE894D4F82AE030E085372E
:1056900039F1232D297FD22E8F3601F148F4883538
:1056A000A9F0F701868197812B96E2E10C947B2C7F
:1056B000803749F08837A9F7D4FE02C06894D2F841
:1056C00020E130E00DC06894D4F8F6CF34FE03C07A
:1056D000822F8660D82E20E132E002C028E030E040
:1056E000F801D7FE0FC060817181828193810C5FC8
:1056F0001F4FA5010E94012CC82ECA183D2CE8940A
:1057000037F867CF6081718190E080E00E5F1F4FB6
:10571000F0CF42FC02C0839478CF8394839475CFFA
:10572000842D867809F471CFF6CFB70180E290E03E
:105730000E94D12B83948214C0F3512C73CF522C2E
:105740005818821408F46ECFF8CF842D867809F4A7
:105750007BCF8BE241FE80E247FC8DE2B70190E017
:1057600071CFB70180E390E00E94D12B9A946CCF67
:105770008FEF9FEF99CFFC010590615070400110B1
:10578000D8F7809590958E0F9F1F0895FC0161506A
:10579000704001900110D8F7809590958E0F9F1F53
:1057A00008950F931F93CF93DF93182F092FEB01C9
:1057B0008B8181FD09C01FEF0FEF812F902FDF91AB
:1057C000CF911F910F91089582FF14C02E813F81C8
:1057D0008C819D81281739073CF4E881F981CF013C
:1057E00001969983888310838E819F8101969F8380
:1057F0008E83E3CFE885F985812F0995892BA1F365
:10580000DACFFA01AA27283051F1203181F1E8944A
:105810006F936E7F6E5F7F4F8F4F9F4FAF4FB1E0A3
:105820003ED0B4E03CD0670F781F891F9A1FA11D9E
:10583000680F791F8A1F911DA11D6A0F711D811D9F
:10584000911DA11D20D009F468943F912AE0269F64
:1058500011243019305D3193DEF6CF010895462FC3
:105860004770405D4193B3E00FD0C9F7F6CF462FA4
:105870004F70405D4A3318F0495D31FD405241930D
:1058800002D0A9F7EACFB4E0A695979587957795CA
:105890006795BA95C9F700976105710508959B0151
:1058A000AC010A2E06945795479537952795BA95DA
:1058B000C9F7620F731F841F951FA01D08952F92B3
:1058C0003F924F925F926F927F928F929F92AF9290
:1058D000BF92CF92DF92EF92FF920F931F93CF93DD
:1058E000DF93CDB7DEB7CA1BDB0B0FB6F894DEBF74
:1058F0000FBECDBF09942A88398848885F846E849A
:105900007D848C849B84AA84B984C884DF80EE80E3
:10591000FD800C811B81AA81B981CE0FD11D0FB6EC
:10592000F894DEBF0FBECDBFED010895F894FFCF10
:10593000100101000000000081068000000000004E
:10594000461243123F12840287029202A202AF0261
:10595000B80200000000AA020A023702F702680239
:1059600046025A022F2F22225C5C6208660C6E0AE5
:10597000720D7409000D0A007B22436D64223A22E5
:105980004C4E222C224F5043223A25692C2241644E
:105990006472223A25692C202253746174223A25BC
:1059A000697D0A00496E76616C696420426F6F738D
:1059B000746572204E6F6465204461746100747276
:1059C00075650066616C7365006E756C6C007B229A
:1059D000446576223A22496F54542053696C7665A7
:1059E0007248617420426F6F73746572227D007B10
:1059F00022436865636B223A002C2253756D223A6C
:105A000000436D64004E6F6465004C4E0050726D33
:105A1000004F70630056616C730041646472004211
:105A2000544E00535600447374002253565234228D
:105A3000007B22436D64223A25732C2250726D2222
:105A40003A7B22537263223A25692C224F706322DB
:105A50003A25692C2241646472223A25692C225627
:105A6000616C73223A5B25692C25692C25692C25EC
:105A7000695D7D7D0A002253565231220022535621
:105A8000573422007B22436D64223A22444343412F
:105A90006D70222C2249223A5B25692C25692C2520
:105AA000692C25692C25692C25692C25692C2569EB
:105AB0005D7D0A004F6B00456D707479496E70759D
:105AC0007400496E636F6D706C657465496E7075B6
:105AD0007400496E76616C6964496E707574004E2D
