:100000000C947A000C94A2000C94A2000C94A20010
:100010000C94A2000C94A2000C94A2000C94A200D8
:100020000C94A2000C94A2000C94A2000C94A200C8
:100030000C94A2000C94B8120C94A2000C94A20090
:100040000C946E120C94A2000C943C120C94161298
:100050000C94A2000C94A2000C94A2000C94A20098
:100060000C94A2000C94A200CDCCCC3D0AD7233C2A
:1000700017B7D13877CC2B329595E6241FB14F0AAC
:10008000000020410000C84200401C4620BCBE4C7D
:10009000CA1B0E5AAEC59D74000000002400270044
:1000A0002A0000000000250028002B0000000000AE
:1000B00023002600290004040404040404040202AA
:1000C00002020202030303030303010204081020D7
:1000D00040800102040810200102040810200000E2
:1000E00000080002010000030407000000000000F7
:1000F00000005E1611241FBECFEFD8E0DEBFCDBFDB
:1001000012E0A0E0B1E0EAEBF8E502C005900D9244
:10011000A03DB107D9F726E0A0EDB2E001C01D92E5
:10012000A435B207E1F710E0CAE7D0E004C0219798
:10013000FE010E948927C937D107C9F70E940A1713
:100140000C945B2C0C940000FC016431710509F4E3
:1001500047C094F46830710589F13CF4611571056C
:10016000F9F06430710521F108956C30710561F189
:100170006031710579F108956032710509F442C06A
:100180003CF46831710591F16C317105A9F1089564
:1001900064327105E9F16F3F710509F43FC00895BC
:1001A000ED5AFF4F80819181816091838083089512
:1001B000ED5AFF4F808191818260F7CFED5AFF4F5A
:1001C000808191818460F1CFED5AFF4F80819181D0
:1001D0008860EBCFED5AFF4F808191818061E5CF40
:1001E000ED5AFF4F808191818062DFCFED5AFF4F42
:1001F000808191818064D9CFED5AFF4F80819181B8
:100200008068D3CFED5AFF4F808191819160CDCF2F
:10021000ED5AFF4F808191819260C7CF8D5A9F4FD9
:100220002FEF3FEFFC01318320830895BC019091B3
:10023000F803292F30E035952795359527952370BC
:10024000E22FF0E0EC50FC4F658340E150E0022EDD
:1002500001C0440F0A94EAF770FF11C0492B409384
:10026000F80381E0820F63E00E945527990F990FF0
:100270008091F803837F980F9093F8030895409539
:100280004923EDCFCF92DF92EF92FF920F931F930E
:10029000CF93DF936B01CC24C114D104C1F5873017
:1002A000C1F068F4823079F0863071F1DF91CF913E
:1002B0001F910F91FF90EF90DF90CF9008958830BD
:1002C00091F08F3F99F76F3F710599F48FEF9FEF92
:1002D00005C08091F4039091F50381609093F5033C
:1002E0008093F403E3CF8091F4039091F50382604F
:1002F000F5CFCB01DF91CF911F910F91FF90EF9040
:10030000DF90CF900C941601CB019395F3CF0FEFB4
:10031000070F84EFE82E83E0F82E10E0EB01DD27D5
:10032000011721F0C1148FEFD80629F4BE01C701CF
:100330004A960E94A4001F5F8FE5E80EF11C16305C
:1003400079F7B4CF89309105D1F198F482309105D5
:1003500069F130F4009721F1019729F18FEF0895A9
:100360008430910549F128F10897C1F78091020482
:1003700008958D30910549F140F48A30910511F1CD
:100380000C9761F7809105040895803F910501F174
:10039000813F910509F10E9709F7809106040895B0
:1003A0008091FC0308958091000408958091FF03DB
:1003B00008958091FE03089580910104089580912D
:1003C000040408958091030408958091070408951A
:1003D00080914D068170089580914E06FBCFCF939A
:1003E000DF93EC0188819981DC01ED91FC91019012
:1003F000F081E02D64E270E00995009741F02FE173
:10040000FC01238321E02283DF91CF91089521E035
:100410002A83FACFAF92BF92CF92DF92EF92FF92F0
:100420000F931F93CF93DF936C017B018B01040F1C
:10043000151FEB015E01AE18BF08C017D10759F0B8
:100440006991D601ED91FC910190F081E02DC601FA
:100450000995892B79F7C501DF91CF911F910F91F4
:10046000FF90EF90DF90CF90BF90AF900895FC0188
:10047000538D448D252F30E0842F90E0821B930B09
:10048000541710F0CF96089501970895FC01918DAF
:10049000828D981761F0A28DAE0FBF2FB11D5D96B2
:1004A0008C91928D9F5F9F73928F90E008958FEF54
:1004B0009FEF0895FC01918D828D981731F0828D08
:1004C000E80FF11D858D90E008958FEF9FEF08955F
:1004D000FC01918D228D892F90E0805C9F4F821BC3
:1004E00091098F73992708958EE493E00E94680222
:1004F00021E0892B09F420E0822F089580E090E02C
:10050000892B29F00E94740281110C940000089537
:10051000FC01A48DA80FB92FB11DA35ABF4F2C9178
:10052000848D90E001968F739927848FA689B7896F
:100530002C93A089B1898C91837080648C93938D66
:10054000848D981306C00288F389E02D80818F7D09
:1005500080830895EF92FF920F931F93CF93DF93C1
:10056000EC0181E0888F9B8D8C8D98131AC0E889EF
:10057000F989808185FF15C09FB7F894EE89FF89BE
:100580006083E889F98980818370806480839FBF5C
:1005900081E090E0DF91CF911F910F91FF90EF905C
:1005A0000895F62E0B8D10E00F5F1F4F0F7311276C
:1005B000E02E8C8D8E110CC00FB607FCFACFE889A7
:1005C000F989808185FFF5CFCE010E948802F1CFA5
:1005D000EB8DEC0FFD2FF11DE35AFF4FF0829FB71B
:1005E000F8940B8FEA89FB8980818062CFCFCF930B
:1005F000DF93EC01888D8823B9F0AA89BB89E8894B
:10060000F9898C9185FD03C0808186FD0DC00FB6F0
:1006100007FCF7CF8C9185FFF2CF808185FFEDCF6E
:10062000CE010E948802E9CFDF91CF9108958330F7
:1006300081F028F4813099F08230A9F00895873054
:10064000A9F08830C9F08430B1F4809180008F7DAA
:1006500003C0809180008F7780938000089584B5D7
:100660008F7784BD089584B58F7DFBCF8091B000D6
:100670008F778093B00008958091B0008F7DF9CF7F
:10068000CF93DF93282F30E0F901E252FF4F84919E
:10069000F901E653FF4FD491F901EA54FF4FC49199
:1006A000CC23A1F081110E941703EC2FF0E0EE0F94
:1006B000FF1FE455FF4FA591B491EC91ED2381E02C
:1006C00090E009F480E0DF91CF91089580E090E020
:1006D000FACF1F93CF93DF93282F30E0F901E25236
:1006E000FF4F8491F901E653FF4FD491F901EA5489
:1006F000FF4FC491CC23A9F0162F81110E9417033C
:10070000EC2FF0E0EE0FFF1FEE55FF4FA591B491D7
:100710008FB7F894EC91111108C0D095DE23DC93CB
:100720008FBFDF91CF911F910895DE2BF8CFCF932C
:10073000DF9390E0FC01E653FF4F24918A549F4FD2
:10074000FC0184918823D1F090E0880F991FFC016F
:10075000E856FF4FA591B491FC01EE55FF4FC591AE
:10076000D49161110EC09FB7F8948C91E22FE0955F
:100770008E238C932881E223E8839FBFDF91CF9162
:1007800008958FB7F894EC91E22BEC938FBFF6CFDE
:100790008E3008F08E508770806480937C0080914A
:1007A0007A00806480937A0080917A0086FDFCCF85
:1007B000809178009091790008953FB7F8948091E6
:1007C000D5029091D602A091D702B091D80226B559
:1007D000A89B05C02F3F19F00196A11DB11D3FBF79
:1007E000BA2FA92F982F8827BC01CD01620F711D48
:1007F000811D911D42E0660F771F881F991F4A9542
:10080000D1F708958F929F92AF92BF92CF92DF92CD
:10081000EF92FF924B015C010E94DD036B017C01B2
:100820000E94DD036C197D098E099F09683E7340A3
:1008300081059105A8F321E0821A9108A108B10869
:1008400088EEC80E83E0D81EE11CF11C81149104CF
:10085000A104B10429F7FF90EF90DF90CF90BF90F3
:10086000AF909F908F9008952FB7F8946091D10228
:100870007091D2028091D3029091D4022FBF08953B
:100880006F3FB1F0E62FE295EF7044E0E49F9001F6
:100890001124DC01ED91FC91E20FF31F6F70B8E0C1
:1008A0006B9FC001112462817381860F971F089589
:1008B00090E080E00895CF93C82FCB016C2F459630
:1008C0000E9440042FEF009711F0FC012581BC012C
:1008D0008C2F922FCF910895982F80336CF08A330C
:1008E00024F08F3524F08B3724F481E0089581348F
:1008F0001CF081E09B350CF080E00895FC018285BE
:1009000081110AC0A781B085CD01019690878783A8
:100910008C91818781E08287818508951F93CF9391
:10092000DF93EC01162F0E947E04811306C01A8605
:1009300081E0DF91CF911F91089580E0FACF0F936E
:100940001F93CF93DF938C01EB018991882369F08A
:10095000C8010E947E04882379F0FE0131979081BE
:1009600098130DC0F8011286F0CF90E080E0DF917F
:10097000CF911F910F91089582E090E0F8CF83E02E
:1009800090E0F5CFCF93DF93EC01CE010E947E047F
:100990008B304CF489305CF4882359F081E08E83ED
:1009A00090E080E00BC08D3011F08032B9F71A86EC
:1009B000ECCF8E81811105C081E090E0DF91CF9175
:1009C000089582E090E0FACF4F925F926F927F920B
:1009D0008F929F92AF92BF92CF92DF92EF92FF924F
:1009E0000F931F93CF93DF93EB01DC012C912B32FC
:1009F000D9F12D32D1F50196FF24F394FC01208129
:100A000030ED320F3A3018F02E3209F042C18C012D
:100A100060E070E0CB01F801219130ED832E820E71
:100A200039E0381520F16A3949E97407840749E14A
:100A3000940738F5AAE0B0E09B01AC010E9478244D
:100A4000912CB12CA12C2401350140945094609438
:100A50007094461657066806790698F0680D791D59
:100A60008A1D9B1D8F01D7CF0196F12CC7CF211175
:100A700008C0FF20E9F161307105810550E8950754
:100A8000A0F0E12CBAE08B2E912CA12CB12C611599
:100A9000710530E883079105B0F1A50194010E942A
:100AA0008B24CA01B901E394F2CF2C8120782A600B
:100AB0002C839B01AC0188279927DC01821B930BB7
:100AC000A40BB50B88839983AA83BB838F2DDF91F9
:100AD000CF911F910F91FF90EF90DF90CF90BF903B
:100AE000AF909F908F907F906F905F904F90089500
:100AF0002C81207828602C83688379838A839B8368
:100B0000FF24F394E3CFF801D8012D918D0130ED4E
:100B1000320F3A3010F4E394F6CF2E3201F58F0104
:100B20000F5F1F4FF8010F5F1F4F2081A0EDDA2EDE
:100B3000D20EB9E0BD1598F06C3CECEC7E07ECE011
:100B40008E07910578F7AAE0B0E09B01AC010E9406
:100B500078246D0D711D811D911DEA94E3CF2081D4
:100B60002F7D10E000E0253409F05BC021812D329B
:100B7000D1F53296CC24C394DF0110E000E02E2D95
:100B80000E2C000C330B5AE0B52EFD01DD9040ED2C
:100B90004D0D4A3008F040C0B09EA001B19E500DEE
:100BA00011240D2DDD0C110B00531109040F151F1D
:100BB000A801420F531F473251053CF38C81CC20D2
:100BC000C9F040E050E060E070E8F11003C040E0A0
:100BD00050E0BA0180788C608C83488359836A83A3
:100BE0007B83FC2C73CF2B3219F03196C12CC4CFF0
:100BF0003296FCCF40E050E060E87FEFF11004C097
:100C000040E050E060E87FE780788C608C83488328
:100C100059836A837B8374CFCC2019F01195019599
:100C200011092081211135C00E0D111DE7FC1A9507
:100C30000E94D62530E8C32E30E0D32E10161106C0
:100C40003CF011950195110948E6C42E40E0D42EE0
:100C5000E12C0115110591F000FF0CC024E0E29E8B
:100C6000F0011124EC0DFD1D259135914591549114
:100C70000E948D2615950795E394EBCFF1109058BF
:100C80002C8120782C602C83688379838A839B83D2
:100C900037CFF12C1BCFCF92DF92EF92FF92CF9301
:100CA000DF9300D000D01F92CDB7DEB7FC01848166
:100CB0008F778630C1F038F4843019F1853071F1C6
:100CC00090E080E012C08A3021F08C3079F18830D9
:100CD000B9F780819181A281B381009721E0A207B9
:100CE000B10518F0EDCF808190E00F900F900F903C
:100CF0000F900F90DF91CF91FF90EF90DF90CF900A
:100D00000895808191811D82BE016F5F7F4F0E9497
:100D1000E404CE0101960E944B06E7CF80819181C9
:100D20001D82BE016F5F7F4F0496F1CFC080D180DE
:100D3000E280F38020E030E0A901C701B6010E9403
:100D4000882687FDBDCF20E03FEF4FE757E4C7017E
:100D5000B6010E94292518160CF4B2CFC701B601BE
:100D60000E94A725CB01C1CFCF92DF92EF92FF92D5
:100D7000CF93DF9300D000D01F92CDB7DEB7FC0138
:100D800084818F778630C1F030F4843011F1853062
:100D900069F180E012C08A3021F08C3079F188301E
:100DA000C1F780819181A281B3818F3F9105A10517
:100DB000B10519F010F0EDCF80810F900F900F90DA
:100DC0000F900F90DF91CF91FF90EF90DF90CF9039
:100DD0000895808191811D82BE016F5F7F4F0E94C7
:100DE000E404CE0101960E94B406E7CF8081918190
:100DF0001D82BE016F5F7F4F0496F1CFC080D1800E
:100E0000E280F38020E030E0A901C701B6010E9432
:100E1000882687FDBECF20E030E04FE753E4C701CE
:100E2000B6010E94292518160CF4B3CFC701B601EC
:100E30000E94A725862FC1CFCF92DF92EF92FF921B
:100E4000CF93DF9300D000D01F92CDB7DEB7FC0167
:100E500084818F778630C1F030F4843099F1853009
:100E6000F1F180E012C08A30E1F08C3009F43FC02B
:100E70008830B9F780819181A281B3818038910552
:100E8000A105B10570F701C080810F900F900F9000
:100E90000F900F90DF91CF91FF90EF90DF90CF9068
:100EA000089580819181A281B381AC01BD01405838
:100EB0005F4F6F4F7F4F4F3F51056105710509F03F
:100EC00080F6E3CF808191811D82BE016F5F7F4FED
:100ED0000E94E404CE0101960E941C07D6CF8081B7
:100EE00091811D82BE016F5F7F4F0496F1CFC0805C
:100EF000D180E280F38020E030E040E053ECC70195
:100F0000B6010E94882687FDACCF20E030E04EEF8E
:100F100052E4C701B6010E94292518160CF4A1CF8E
:100F2000C701B6010E94A025862FAFCF1F93CF9394
:100F3000DF93EC01CB011B81612F45960E94400499
:100F4000998388831A83009719F0FC0185818B832C
:100F5000DF91CF911F910895EF92FF920F931F930E
:100F6000CF93DF9300D000D0CDB7DEB7FC01E38094
:100F7000F480058116810180F281E02D309749F1DE
:100F80009481892F807496FF19C0B70180810E94D7
:100F90005B0469837A838B839C8389819A81009720
:100FA000C1F00115110541F0B701CE0101960E9473
:100FB000960701501109F1CF0E94B4060F900F90CF
:100FC0000F900F90DF91CF911F910F91FF90EF90B5
:100FD000089580E0F3CFFC019289915084E0989FBE
:100FE00090011124A089B189A20FB31F1296ED912F
:100FF000FC9113973097E9F011962C9111978C91F1
:101000002817B8F481E0820F11968C9388E0289F0E
:10101000A0011124E40FF51F309759F014828FEFCF
:10102000858317821682BF01892F8295807F820F68
:10103000089560E070E08FEF0895DF92EF92FF92E5
:101040000F931F93CF93DF93EC017B01D12C688921
:1010500079898A89D816E0F484E0D89E8001112429
:10106000060F171FD80112966D917C9161157105BD
:1010700041F0D701ED91FC910280F381E02DC70191
:101080000995F8011382128210821182D394DFCF66
:101090001A8A8FEF8C8BC617D70761F0D701ED91B5
:1010A000FC910280F381E02DC7010995D98BC88B93
:1010B00084E08B8BDF91CF911F910F91FF90EF9088
:1010C000DF900895DB01ED91FC9111970280F3818F
:1010D000E02DBC01CD0109940F931F93CF93DF93B3
:1010E000EC01088119818B819C81009749F0FC01FA
:1010F000208131813C832B83B8010E946208F3CFA9
:1011000068817981CE010596DF91CF911F910F9172
:101110000C941D08CF93DF93EC01E881F981B0E0D6
:10112000A0E03097F9F09F012C5F3F4F62177307E3
:10113000A1F4928191509283911114C08081918188
:10114000109741F08D939C93BA01CF01DF91CF911D
:101150000C94620899838883F7CFDF010190F081B6
:10116000E02DDFCFDF91CF9108958F929F92AF92C4
:10117000BF92CF92DF92EF92FF920F931F93CF9384
:10118000DF938C01EB01FC01848180FF0AC0488160
:101190005981608171816C5F7F4FCE0103960E94FF
:1011A0008A08F8018481807681F10115110569F1C1
:1011B000D0805E01F5E1AF0EB11C4E0183E0880ED8
:1011C000911CEFEFDE16F1F06D2DC5010E94400479
:1011D0007C01FC01C580848187FF07C0488159815B
:1011E00066817781C4010E948A08BE01C7010E94FE
:1011F000B508F701848180788483898D8583D98EB1
:10120000DC2CDFCFF801D082D182DF91CF911F910A
:101210000F91FF90EF90DF90CF90BF90AF909F9095
:101220008F900895EF92FF920F931F93CF93DF93C8
:101230007C018B01EA016F3F710509F0B0F4E88190
:10124000F9810480F581E02DAB014B5F5F4FBC015C
:10125000CE010995009749F0FC010383DF91CF91FE
:101260001F910F91FF90EF900895E881F98102801E
:10127000F381E02DB701CE01099590E080E0EECF3B
:10128000FF920F931F93CF93DF93EC01F62E8A8189
:101290009B810097C9F06C817D81FC012381261719
:1012A000170691F408811981F80140815181660F78
:1012B000771F6F5F7F4F0E941209009719F421E09A
:1012C000F80122839B838A838A819B81009759F04E
:1012D0002C813D81A9014F5F5F4F5D834C83820F5D
:1012E000931FFC01F482DF91CF911F910F91FF902A
:1012F00008959F92AF92BF92CF92DF92EF92FF92AA
:101300000F931F93CF93DF9300D000D01F92CDB7E0
:10131000DEB78C010E947E04D82EF8011286F12CD3
:10132000E12C60EFC62EC8010E947E04F8011286EF
:10133000D81609F4B3C0811113C082E090E00F9079
:101340000F900F900F900F90DF91CF911F910F9101
:10135000FF90EF90DF90CF90BF90AF909F90089557
:101360008C3509F099C0C8010E947E04882329F3B6
:10137000E0E4F1E0853709F083C0F801128654E01B
:10138000952EB12CA12CC8010E947E048823A9F2BD
:10139000813434F48053803130F083E090E0CFCF5B
:1013A0008F7D8753F8CF44E0AA0CBB1C4A95E1F728
:1013B000A82AF80112869A949110E5CFC501985D8C
:1013C0008115944020F47501F3E0FF22ACCFC501F4
:1013D0009C5D81159440A8F483E0B822B701762F74
:1013E0006627770F770F6A297B2990E080E00196C6
:1013F000603871058105910540F4C8010E944009DB
:1014000092CFB50190E080E0F3CF1982262F2F73A1
:1014100020682A8326E096958795779567952A9583
:10142000D1F76032710580F4606C6B835E01E4E09B
:10143000AE0EB11CF50162915F01662309F473CF12
:10144000C8010E944009F6CF262F2F7320682B83F6
:1014500086E0769567958A95E1F76031710538F4F5
:10146000606E6C835E01F5E0AF0EB11CE3CF606887
:101470006C83CD825E0126E0A20EB11CDBCF3296DA
:101480009081992309F489CF8913F9CF8181882329
:1014900009F483CFF8011286682FAFCF8281938140
:1014A000892B19F484E090E04ACF90E080E047CFA8
:1014B000AF92BF92CF92DF92EF92FF920F931F9362
:1014C000CF93DF93DC011296ED91FC911397149664
:1014D0008D919C911597E80FF91F14820D911C9125
:1014E000119714966D917C91159712968D919C9100
:1014F00013979C012C5F3F4FE801EB81FC817B013E
:10150000E20EF31E3097B9F043814617170679F4BF
:101510005901AF014C5F5F4FEA14FB0499F1E501FB
:10152000C9905E01EA01D990AE01CD14A9F30190F2
:10153000F081E02DE7CFED01F801408151810E945B
:101540001209FC01892B21F481E0D80112968C93B9
:10155000A881B98113968D919C9114979183808372
:101560001496FC93EE9313971B821A82CF01DF919E
:10157000CF911F910F91FF90EF90DF90CF90BF9090
:10158000AF90089582818F5F8283F0CFCF93DF93F6
:10159000EC018A81823070F0623020F4DF91CF91CB
:1015A0000C9469030E94400361E0892B09F060E01C
:1015B0008A81F4CFDF91CF9108951F93CF93DF936A
:1015C000EC01162F88810E94690311110DC00E9441
:1015D0003404FE01E75BFF4F608371838283938352
:1015E000CD5BDF4F19821882DF91CF911F91089553
:1015F000CF93DF938F3F39F5809101048F708093F3
:101600004E06C0E0DFE58091FC03C81718F5209175
:101610004E06DC9FC00111248C509C4FFC01E65902
:10162000FF4F208387599F4FFC01108261E02130DA
:1016300009F060E0CD9FC0011124825F9B4F0E94A2
:10164000DD0ACF5FE0CF8E3FD1F680914E0691E06C
:101650008927D5CFDF91CF910895CF92DF92EF9276
:10166000FF920F931F93CF93DF93EC0188A999A961
:1016700089359240B0F089AD90E0019663E070E06A
:101680000E94752789AFFC013996EE0FFF1FEE0F00
:10169000FF1FEC0FFD1F108211821282138219AA04
:1016A00018AA89810E94C8037C0109AD84E0089FC3
:1016B000800111240C0F1D1FC701969587959695E3
:1016C0008795889FB001899F700D700D112490E05F
:1016D00080E00E94D6259B01AC01F80164A175A1B0
:1016E00086A197A10E94BD24F80164A375A386A3D7
:1016F00097A388A999A9019699AB88ABFE01E05CF4
:10170000FF4F208131818E01015B1F4FF8018081E5
:101710008130B9F170F08330C9F1853009F491C09E
:10172000DF91CF911F910F91FF90EF90DF90CF90BD
:1017300008952E153F05F0F48D85882341F06FEF55
:10174000CE010E94C60A81E0F8018083E9CFFE0144
:10175000ED5BFF4F8081918101969183808331976A
:10176000208128171906E0F660E0CE010E94DD0A0C
:1017700083E0EACFC35BDF4F84EF91E099838883F6
:10178000CFCF2E153F0518F31082CACF8C8581303C
:1017900059F108F45EC0823019F60E943404FE014B
:1017A000E35BFF4F20813181DE01A75BBF4FCD900E
:1017B000DD90ED90FC90AB01BC014C195D096E0908
:1017C0007F096901F12CE12CC416D506E606F7065F
:1017D00008F0A6CF203187E2380728F5C9018C50E0
:1017E0009E4F918380831FC00E943404FE01E75BFB
:1017F000FF4FC080D180E280F3806C197D098E0993
:101800009F09653F71408105910508F489CFFE016C
:10181000E35BFF4F808191818C509E4F9183808349
:10182000843C9940B0F4F801108261E0CE01DF9170
:10183000CF911F910F91FF90EF90DF90CF900C947C
:10184000DD0A8EA99FA9CC9708F06ACF8C858111FB
:10185000EACF86E079CF8F929F92AF92BF92CF92DC
:10186000DF92EF92FF920F931F93CF93DF9382E06B
:101870000E944003892B09F447C0809148068F5F7E
:101880008093480683E00E944003892B09F442C0FC
:1018900080914A068F5F80934A0680914C068F5F45
:1018A00080934C06C09109048091FC03C817A8F4EA
:1018B0000C2F10E03FE5B32ECB9DE0011124CE01AB
:1018C000825F9B4F6C01CC50DC4FFE01E659FF4F0D
:1018D0008081823028F1823039F18091090490E0D2
:1018E000019667E070E00E94752780930904DF91FC
:1018F000CF911F910F91FF90EF90DF90CF90BF900D
:10190000AF909F908F900895809149068F5F80934C
:101910004906B8CF80914B068F5F80934B06BDCFB1
:10192000C6010E942D0BD9CF7E019DE5E90EF11C69
:10193000F701808191818E30914008F04EC08A8DF0
:101940000E944003811105C061E0C6010E94DD0ACA
:10195000C4CFF701808191817C0123E0F694E79464
:101960002A95E1F78F709927E894E0F8F1E0FF22DB
:10197000892B41F48B8D0E94C803F701E45DFC4F75
:101980009183808398012F5F3F4F8FE5829FD00125
:10199000839FB00D1124AC50BC4FF701E45DFC4FA8
:1019A000208131814D915D916D917C911397420F12
:1019B000531F611D711D4D935D936D937C93139720
:1019C000809FF001819FF00D1124EF5AFB4F808121
:1019D000918101969183808380CF60E0C6010E944F
:1019E000DD0AC8010196B89EF001B99EF00D1124E0
:1019F000EC50FC4F60817181828193810E94D625D9
:101A00002D8D3E8D4F8D58A10E948D264B015C017E
:101A1000F7016081718190E080E00E94D6259B01F2
:101A2000AC01C501B4010E942E256B017C0120E0B0
:101A300030E0A9010E94882620E030E040E05FE32A
:101A400087FD1DC0C701B6010E94BD240E94A025CC
:101A50008FE5809FF001819FF00D1124EC50FC4F29
:101A600074A363A3DF01A359BF4F8D919C9111977C
:101A700096608D939C93E659FF4F10822ECFC7013D
:101A8000B6010E94BC24E2CFCF93DF93EC018881A2
:101A9000843018F061E00E9497038A81843028F036
:101AA00061E0DF91CF910C949703DF91CF9108957E
:101AB000FC0101900020E9F73197AF01481B590B59
:101AC000BC018EE493E00C940A02CF93DF93D0E044
:101AD000C0E0009719F00E94580DEC0181E591E0FB
:101AE0000E94580D8C0F9D1FDF91CF9108950C948B
:101AF000580DDF92EF92FF920F931F93CF93DF93D6
:101B000000D000D0CDB7DEB76115710581F460E07B
:101B100070E08FEF9D2D0F900F900F900F90DF9141
:101B2000CF911F910F91FF90EF90DF9008957A0170
:101B30008B01BA01FC0180810E945B0469837A8376
:101B40008B839C83E981FA81309709F3A681B78161
:101B5000F80101900020E9F731979F01201B310B1C
:101B600090E080E0109741F0FD0101900020E9F73E
:101B7000CF0101978A1B9B0B2817390769F4C8010D
:101B8000A901400F511F4817590761F0FC0131911D
:101B9000CF012D913217B9F3B701CE0101960E9402
:101BA0009607D0CF69817A818B81DC80B3CFFC012D
:101BB000248125FF06C0009721F00E94790DCB01FA
:101BC000089590E080E00895FC0140815181CA01B0
:101BD0004A9662817381009711F00C94D70D90E0C2
:101BE00080E008950F931F93CF93DF93FC01018151
:101BF0001281C581D68101960E94E40D009741F0C3
:101C0000A801BE01DF91CF911F910F910C94D70DC8
:101C100090E080E0DF91CF911F910F9108950E9495
:101C2000F20D009711F00C944B0690E080E00895BF
:101C3000CF93DF93FC01C181D2810E94F20D009706
:101C400061F0FC01248126FF08C0382F292F632F63
:101C5000722FCE01DF91CF91089530E020E0F7CFD1
:101C6000AC014A960E94D70D21E0892B09F420E0AF
:101C7000822F08950F931F93CF93DF93CDB7DEB7D5
:101C8000E2970FB6F894DEBF0FBECDBF1F924F9301
:101C90007F936F931F928F9384E591E09F938F932F
:101CA0008E010F5F1F4F1F930F930E948329C8015E
:101CB0000E94770D0FB6F894DEBF0FBECDBFE2963F
:101CC0000FB6F894DEBF0FBECDBFDF91CF911F914D
:101CD0000F9108958F929F92AF92BF92CF92DF9211
:101CE000EF92FF920F931F93CF93DF936C018B01C1
:101CF000DB015996FC90BFEFFB1621F16F2DC80157
:101D000045960E944004EC018D81F801818F209757
:101D100009F496C01C828FEF8D831F821E82D6012C
:101D200011966C916F3F09F49FC0C80145960E94BF
:101D30004004FC01F582D6011196FC92BE018F2D64
:101D40009D8084C05B01F5E0AF0EB11CDB01ED901E
:101D5000FC90119757968C91882349F0C5010E94F9
:101D6000EB07C62FD72F209711F0F82ED8CFF80108
:101D7000C789908DC91325C0C03109F461C0CC0F4B
:101D800065897689D701ED91FC91B4E0CB9FA001E4
:101D90001124A616B70609F04BC00190F081E02D82
:101DA000BA01C7010995009709F44AC020E1F5017D
:101DB000DC0101900D922A95E1F7F801968B858B55
:101DC000C08FD8015596CD91DC91569757968C913E
:101DD000579721E0280F57962C93B4E08B9FC001B2
:101DE0001124C80FD91F90E1892E203111F48FE002
:101DF000882EE8E08E9EB0011124D701ED91FC9170
:101E00000190F081E02DC70109959B838A83892B7E
:101E100009F4812C88821982CD2B91F0C5010E9492
:101E2000EB07C62FD72FF82E209709F078CF08C0E0
:101E30000480F581E02DC7010995009709F0BDCF19
:101E400081E0F801828360E070E08FEF992DDF91EF
:101E5000CF911F910F91FF90EF90DF90CF90BF90A7
:101E6000AF909F908F900895F601F082F18266CF37
:101E70008F929F92AF92BF92CF92DF92EF92FF929A
:101E80000F931F93CF93DF93EC018B01D42E0E940D
:101E9000C2047C01892B09F047C0CE010E947E0458
:101EA000863609F452C124F5873229F08B3561F169
:101EB000823209F053C11D821C828A819B81892B49
:101EC00031F4888199810E94EF019B838A83CE013E
:101ED0000E9479097C01892B39F5CE010E94580AAC
:101EE000F8012481207825602483918380831CC09D
:101EF000843709F412C18B3709F45BC08E3609F0C0
:101F00002DC16BE871E012C1F80184818078806492
:101F100084830115110519F08FEF80838183D1101F
:101F200011C025E0E22EF12CC701DF91CF911F9166
:101F30000F91FF90EF90DF90CF90BF90AF909F9068
:101F40008F9008951A86CE010E94C204009709F06E
:101F500085C06DE5CE010E948E048111E5CFDA9433
:101F60006B857C85C8010E946A0E6115710521F49C
:101F700084E0E82EF12CD8CF4D2DCE010E94380FF1
:101F8000009709F06BC0CE010E94C204009709F0CF
:101F900065C06DE5CE010E948E048111C5CF6CE253
:101FA000CE010E948E048111DBCF93E0E92EF12C4B
:101FB000BBCFF8018481807880628483011511058C
:101FC00019F08FEF80838183DD2009F4AACF1A8670
:101FD000CE010E94C204009709F040C06DE7CE0117
:101FE0000E948E048111A0CFBB24BA94BD0C1D8227
:101FF0001C828A819B81892B31F4888199810E947E
:10200000EF019B838A83CE010E947E048732E1F038
:102010008232D1F0CE010E947E04D82E0E946C0440
:10202000882319F21A866D2DCE010E944009CE0137
:102030000E947E04D82E0E946C048111F3CF8A8105
:102040009B81892B31F494CFCE010E9479090097AE
:1020500029F4CE010E94C204009711F07C0164CFE4
:102060006AE3CE010E948E04882309F49ECFEA81A0
:10207000FB818C819D81E80FF91F14824B855C8563
:102080006A817B816C5F7F4FC8010E94790DCB0113
:102090006B01672BC9F5CE010E94580A4C016B8574
:1020A0007C85C8010E946A0E6B016115710509F4F7
:1020B0005FCFFB01848180688483F4E08F0E911CE4
:1020C000F601978286824B2DB601CE010E94380F11
:1020D000009721F6CE010E94C204009709F0BECFFE
:1020E0006DE7CE010E948E0481111ECF6CE2CE01FD
:1020F0000E948E04882309F458CFCE010E94C204A6
:10210000009709F474CFAACF6B857C850E94B5082F
:10211000F601848180788483D6CFF8018481807829
:102120008660848381E0808360E871E0CE01DF9186
:10213000CF911F910F91FF90EF90DF90CF90BF90C4
:10214000AF909F908F900C949F04F80184818078C9
:1021500086608483108265E871E0E8CFCE010E943A
:102160007E045E01FDE0AF0EB11CD12C9A2CCB2C6D
:10217000803374F08A3374F49FE3D91699F01A8689
:10218000D394F50181935F01CE010E947E04F0CFCC
:102190008B3291F393ED980F923070F3982F9F7DCF
:1021A000953451F3CD0DD11D1D86B801892D9C2D7F
:1021B0000E94E4048111B8CEF8CECB01BA010C9490
:1021C000B428CB010C942B28CB010C948F276F9251
:1021D0007F928F929F92AF92BF92CF92DF92EF92B7
:1021E000FF920F931F93CF93DF93CDB7DEB7A497E2
:1021F0000FB6F894DEBF0FBECDBF8C013C0182E567
:10220000680E711CF3016083399651834083E62E7A
:10221000F12CFFEFEF1AFF0AF694FE2CEE24F79450
:10222000E794CE0101966C014E0195E2890E911C56
:102230005601EC18FD08F70131967F01C7018A0DA0
:102240009B1D0E944324F50181935F01E815F90568
:10225000A9F780E0F6019E012C5D3F4F91918927FF
:10226000E217F307D9F79CA1891303C081508E3F71
:1022700078F180E991E00E94650DF3012081822FC1
:1022800090E0FC01E45EFE4F30813983225F2A83B7
:102290008A5E9E4FFC0180818B831B861A8683E3B6
:1022A00093E3A3E4B1E48C839D83AE83BF8388EB87
:1022B0009BE0998788878EE18C8781E08D871E86D9
:1022C0001F861A8A1D8A188E1B8E1E8E19A21CA2AA
:1022D00084E2F601D80101900D928A95E1F7F801A8
:1022E00083A1811104C08AE991E00E94650DF80183
:1022F000878190856AE070E00E9461272385269F90
:10230000C001279F900D1124BC0190E080E00E9445
:10231000D62520E030E040E05FE30E94BD240E942B
:10232000A025F80177AF66AF13AA12AAC8010E94D0
:10233000440D60E0C8010E94DD0A0E94EB2328E5FD
:1023400032E040E050E00E945924F80171AB60ABEC
:102350006781708590E080E00E94D6252DEC3CECF2
:102360004CEA5FE30E948D26F80123813481458188
:1023700056810E942E256B017C0120E030E0A901EE
:102380000E94882620E030E040E05FE387FD49C0FE
:10239000C701B6010E94BD240E94A025F801E05C9F
:1023A000FF4F718360833F96108231961082319681
:1023B0001082F80183856AE00E945527F82E682F65
:1023C00070E090E080E00E94D82520E030E040E816
:1023D0005FE30E94292587FF02C0FF24F394F801E0
:1023E000EE5BFF4FF082ECE2F3E08EE493E01192BB
:1023F00011928E179F07D9F7A4960FB6F894DEBFF7
:102400000FBECDBFDF91CF911F910F91FF90EF9045
:10241000DF90CF90BF90AF909F908F907F906F9004
:102420000895C701B6010E94BC24B6CF1F920F9237
:102430000FB60F9211242F933F934F935F936F9397
:102440007F938F939F93AF93BF93EF93FF938EE40C
:1024500093E00E948802FF91EF91BF91AF919F910D
:102460008F917F916F915F914F913F912F910F903D
:102470000FBE0F901F9018951F920F920FB60F92DC
:1024800011242F938F939F93EF93FF93E0915E031B
:10249000F0915F038081E0916403F091650382FD18
:1024A0001BC09081809167038F5F8F7320916803B9
:1024B000821741F0E0916703F0E0E25BFC4F958FFB
:1024C00080936703FF91EF919F918F912F910F90D0
:1024D0000FBE0F901F9018958081F4CF1F920F921E
:1024E0000FB60F9211242F933F938F939F93AF9327
:1024F000BF938091D1029091D202A091D302B0916A
:10250000D4023091D00223E0230F2D3758F50196E5
:10251000A11DB11D2093D0028093D1029093D202CD
:10252000A093D302B093D4028091D5029091D602A9
:10253000A091D702B091D8020196A11DB11D809340
:10254000D5029093D602A093D702B093D802BF9140
:10255000AF919F918F913F912F910F900FBE0F9050
:102560001F90189526E8230F0296A11DB11DD2CF0A
:102570001F920F920FB60F9211242F933F934F93F8
:102580005F936F937F938F939F93AF93BF93EF93DB
:10259000FF93E091D902F091DA020995FF91EF9152
:1025A000BF91AF919F918F917F916F915F914F916B
:1025B0003F912F910F900FBE0F901F9018959F92F3
:1025C000AF92BF92CF92DF92EF92FF920F931F9341
:1025D000CF93DF939C01862F2930310509F48CC0FD
:1025E00028F52230310509F46FC0A0F4211531051A
:1025F00009F448C02130310509F45FC0DF91CF9163
:102600001F910F91FF90EF90DF90CF90BF90AF9010
:102610009F9008952430310509F46BC008F460C020
:102620002830310559F760930204E8CF2E30310588
:1026300009F47DC090F42C30310509F469C008F02C
:102640006AC02A303105D1F6609103047091040408
:102650006627860F972F911D56C0213F310509F43B
:102660006FC02F3F310509F478C0203F310531F6A6
:102670008091F4039091F50391609093F50380931A
:10268000F403BCCFC091FC03C61709F4B7CF609325
:10269000FC03DFE58091FC03C81708F0AFCF409141
:1026A000FE035091FF03CD9FC00111246C2F825F68
:1026B0009B4F0E94E710CF5FEDCF91E0611101C009
:1026C00090E0909300049ACF6091FE0390E0982FE1
:1026D0008827860F911D9093FF038093FE038ECF72
:1026E0006091FE037091FF036627860F972F911D5F
:1026F000F2CF6093010482CF6091030490E0982FA1
:102700008827860F911D909304048093030476CF4D
:102710006093050473CF6091060490E0982F88279A
:10272000860F911D909307048093060467CF6091F4
:102730000604709107046627860F972F911DF2CF2C
:10274000DF91CF911F910F91FF90EF90DF90CF908D
:10275000BF90AF909F900C94F80A10920804ECEF91
:10276000F3E080910804919189278093080424E084
:10277000E830F207B1F70CEF13E0C1E0D0E0F80168
:10278000F1908F01CE010E944324F81621F06F2DA5
:10279000CE010E944B242196CE30D10581F710E066
:1027A0000FE58091FC03181708F028CF109FF00167
:1027B0001124CF01825F9B4FEC50FC4FDF01A459E5
:1027C000BF4FCC91D0E02196D695DC2FCC27D79562
:1027D000C79515AEAC014D5D5F4FDC01FD962081C4
:1027E0003D9123272083A417B507C9F76C01F4E2B4
:1027F000CF0ED11C7C01C81BD90BF70191907F0132
:102800005E01AE0EBF1EC5010E944324981621F042
:10281000692DC5010E944B24EC14FD0471F71F5F64
:10282000C0CF2F923F924F925F926F927F928F9282
:102830009F92AF92BF92CF92DF92EF92FF920F934F
:102840001F93CF93DF93CDB7DEB72A970FB6F894D7
:10285000DEBF0FBECDBF7B015A8749871B012224F3
:1028600021143104E1F0893009F056C02A960FB6E0
:10287000F894DEBF0FBECDBFDF91CF911F910F91B6
:10288000FF90EF90DF90CF90BF90AF909F908F9090
:102890007F906F905F904F903F902F900895813080
:1028A000D1F0853019F729853A853A83298310E0DC
:1028B00000E0E981FA816191FA83E983C701800F21
:1028C000911F0E94DF120F5F1F4F0430110589F71F
:1028D000C701939507C0E985FA856081C7010E9409
:1028E000DF12C7012A960FB6F894DEBF0FBECDBF28
:1028F000DF91CF911F910F91FF90EF90DF90CF90DC
:10290000BF90AF909F908F907F906F905F904F900F
:102910003F902F900C94160144244A944F0C842D20
:1029200090E04FE5449E800111249801225F3B4FC7
:102930006901512CFF240C501C4F58013AE6A30E9C
:10294000B11C4801E9E68E0E911C9801235A3F4FB5
:102950003A8329830196489F9001499F300D1124A5
:10296000C9018C509C4F9C838B8338019DE6690E76
:10297000711CF801E85AFF4FFE83ED839801245B38
:102980003F4F38872F83451421F021143FEF330642
:10299000C9F488E1E816F10409F43CC1C4F5E8E0A3
:1029A000EE16F10409F400C194F4E114F10409F401
:1029B0006DC024E0E216F10409F4B2C0B701C6010B
:1029C0000E94A4005394F6E05F12DDCF4FCF30E1B8
:1029D000E316F10409F4FAC084E1E816F10409F4FD
:1029E00007C19CE0E916F10449F7E985FA85808181
:1029F000F80183A7E985FA85818190E0982F8827DF
:102A00002281820F911DF80195A784A7D7CFE0EF0F
:102A1000EE16F10409F422C1DCF42CE1E216F10413
:102A200009F40AC130E2E316F10441F6E985FA85BA
:102A30008081F80182AFE985FA85818190E0982F45
:102A400088272281820F911DF80194AF83AFB6CF02
:102A500082EFE816F10409F422C10CF419C1E3EF86
:102A6000EE16F10409F0AACFF5018081811121C190
:102A7000E981FA8111821082EB81FC81108211823E
:102A80001282138282E0F501808398CFF801828D53
:102A9000843018F060E00E949703F801848D843040
:102AA00018F060E00E949703E985FA85808190E044
:102AB00034E0959587953A95E1F7F801828FE9859D
:102AC000FA8580818F70825FF801838FE985FA85AE
:102AD00081818F70F801848FE985FA85628170E0C9
:102AE000762F66278381680F711D072E000C880BD7
:102AF000990B0E94D82520E030E048EC52E40E9477
:102B00002E25F801658F768F878F90A3F301808142
:102B10009181816091838083C6010E94440D4ECFD4
:102B2000E985FA85808190E09595879595958795BB
:102B300021E0892B09F420E0F80127A3E985FA8533
:102B400080818370F80186A3E985FA852181F801E7
:102B500025A3E985FA85828190E0982F8827338123
:102B6000830F911DF80192A381A36AE070E00E9497
:102B70006127269FC001279F900D1124BC0190E082
:102B800080E00E94D62520E030E040E05FE30E9434
:102B9000BD240E94A025ED81FE8171836083EF81B9
:102BA000F885118210820ACFE985FA858081F801C3
:102BB00080A7E985FA85818190E0982F8827228176
:102BC000820F911DF80192A781A7F8CEE985FA85B9
:102BD0008081F80186A7E985FA85818190E0982FA8
:102BE00088272281820F911DF80190AB87A7E6CE3E
:102BF000E985FA858081F80181ABE985FA858181D3
:102C000090E0982F88272281820F911DF80193ABC5
:102C100082ABD4CEE985FA858081F80184ABE98561
:102C2000FA85818190E0982F88272281820F911D5B
:102C3000F80196AB85ABC2CEE985FA858081F801B3
:102C400087ABE985FA85818190E0982F88272281DA
:102C5000820F911DF80191AF80AFB0CEE985FA8562
:102C60008081F5018F3F61F48081811122C081E074
:102C70008083F401108261E0C6010E94DD0A9ECECD
:102C80008083F401108261E08130B1F360E0F4CF21
:102C9000E985FA856081C6010E94C60A8FCEF401DB
:102CA0008081863009F08ACE108281E0F501808330
:102CB000E2CFF5011082F4011082E8CF10925103A7
:102CC0001092500388EE93E0A0E0B0E080935203AE
:102CD00090935303A0935403B093550382E391E080
:102CE00090934F0380934E0385EC90E090935B03A9
:102CF00080935A0384EC90E090935D0380935C038F
:102D000080EC90E090935F0380935E0381EC90E011
:102D1000909361038093600382EC90E0909363034F
:102D20008093620386EC90E0909365038093640344
:102D300010926703109268031092690310926A035D
:102D4000ABEEB3E090E080E041E2FC013E9621E092
:102D500030E08630910510F430E020E0E20FF31F00
:102D600040935700E491ED9301968930910569F7FE
:102D70001092F7031092F6031092F80310920904D0
:102D80000E94340460930A0470930B0480930C0433
:102D900090930D04E2E3F4E022E080ED97E01082EE
:102DA0001182128213821482158216821782108673
:102DB0001186128613861586148617861686118A42
:102DC000108A138A128A148A158A158E148E268FF9
:102DD00092A781A713A614A615A616A612AA11AA31
:102DE00013AA11AE12AEE15AFF4F36E0EC36F307EC
:102DF000B1F6109248061092490610924A061092B7
:102E00004B0610924C0610924D0610924E061092F0
:102E10004F060895CF93DF93CDB7DEB7CE59D109D2
:102E20000FB6F894DEBF0FBECDBF789484B5826034
:102E300084BD84B5816084BD85B5826085BD85B55E
:102E4000816085BD80916E00816080936E001092DC
:102E50008100809181008260809381008091810057
:102E600081608093810080918000816080938000E8
:102E70008091B10084608093B1008091B000816046
:102E80008093B00080917A00846080937A00809172
:102E90007A00826080937A0080917A0081608093CA
:102EA0007A0080917A00806880937A001092C10045
:102EB00068EE73E080E090E00E940204E0915E031F
:102EC000F0915F0382E08083E0915A03F0915B030D
:102ED0001082E0915C03F0915D0380E180831092A9
:102EE0006603E0916203F091630386E08083E091E2
:102EF0006003F0916103808180618083E0916003D1
:102F0000F0916103808188608083E0916003F0919B
:102F10006103808180688083E0916003F0916103A8
:102F200080818F7D80838EE493E00E946802892BEC
:102F300029F08EE493E00E944602F5CF84EB91E005
:102F40000E94770D84ED91E00E94770D8AED91E06B
:102F50000E94650D0E94DD036115710581059105D3
:102F600011F00E943A246E0126E8C20ED11CEE2414
:102F7000E394F12C8601C7010E944324D6018D936E
:102F80006D01BFEFEB1AFB0AEEE0EE16F10499F7C4
:102F900080E0F8019801245F3F4F91918927E21763
:102FA000F307D9F7D8011C969C91891303C081506F
:102FB0008E3FB0F08DED91E00E94650D81E0F8014B
:102FC00080838091EB03818382ED94E093838283FD
:102FD0001482158216821086178211861386128635
:102FE0008DE0F801ACEFB3E001900D928A95E1F726
:102FF0001092600481E08093BF0482E080931E05FC
:1030000083E080937D0584E08093DC0585E08093F8
:103010003B0610E00FE58091FC03181770F4409117
:10302000FE035091FF03109FC0011124612F825FA6
:103030009B4F0E94E7101F5FEECF80E00E94F80ACE
:103040006AE070E080E090E00E9402048BE29CE085
:103050009093DA028093D902F89480917A00887F65
:10306000846080937A001092800080E892E09093D0
:10307000870080938600109285001092840081E181
:103080008093810081E080936F0078946AE070E023
:1030900080E090E00E9402048FEF0E94F80A6FEF38
:1030A00070E08FEF0E9442016FEF7FEF8FEF0E9481
:1030B00042011E01F5E62F0E311C91012B5F3F4F9F
:1030C000C756DF4F39832883C959D040A101465ED6
:1030D0005F4FC356DF4F59834883CD59D040CE014F
:1030E00001964C018EE493E00E946802892B09F45A
:1030F0007BC38EE493E00E94460290912B03E92F5C
:10310000F0E0E552FD4F808391110AC08091DB020F
:103110008D3041F38A3031F381E080932B03E2CF8D
:103120008D3019F08A3009F05BC31082E0E0F1E0E5
:10313000D1011196FC93EE9312961C92129714965D
:103140001C921E921397C756DF4F28813981C959A7
:10315000D04056963C932E93559757961C9257976E
:1031600084E058968C9358978FEF59968C93599783
:103170005E961C925E9740E051E090965C934E9371
:103180005F97BF01C9010E941D08D10112961C92D0
:1031900012970D911C91F10183819481009749F060
:1031A000DC012D913C9134832383B8010E94620895
:1031B000F2CF168E3A8229821C821B821E821D82C9
:1031C0001F822BED32E0398728871B863D862C86AF
:1031D0004AE0C356DF4F68817981CD59D040C401A0
:1031E0000E94380F8C01892B51F48A85882339F08D
:1031F000D1015E968C9183FF02C003E010E08B81C9
:103200009C81009731F0E981FA81608171810E948F
:1032100062080115110509F0D9C266EE71E0C1011D
:103220000E94300E882309F483C03A82298286EEF8
:1032300091E09C838B83C4010E94E40DFC01892BE7
:1032400039F084818F77843031F0853009F476C08D
:10325000B12CA12C02C0A080B18065E971E0C10150
:103260000E94300E882369F03A82298285E991E034
:103270009C838B83C4010E94E40D009711F00E948F
:103280001C076AEE71E0C5010E947A29892B09F0BA
:103290002AC16DEE71E0C1010E94300E882309F44D
:1032A00022C13B822A828DEE91E09D838C83E1EFE7
:1032B000F1E0FF83EE83C4010E94F20D00E000976D
:1032C00019F00E94B406082F3B822A828DEEE82E68
:1032D00081E0F82EFD82EC8225EF31E03F832E83E2
:1032E000C4010E94180E2B013C014A825B826C8251
:1032F0007D821F821E82C4010E94AC07182F382FC6
:103300003F71D32E3B822A82FD82EC824AEF51E04C
:103310005F834E83C4010E940F0E7C01023B09F4BF
:10332000C7C090F4013709F4CBC0003B09F4B6C024
:10333000C1010E946C0810922B03D4CEA080B180F2
:10334000B4E0AB0EB11C89CF0D3B09F4A7C010E46B
:10335000712E7D0C0D3E61F78091020478120AC037
:103360008091030490910404E816F90619F481E0B1
:103370000E94F80A8091050478120AC08091060420
:1033800090910704E816F90619F480E00E94F80A03
:10339000612CFFE55F2E442443948091FC03681662
:1033A00008F0A1C0C62CD12C659CF00111248F011E
:1033B000025F1B4FEC50FC4F80A5781210C081A516
:1033C00092A5E816F90659F4DF01A659BF4F4C92B1
:1033D000E759FF4F108261E0C8010E94DD0A5C9C42
:1033E000F0015D9CF00D1124EC50FC4F83A5781288
:1033F00010C084A595A5E816F90659F4DF01A65971
:10340000BF4F1C92E759FF4F108260E0C8010E9435
:10341000DD0A5C9CF0015D9CF00D1124EC50FC4F2A
:1034200086A5781213C087A590A9E816F90671F44D
:10343000DF01A759BF4F8C91863041F41C92E659A9
:10344000FF4F408261E0C8010E94DD0A5C9CF001F0
:103450005D9CF00D1124EC50FC4F81A9781209C03D
:1034600082A993A9E816F90621F460E0C8010E9438
:10347000C60A5C9CF0015D9CF00D1124EC50FC4FE1
:1034800084A9781209C085A996A9E816F90621F43D
:1034900061E0C8010E94C60A63947FCFD1FADD249F
:1034A000D0F800E2702E7D0C5FEFE51AF50A54CFDC
:1034B0001170B0E87B2E710E8FEFE81AF80A4CCF2E
:1034C00091E0D91235CF4A825B826C827D82A1E085
:1034D000B0E0BF83AE83C4010E94AC078370A0E656
:1034E0007A2E780E39CF6FEF71E0C5010E947A29EC
:1034F000892B19F48EEF0E94F80A63E072E0C5018F
:103500000E947A29892B09F013CF6DEE71E0C10179
:103510000E94300E882309F40BCFEDB7FEB7C556D5
:10352000DF4FF983E883CB59D0403B822A828DEE6E
:1035300091E09D838C8321EF31E03F832E83C40192
:103540000E94F20D10E0009719F00E94B406182FA7
:103550003B822A82EDEECE2EE1E0DE2EDD82CC82B1
:103560004AEF51E05F834E83C4010E940F0E7C013D
:103570003B822A82DD82CC8286E092E09F838E832A
:10358000C4010E940F0E5C013B822A82DD82CC8244
:10359000A5EFB1E0BF83AE83C4010E94180E2B01DA
:1035A0003C01CB56DF4F79836883C559D040C9565B
:1035B000DF4F99838883C759D040FB01C12C3097D6
:1035C000D9F0BC0180810E945B0469837A838B837C
:1035D0009C83D12CC12C89819A81892B69F0FFEFC2
:1035E000CF1ADF0AC956DF4F68817981C759D040A9
:1035F000C4010E949607EFCF0C2D2DB73EB72C19B2
:1036000031090FB6F8943EBF0FBE2DBF4DB75EB760
:103610004F5F5F4FCD56DF4F59834883C359D0402A
:103620001150193008F039C0E12FF0E0E65EF44E99
:103630000C948927231B421B4D1B4D1B591B901BB0
:103640009B1B9E1BA91BCC2041F18091FE039091F6
:10365000FF03A816B90609F55B824A827D826C8257
:103660001F821E82C4010E94AC07CD56DF4FA88185
:10367000B981C359D0408C93AD01B70181E00E945C
:1036800011140BC08091FE039091FF03A816B90698
:1036900021F4B70182E00E944201C556DF4FE88164
:1036A000F981CB59D0400FB6F894FEBF0FBEEDBFE5
:1036B0003FCE043090F38091FE039091FF03A81653
:1036C000B90659F7CD56DF4FC880D980C359D040CD
:1036D000B12CA12CCB56DF4FE881F981C559D040E0
:1036E000FB83EA83C956DF4F28813981C759D0400F
:1036F0003D832C83BF82AE82C4010E94AC07D601F9
:103700008D936D01BFEFAB1ABB0AA01618F3CD560F
:10371000DF4F48815981C359D040B70185E0AFCF11
:103720008091FE039091FF03A816B90609F0B5CF6A
:10373000B70186E0B0CFB70187E0ADCF8091FE033F
:103740009091FF03A816B90609F0A7CFB70188E04A
:10375000A2CFB70189E00E944201043008F49DCF56
:103760008091FE039091FF03E816F90609F095CFCA
:10377000CD56DF4FE880F980C359D040D12CC12C01
:10378000CB56DF4FE881F981C559D040FB83EA83EE
:10379000C956DF4F28813981C759D0403D832C83DA
:1037A000DF82CE82C4010E94AC07D7018D937D01D8
:1037B000BFEFCB1ADB0AC01618F3CD56DF4F488196
:1037C0005981C359D040B50189E059CF000F111F6D
:1037D000F801EE5DFE4F808191810E94650DA8CDBC
:1037E0009F5F90932B037ECC80914C06893208F426
:1037F00070C020914806222329F031E080914906CB
:10380000811101C030E060914B0680914A06882307
:1038100019F081E0611101C080E050910104507FF6
:10382000932F982741E0503109F040E0492333239A
:1038300069F0882361F0261B330B37FF03C03195F5
:103840002195310981E02A3031050CF080E091E0CA
:10385000511190E08923942F990F890F90914D0673
:10386000891769F180934D0610E00FE58091FC0304
:103870001817E0F4019FC00111248C509C4FFC01EB
:10388000E559FF4F20914D06208386599F4F61E0F7
:10389000DC018C91813009F060E0109FC00111249F
:1038A000825F9B4F0E94DD0A1F5FE0CF8091F4038F
:1038B0009091F50391609093F5038093F403109237
:1038C00049061092480610924B0610924A06109232
:1038D0004C060E94340400910A0410910B042091BC
:1038E0000C0430910D04601B710B820B930B65313E
:1038F00071058105910508F47CC00E943404609331
:103900000A0470930B0480930C0490930D0440916F
:10391000F803242F30E0C9019595879595958795F3
:103920008427932783709927892B09F497C0E42F64
:10393000E3702E2F30E0C901019663E070E00E9431
:1039400075274C7F840F8093F80390E002C0959513
:103950008795EA95E2F754E0880F991F5A95E1F7A9
:10396000882791702C503C4FF9012581820F911DC1
:103970008C011127F090FE03E090FF0390FF46C0FA
:10398000C80103960E94A201B82EC80102960E94A7
:10399000A201C82EC80101960E94A201D82EC8011A
:1039A0000E94A2011F92BF921F92CF921F92DF929C
:1039B0001F928F931F930F931F9286E48F93EF9222
:1039C000FF928AE092E09F938F9381E192E09F9330
:1039D0008F939F928F920E9483292DB73EB72C5EC2
:1039E0003F4F0FB6F8943EBF0FBE2DBFC4010E94DB
:1039F000770D80E090E0892B09F474CB0E9474026B
:103A0000882309F46FCB0E9400006CCBC8010E9490
:103A1000A2011F921F921F921F921F921F921F922C
:103A20008F931F930F931F9282E48F93EF92FF92D5
:103A300086E592E09F938F9381E192E09F938F932D
:103A40009F928F920E9483294DB75EB74C5E5F4F65
:103A50000FB6F8945EBF0FBE4DBFC8CF8091F40380
:103A60009091F50380FF34C08E7F9093F50380938F
:103A7000F4038091FD031F928F931F9281E08F9337
:103A80001F9289E18F931F928F931F921F921F9213
:103A900087E48F938091FF038F938091FE038F9330
:103AA0008AE092E09F938F9381E192E09F938F93BE
:103AB0009F928F920E948329C4010E94770D8DB737
:103AC0009EB744960FB6F8949EBF0FBE8DBF91CFA0
:103AD00081FF1FC08D7F9093F5038093F403809145
:103AE000FD031F928F931F9281E08F931F9289E1B4
:103AF0008F931F928F931F921F921F9288E48F9330
:103B00008091FF038F938091FE038F938AE092E070
:103B1000D1C082FF21C08B7F9093F5038093F40383
:103B20008091FE039091FF039C0133273F932F93D5
:103B30001F929F93209100041F922F932091FC03CA
:103B40001F922F931F921F921F9226E42F939F93F1
:103B50008F938AE092E0E3C083FF34C0877F909325
:103B6000F5038093F4031F921F921F921F921F92DE
:103B70001F92809101041F928F931F9284E08F9374
:103B80001F9282E48F938091FF038F938091FE03B5
:103B90008F9386E592E09F938F9381E192E09F93CC
:103BA0008F939F928F920E948329C4010E94770D68
:103BB0002DB73EB72C5E3F4F0FB6F8943EBF0FBEF9
:103BC0002DBF17CF84FF3AC08F7E9093F50380936B
:103BD000F40380910304909104041F921F929C01AE
:103BE00033273F932F931F929F93809102041F923C
:103BF0008F931F9288E08F931F9286E48F9380911A
:103C0000FF038F938091FE038F938AE092E09F934E
:103C10008F9381E192E09F938F939F928F920E9466
:103C20008329C4010E94770D4DB75EB74C5E5F4F8C
:103C30000FB6F8945EBF0FBE4DBFDBCE85FF1BC035
:103C40008F7D9093F5038093F40380910604909107
:103C500007041F921F929C0133273F932F931F92BB
:103C60009F93809105041F928F931F928CE08F93F6
:103C70001F9286E40ECF90FF33C09E7F9093F50392
:103C80008093F4031F921F921F921F921F921F9204
:103C900080914D061F928F931F9280EF8F931F92FA
:103CA00082E48F938091FF038F938091FE038F9323
:103CB00086E592E09F938F9381E192E09F938F93AB
:103CC0009F928F920E948329C4010E94770DADB705
:103CD000BEB754960FB6F894BEBF0FBEADBF89CE27
:103CE00091FF33C09D7F9093F5038093F4031F925F
:103CF0001F921F921F921F921F9280914E061F9239
:103D00008F931F9281EF8F931F9282E48F93809104
:103D1000FF038F938091FE038F9386E592E09F933C
:103D20008F9381E192E09F938F939F928F920E9455
:103D30008329C4010E94770DEDB7FEB774960FB6C4
:103D4000F894FEBF0FBEEDBF54CECD56DF4F1882A4
:103D5000C359D0402FE58091FC03CD56DF4FF88149
:103D6000C359D040F81708F044CE0F2F10E0209F21
:103D7000F001219FF00D1124EC50FC4FDF01A359FD
:103D8000BF4F8D919C91119780FF53C08E7F8D9373
:103D90009C9320E030E048EC52E4658D768D878D71
:103DA00090A10E948D266B017C0120E030E0A901EA
:103DB0000E94882620E030E040E05FE387FD34C0C9
:103DC000C701B6010E94BD240E94A025CB019927FE
:103DD0009F938F931F927F938FE5809FF001819F28
:103DE000F00D1124EC50FC4F848D1F928F93828D27
:103DF00020E1829FC0011124238D2E50330B820FAE
:103E0000931F9F938F93DF01A459BF4F8C9190E034
:103E100001968F931F921F9286E48F93EB58FF4F6A
:103E200081818F938081F0CEC701B6010E94BC24AE
:103E3000CBCF81FF2EC08D7F8D939C9381A192A1CA
:103E40009C0133273F932F931F929F9385A11F922D
:103E50008F9387A154E0859F9001112486A18370E0
:103E6000820F932F911D9F938F93DF01A459BF4F12
:103E70008C9190E0982F88278C5F9E4F9F938F9313
:103E80001F9286E48F93EB58FF4F81818F9380813F
:103E900006CE82FF24C08B7F8D939C9381A592A533
:103EA0001F921F929C0133273F932F931F929F9342
:103EB00080A51F928F93DF01A459BF4F8C9190E092
:103EC000982F8827885F9E4F9F938F931F9286E439
:103ED0008F93EB58FF4F81818F93808116CE83FFA4
:103EE00024C0877F8D939C9384A595A51F921F92D4
:103EF0009C0133273F932F931F929F9383A51F927B
:103F00008F93DF01A459BF4F8C9190E0982F8827A1
:103F1000845F9E4F9F938F931F9286E48F93EB58FD
:103F2000FF4F81818F93808113CE84FF27C08F7EC6
:103F30008D939C9387A590A91F921F929C01332774
:103F40003F932F931F929F9386A51F928F93DF011C
:103F5000A459BF4F8C9190E0982F8827805F9E4F87
:103F60009F938F931F9286E48F93EB58FF4F81812D
:103F70008F9380818F938AE092E00DCE85FF1CC0E5
:103F80008F7D8D939C9382A993A91F921F929C0170
:103F900033273F932F931F929F9381A91F928F9353
:103FA000DF01A459BF4F8C9190E0982F88278C5E39
:103FB0009E4F9F938F932FCF86FF1AC08F7B8D9339
:103FC0009C9385A996A91F921F929C0133273F932A
:103FD0002F931F929F9384A91F928F93DF01A4595F
:103FE000BF4F8C9190E0982F8827885E9E4F46CFD8
:103FF00087FF1AC08F778D939C9380AD91AD1F92F0
:104000001F929C0133273F932F931F929F9387A961
:104010001F928F93DF01A459BF4F8C9190E0982F8E
:104020008827845E9E4F50CF90FF24C02FE5209FAD
:10403000F001219FF00D1124EC50FC4FDF01A3593A
:10404000BF4F9E7F11969C938E9383AD94AD1F922C
:104050001F929C0133273F932F931F929F9382AD12
:104060001F928F9311978C9190E0982F8827805EF4
:104070009E4F50CF91FF23C02FE5209FF001219F3D
:10408000F00D1124EC50FC4FDF01A359BF4F9D7F71
:1040900011969C938E9383A194A11F921F921F92BD
:1040A0001F929C0133273F932F931F929F93119749
:1040B0008C9190E0982F88278C5D9E4F51CF92FF76
:1040C0003AC04FE5409F9001419F300D11242C5084
:1040D0003C4FF901E359FF4F9B7F9183808380918F
:1040E0004D038F9380914C038F93809143038F9363
:1040F000809142038F93809137038F938091360391
:104100008F9380912D038F9380912C038F93319700
:10411000808190E0982F8827885D9E4F9F938F9392
:104120001F9286E48F93399681818F9380818F933C
:104130008DE592E06CCD209FC001219F900D112450
:10414000DC01AC50BC4F7D01FD01EE5AFF4FE08118
:10415000AD5ABF4F3C91E31709F4E5C2F0E0399640
:10416000EE0FFF1FEE0FFF1FE80FF91FEC50FC4F83
:1041700020E030E046E154E4628D738D848D958DAE
:104180000E942E250E94002720E030E040E850E405
:104190000E948D26F701258D368D478D50A10E94F6
:1041A0008D262B013C0120E030E040E251E40E94EA
:1041B0002E259B01AC010E948D265B016C01D7016D
:1041C00091968D919C916AE070E00E94612790E049
:1041D00080E00E94D6259B01AC01C601B5010E947A
:1041E0002E256B017C0120E030E0A9010E94882689
:1041F00020E030E040E05FE387FDB8C1C701B601D1
:104200000E94BD240E94A0257B018FE5809FF001C4
:10421000819FF00D1124EC50FC4FDF01A45BBF4FD8
:10422000AD90BC9065A170E0C5010E94612790E04F
:1042300080E00E94D62520E030E040E05FE30E946D
:10424000BD240E94A0256A3071058105910524F4E2
:104250006AE070E080E090E0EA0CFB1C2FE5209F14
:10426000F001219FF00D1124E05CFB4FF182E08210
:104270006E157F0508F07FC1E61AF70AF182E08229
:104280002FE5209FC001219F900D1124FC01EC50CF
:10429000FC4F7F01E45BFF4F6081718190E080E023
:1042A0000E94D6255B016C01F701E85AFF4F60813F
:1042B000718190E080E00E94D6259B01AC01C6018F
:1042C000B5010E942E2520E030E048EC52E40E9427
:1042D0008D266B017C0120E030E0A9010E94882638
:1042E00020E030E040E05FE387FD48C1C701B60150
:1042F0000E94BD240E94A0258FE5809FF001819F30
:10430000F00D1124EC5BFB4F7183608320E030E003
:10431000A901C301B2010E94882620E030E040E0FC
:104320005FE387FD30C1C301B2010E94BD240E943A
:10433000A0252FE5209FC001219F900D11249C01F5
:104340002C503C4F7901F901E25BFF4F7183608390
:104350003696408051806280738038EE430E33E0A1
:10436000531E611C711C0E943404461657066806D1
:10437000790608F0CDC0D701D7968C91D797807E6B
:1043800059F0A759BF4FF701E958FF4F4424439410
:104390009C918081981301C0412C8FE5809FF00192
:1043A000819FF00D1124EC50FC4FDF01A05BBF4F4B
:1043B000AD90BC9082AD807E41F0E858FF4F808187
:1043C000552453948A151B0409F4512C2FE5209F82
:1043D000C001219F900D1124FC01EC50FC4F7F0186
:1043E000E45BFF4F8081918164E670E00E94612769
:1043F00090E080E00E94D62520E030E040E05FE3DE
:104400000E94BD240E94A0256B01D7015C968C916F
:104410000E9440039F938F93F701E659FF4F8081DD
:104420001F928F933701B9E66B0E711CF3018081E7
:104430001F928F933F9680811F928F93BA978181AD
:104440008F9380818F93DF92CF92B50190E080E0CF
:104450000E94D62520E030E040E05FE30E94BD24CA
:104460000E94A0257F936F93F701E459FF4F80814D
:104470001F928F9384E692E09F938F939F928F92E7
:104480000E948329C4010E94770D2DB73EB72C5E90
:104490003F4F0FB6F8943EBF0FBE2DBF442009F426
:1044A000C0C0D3012C91F70182AD90E035E0959525
:1044B00087953A95E1F78230910509F499C00CF09F
:1044C00067C0019709F47EC02FE5209FC001219F9E
:1044D000900D11248C509C4FFC01E958FF4F8759D7
:1044E0009F4FDC018C9180838FE5809FF001819F3D
:1044F000F00D1124E85BFB4F80819181A281B38193
:1045000088519C4FAF4FBF4F80839183A283B38369
:104510002FE5209FC001219F900D11248C010C508C
:104520001C4FF801EE5AFF4F808190E0019663E046
:1045300070E00E947527808332978081918189374E
:10454000910508F456CACD56DF4FB881C359D04003
:10455000B29FC001112460E0825F9B4F0E94DD0A80
:10456000F801E759FF4F85E0808343CAC701B601D0
:104570000E94BC2447CE1182108282CEC701B601B0
:104580000E94BC24B7CEC301B2010E94BC24CFCE8E
:104590008330910591F1049709F096CF87A9482FB0
:1045A0004170233018F08095482F41708FE5809F2F
:1045B000F001819FF00D1124EC50FC4F63AD74AD00
:1045C00082EB13C087A9482F4170233018F08095E3
:1045D000482F41708FE5809FF001819FF00D1124DD
:1045E000EC50FC4F63AD74AD80EB0E943A0E6CCF83
:1045F00063AD74AD422F8DEEF8CF87A9482F41707F
:10460000233018F08095482F41708FE5809FF0018E
:10461000819FF00D1124EC50FC4F63AD74AD85EE1D
:10462000E4CF552009F460CFF70182ADE05BFF4F86
:1046300060817181282F30E095E0359527959A9516
:10464000E1F72230310509F443C08CF42130310503
:1046500049F12FE5209FC001219F900D11248C501E
:104660009C4FFC01E858FF4F805B9F4F3ACF2330AF
:10467000310509F444C02430310559F7482F417001
:104680006536710518F48095482F41708FE5809F3D
:10469000F001819FF00D1124EC50FC4F63AD74AD1F
:1046A00082EB13C0482F41706536710518F4809570
:1046B000482F41708FE5809FF001819FF00D1124FC
:1046C000EC50FC4F63AD74AD80EB0E943A0EC1CF4D
:1046D000769567957695679590E080E00E94D6255F
:1046E00020E030E040E05FE30E94BD240E94A0256E
:1046F000462FD701DB966D917C918DEEE6CF482F4A
:1047000041706536710518F48095482F41708FE52A
:10471000809FF001819FF00D1124EC50FC4F63ADA0
:1047200074AD85EED2CFCD56DF4FE881C359D0406E
:10473000EF5FCD56DF4FE883C359D0400CCB8F924B
:104740009F92AF92BF92CF92DF92EF92FF92CF9360
:10475000DF93EC01688179818A819B816115710504
:104760008105910521F464E279ED8BE597E02DE177
:1047700033EF41E050E00E94592449015A019B0166
:10478000AC01A7EAB1E40E9478246B017C01ACEE95
:10479000B4EFA50194010E948624C60ED71EE81E20
:1047A000F91EF7FE06C081E0C81AD108E10880E8CA
:1047B000F80AC882D982EA82FB82C701B6019F77D4
:1047C000DF91CF91FF90EF90DF90CF90BF90AF90AF
:1047D0009F908F9008958F929F92AF92BF92CF92A9
:1047E000DF92EF92FF92609102017091030180913C
:1047F000040190910501611571058105910521F470
:1048000064E279ED8BE597E02DE133EF41E050E094
:104810000E94592449015A019B01AC01A7EAB1E465
:104820000E9478246B017C01ACEEB4EFA5019401E9
:104830000E948624C60ED71EE81EF91EF7FE06C08B
:1048400081E0C81AD108E10880E8F80AC0920201A4
:10485000D0920301E0920401F0920501C701B60174
:104860009F77FF90EF90DF90CF90BF90AF909F9099
:104870008F90089560930201709303018093040167
:10488000909305010895F999FECF92BD81BDF89AE4
:10489000992780B50895262FF999FECF1FBA92BDAA
:1048A00081BD20BD0FB6F894FA9AF99A0FBE019611
:1048B0000895052E97FB1EF400940E94702457FD66
:1048C00007D00E948B2407FC03D04EF40C94702474
:1048D00050954095309521953F4F4F4F5F4F08952C
:1048E00090958095709561957F4F8F4F9F4F08955C
:1048F0000E94AD24A59F900DB49F900DA49F800DA4
:10490000911D11240895B7FF0C9478240E947824F7
:10491000821B930B0895A1E21A2EAA1BBB1BFD015B
:104920000DC0AA1FBB1FEE1FFF1FA217B307E4078E
:10493000F50720F0A21BB30BE40BF50B661F771FE6
:10494000881F991F1A9469F76095709580959095C6
:104950009B01AC01BD01CF010895A29FB001B39F9F
:10496000C001A39F700D811D1124911DB29F700D78
:10497000811D1124911D08955058BB27AA270E941C
:10498000D4240C944E260E94402638F00E944726DC
:1049900020F039F49F3F19F426F40C943D260EF4D0
:1049A000E095E7FB0C943726E92F0E945F2658F329
:1049B000BA17620773078407950720F079F4A6F504
:1049C0000C9481260EF4E0950B2EBA2FA02D0B012E
:1049D000B90190010C01CA01A0011124FF27591B44
:1049E00099F0593F50F4503E68F11A16F040A22F4A
:1049F000232F342F4427585FF3CF469537952795BB
:104A0000A795F0405395C9F77EF41F16BA0B620BB9
:104A1000730B840BBAF09150A1F0FF0FBB1F661F00
:104A2000771F881FC2F70EC0BA0F621F731F841F43
:104A300048F4879577956795B795F7959E3F08F069
:104A4000B0CF9395880F08F09927EE0F979587952B
:104A500008950E94132608F481E008950E944225DB
:104A60000C944E260E94472658F00E94402640F0A3
:104A700029F45F3F29F00C94372651110C948226BB
:104A80000C943D260E945F2668F39923B1F35523C9
:104A900091F3951B550BBB27AA2762177307840751
:104AA00038F09F5F5F4F220F331F441FAA1FA9F3E7
:104AB00035D00E2E3AF0E0E832D091505040E695D5
:104AC000001CCAF72BD0FE2F29D0660F771F881F36
:104AD000BB1F261737074807AB07B0E809F0BB0B29
:104AE000802DBF01FF2793585F4F3AF09E3F51053D
:104AF00078F00C9437260C9482265F3FE4F3983EBE
:104B0000D4F3869577956795B795F7959F5FC9F725
:104B1000880F911D9695879597F90895E1E0660FA6
:104B2000771F881FBB1F621773078407BA0720F01F
:104B3000621B730B840BBA0BEE1F88F7E095089588
:104B40000E94A7256894B1110C94822608950E94B2
:104B5000672688F09F5798F0B92F9927B751B0F082
:104B6000E1F0660F771F881F991F1AF0BA95C9F7F1
:104B700014C0B13091F00E948126B1E008950C94E8
:104B80008126672F782F8827B85F39F0B93FCCF39B
:104B9000869577956795B395D9F73EF4909580956E
:104BA000709561957F4F8F4F9F4F0895E89409C08E
:104BB00097FB3EF490958095709561957F4F8F4F50
:104BC0009F4F9923A9F0F92F96E9BB279395F69566
:104BD000879577956795B795F111F8CFFAF4BB0FE4
:104BE00011F460FF1BC06F5F7F4F8F4F9F4F16C048
:104BF000882311F096E911C0772321F09EE8872FD2
:104C0000762F05C0662371F096E8862F70E060E08D
:104C10002AF09A95660F771F881FDAF7880F969506
:104C2000879597F90895990F0008550FAA0BE0E8AA
:104C3000FEEF16161706E807F907C0F0121613065E
:104C4000E407F50798F0621B730B840B950B39F49E
:104C50000A2661F0232B242B252B21F408950A2604
:104C600009F4A140A6958FEF811D811D089597F944
:104C70009F6780E870E060E008959FEF80EC089502
:104C800000240A941616170618060906089500242B
:104C90000A9412161306140605060895092E0394A5
:104CA000000C11F4882352F0BB0F40F4BF2B11F419
:104CB00060FF04C06F5F7F4F8F4F9F4F089557FD78
:104CC0009058440F551F59F05F3F71F04795880F7A
:104CD00097FB991F61F09F3F79F087950895121611
:104CE00013061406551FF2CF4695F1DF08C01616BD
:104CF00017061806991FF1CF86957105610508946E
:104D00000895E894BB2766277727CB0197F9089584
:104D10000E94132608F48FEF08950E94A0260C9499
:104D20004E260E94402638F00E94472620F0952308
:104D300011F00C9437260C943D2611240C948226F5
:104D40000E945F2670F3959FC1F3950F50E0551FA9
:104D5000629FF001729FBB27F00DB11D639FAA27D0
:104D6000F00DB11DAA1F649F6627B00DA11D661F1F
:104D7000829F2227B00DA11D621F739FB00DA11D40
:104D8000621F839FA00D611D221F749F3327A00DFA
:104D9000611D231F849F600D211D822F762F6A2F96
:104DA00011249F5750409AF0F1F088234AF0EE0FFB
:104DB000FF1FBB1F661F771F881F91505040A9F728
:104DC0009E3F510580F00C9437260C9482265F3F5D
:104DD000E4F3983ED4F3869577956795B795F79564
:104DE000E7959F5FC1F7FE2B880F911D96958795DC
:104DF00097F9089519F416F40C943D260C94402765
:104E00000E946726B8F39923C9F3B6F39F57550B51
:104E100087FF0E944E270024A0E640EA90018058B8
:104E20005695979528F4805C660F771F881F20F0B1
:104E300026173707480730F4621B730B840B2029B1
:104E400031294A2BA69517940794202531254A2706
:104E500058F7660F771F881F20F026173707480777
:104E600030F4620B730B840B200D311D411DA09596
:104E700081F7B901842F9158880F969587950895E9
:104E80009F3F31F0915020F4879577956795B795BE
:104E9000880F911D9695879597F9089591505040E8
:104EA000660F771F881FD2F70895991B79E004C019
:104EB000991F961708F0961B881F7A95C9F7809559
:104EC0000895AA1BBB1B51E107C0AA1FBB1FA61751
:104ED000B70710F0A61BB70B881F991F5A95A9F7A3
:104EE00080959095BC01CD01089597FB072E16F48F
:104EF000009407D077FD09D00E94612707FC05D0F8
:104F00003EF4909581959F4F0895709561957F4FE0
:104F10000895EE0FFF1F0590F491E02D09940F9373
:104F20001F93CF93DF938230910510F482E090E0DD
:104F3000E0915206F091530630E020E0B0E0A0E0AE
:104F4000309799F42115310509F44AC0281B390B13
:104F500024303105D8F58A819B816115710589F16D
:104F6000FB0193838283FE0111C040815181028144
:104F7000138148175907E0F04817590799F410971B
:104F800061F012960C93129713961C933296CF01F0
:104F9000DF91CF911F910F910895009352061093C6
:104FA0005306F4CF2115310551F04217530738F05D
:104FB000A901DB019A01BD01DF01F801C1CFEF01B9
:104FC000F9CF9093530680935206CDCFFE01E20FA6
:104FD000F31F819391932250310939832883D7CFCE
:104FE0002091500630915106232B41F42091080165
:104FF000309109013093510620935006209106010B
:10500000309107012115310541F42DB73EB740918C
:105010000A0150910B01241B350BE0915006F091D1
:105020005106E217F307A0F42E1B3F0B2817390790
:1050300078F0AC014E5F5F4F2417350748F04E0FF4
:105040005F1F5093510640935006819391939FCFD9
:10505000F0E0E0E09CCFCF93DF930097E9F0FC0114
:10506000329713821282A0915206B0915306ED013D
:1050700030E020E01097A1F420813181820F931F4E
:1050800020915006309151062817390709F061C068
:10509000F0935106E0935006DF91CF910895EA0115
:1050A000CE17DF07E8F54A815B819E014115510566
:1050B000B1F7E901FB83EA8349915991C40FD51FE8
:1050C000EC17FD0761F4808191810296840F951F92
:1050D000E90199838883828193819B838A83F0E0AD
:1050E000E0E012968D919C9113970097B9F52D9160
:1050F0003C911197CD010296820F931F209150068B
:10510000309151062817390739F6309751F510922A
:10511000530610925206B0935106A0935006BCCF8E
:10512000D383C28340815181840F951FC817D9074B
:1051300061F44E5F5F4F88819981480F591F5183F9
:1051400040838A819B81938382832115310509F0F5
:10515000B0CFF0935306E09352069ECFFD01DC01E1
:10516000C0CF13821282D7CFB0E0A0E0EAEBF8E222
:105170000C94262C8C01009751F4CB010E948F27B0
:105180008C01C801CDB7DEB7E0E10C94422CFC01E4
:10519000E60FF71F9C0122503109E217F30708F4CC
:1051A0009DC0D901CD91DC911197C617D70798F012
:1051B000C530D10530F3CE0104978617970708F361
:1051C000C61BD70B2297C193D1936D937C93CF01CC
:1051D0000E942B28D6CF5B01AC1ABD0A4C018C0E65
:1051E0009D1EA0915206B0915306512C412CF12CDA
:1051F000E12C109731F58091500690915106881559
:10520000990509F05CC04616570608F058C0809111
:10521000060190910701009741F48DB79EB7409128
:105220000A0150910B01841B950BE817F90708F050
:1052300055C0F0935106E0935006F90171836083E5
:10524000A0CF8D919C91119712966C901297139606
:105250007C901397A815B90559F56C0142E0C40E6E
:10526000D11CCA14DB0420F1AC014A195B09DA0134
:105270001296159780F06282738251834083D90120
:105280006D937C93E114F10471F0D7011396FC93B4
:10529000EE93129776CF22968C0F9D1FF901918382
:1052A0008083F301EFCFF0935306E093520669CF6A
:1052B0004816590608F42C017D01D3019ACFCB0181
:1052C0000E948F277C01009749F0AE01B8010E942F
:1052D0007129C8010E942B28870153CF10E000E0FC
:1052E00050CFFB01DC0102C001900D9241505040B3
:1052F000D8F70895FB01DC018D9101908019011010
:10530000D9F3990B0895AEE0B0E0E9E8F9E20C9426
:10531000322C0D891E8986E08C831A8309838FEFD6
:105320009FE79E838D83AE01475E5F4F6F89788DC7
:10533000CE0101960E94A6292F813885020F131FE6
:10534000F80110822E96E4E00C944E2CABE0B0E015
:10535000ECEAF9E20C94242C7C013B018A01FC016B
:1053600017821682838181FFC8C1CE0101965C013C
:10537000F7019381F30193FD859193FF81913F01A3
:10538000882309F453C1853239F493FD859193FF45
:1053900081913F01853229F4B70190E00E94962B5C
:1053A000E7CF912C212C312CFFE1F31538F08B3213
:1053B00011F190F4803209F1833229F137FC3CC0BD
:1053C00020ED280F2A3050F536FE20C08AE0989E46
:1053D000200D1124922E06C08D3291F0803371F78A
:1053E000689430F8F30193FD859193FF81913F011B
:1053F0008111DACF21C0689431F8689432F8F2CF85
:10540000689433F8EFCF689434F8ECCFEAE02E9E3E
:10541000200D1124222E689435F8E4CF8E3229F421
:1054200036FC04C1689436F8DDCF8C3619F46894E4
:1054300037F8D8CF8836B1F2982F9F7D95549330A6
:10544000E0F08336A1F18337C1F1833509F063C001
:105450002801F2E04F0E511CF801C080D180692D67
:1054600070E036FC02C06FEF7FEFC6010E94802B18
:105470004C01689437F882010AC00C5F1F4FFFE3AC
:10548000F98388248394912C6501E89437F833FEDE
:105490002DC0522C8114910471F5552009F468CF68
:1054A000B70180E290E00E94962B5A94F6CFF80163
:1054B000808189830E5F1F4FE4CF2801F2E04F0EF9
:1054C000511CF801C080D180692D70E036FC02C00B
:1054D0006FEF7FEFC6010E948B2B4C018201D5CF6D
:1054E000B70180E290E00E94962B2A9428141904B8
:1054F00009F0B0F7CECFF60137FC859137FE8191E8
:105500006F01B70190E00E94962B51105A94F1E080
:105510008F1A9108BFCF843619F0893609F077C009
:10552000F80137FE6BC060817181828193810C5FCD
:105530001F4FF32DFF763F2E97FF09C09095809562
:10554000709561957F4F8F4F9F4F689437F82AE091
:1055500030E0A5010E94C62BC82ECA188C2C432C03
:1055600036FE0CC0E89440F8C91440F434FE05C07F
:1055700032FC03C0F32DFE7E4F2E892C44FE95C0D5
:10558000FE01EC0DF11D8081803309F087C0242DD0
:10559000297E422E842D8870582E43FC95C040FEF3
:1055A0008FC09C2C821418F42C0C922C981844FE5A
:1055B00091C0B70180E390E00E94962B42FE09C0A3
:1055C00088E790E041FE02C088E590E0B7010E94C4
:1055D000962BC91408F48AC0CA94D12C9FEFC91A1B
:1055E000D90ACA0CDB1CF60182916F01B70190E069
:1055F0000E94962BAC14BD04B1F74FCF608171812E
:10560000072E000C880B990B0E5F1F4F92CFD32CE7
:10561000E894D4F82AE030E0853739F1232D297F4A
:10562000D22E8F3601F148F48835A9F0F701868132
:1056300097812B96E2E10C94402C803749F0883713
:10564000A9F7D4FE02C06894D2F820E130E00DC082
:105650006894D4F8F6CF34FE03C0822F8660D82E2B
:1056600020E132E002C028E030E0F801D7FE0FC0B0
:1056700060817181828193810C5F1F4FA5010E941F
:10568000C62BC82ECA183D2CE89437F867CF608126
:10569000718190E080E00E5F1F4FF0CF42FC02C0AE
:1056A000839478CF8394839475CF842D867809F47E
:1056B00071CFF6CFB70180E290E00E94962B8394E1
:1056C0008214C0F3512C73CF522C5818821408F452
:1056D0006ECFF8CF842D867809F47BCF8BE241FE24
:1056E00080E247FC8DE2B70190E071CFB70180E323
:1056F00090E00E94962B9A946CCF8FEF9FEF99CFFA
:10570000FC010590615070400110D8F7809590958C
:105710008E0F9F1F0895FC01615070400190011091
:10572000D8F7809590958E0F9F1F08950F931F9324
:10573000CF93DF93182F092FEB018B8181FD09C0D7
:105740001FEF0FEF812F902FDF91CF911F910F91BE
:10575000089582FF14C02E813F818C819D8128177E
:1057600039073CF4E881F981CF0101969983888358
:1057700010838E819F8101969F838E83E3CFE8857E
:10578000F985812F0995892BA1F3DACFFA01AA2790
:10579000283051F1203181F1E8946F936E7F6E5F74
:1057A0007F4F8F4F9F4FAF4FB1E03ED0B4E03CD022
:1057B000670F781F891F9A1FA11D680F791F8A1F05
:1057C000911DA11D6A0F711D811D911DA11D20D06C
:1057D00009F468943F912AE0269F11243019305D26
:1057E0003193DEF6CF010895462F4770405D419317
:1057F000B3E00FD0C9F7F6CF462F4F70405D4A3364
:1058000018F0495D31FD4052419302D0A9F7EACF2B
:10581000B4E0A6959795879577956795BA95C9F75A
:1058200000976105710508959B01AC010A2E06944D
:105830005795479537952795BA95C9F7620F731F06
:10584000841F951FA01D08952F923F924F925F9243
:105850006F927F928F929F92AF92BF92CF92DF9280
:10586000EF92FF920F931F93CF93DF93CDB7DEB7E5
:10587000CA1BDB0B0FB6F894DEBF0FBECDBF099479
:105880002A88398848885F846E847D848C849B84D0
:10589000AA84B984C884DF80EE80FD800C811B81DE
:1058A000AA81B981CE0FD11D0FB6F894DEBF0FBE0D
:0A58B000CDBFED010895F894FFCF7D
:1058BA0010010100000000005406800000000000F2
:1058CA00E410E110DD100D0A000000000C090B04C1
:1058DA00050794029702A202B202BF02C8020000A0
:1058EA000000AA020A023702F702680246025A02B6
:1058FA002F2F22225C5C6208660C6E0A720D7409F4
:10590A00000D0A007B22436D64223A224C4E222C5F
:10591A00224F5043223A25692C2241646472223A6A
:10592A0025692C202253746174223A25697D0A0064
:10593A00747275650066616C7365006E756C6C00D7
:10594A00496E6974204E6F646500496E76616C69B0
:10595A006420426F6F73746572204E6F64652044D1
:10596A00617461007B22446576223A22496F54545D
:10597A0020534820426F6F73746572222C22562E70
:10598A00223A2200312E302E3000227D00496E69E3
:10599A00742044657600436D64004C4E0050726D6D
:1059AA00004F70630056616C730041646472004278
:1059BA00544E0053560044737400225356523422F4
:1059CA00007B22436D64223A25732C2250726D2289
:1059DA003A7B22537263223A25692C224F70632242
:1059EA003A25692C2241646472223A25692C22568E
:1059FA00616C73223A5B25692C25692C25692C2553
:105A0A00695D7D7D0A002253565231220022535687
:105A1A00573422007B22436D64223A224443434195
:105A2A006D70222C2249223A5B25692C25692C2586
:105A3A00692C25692C25692C25692C25692C256951
:105A4A005D7D0A004F6B00456D707479496E707503
:105A5A007400496E636F6D706C657465496E70751C
:105A6A007400496E76616C6964496E707574004E93
:105A7A006F4D656D6F727900546F6F446565700084
:00000001FF
