:100000000C9465010C9496010C9496010C94960145
:100010000C9496010C9496010C9496010C94960104
:100020000C9496010C9496010C9496010C949601F4
:100030000C9496010C9496010C9496010C949601E4
:100040000C9496010C9496010C9496010C949601D4
:100050000C9421140C9496010C9496010C94D713D3
:100060000C9496010C94A1130C9477130C949601A4
:100070000C9496010C9496010C9496010C949601A4
:100080000C9496010C9496010C9496010C94960194
:100090000C9496010C9496010C9496010C94960184
:1000A0000C9496010C9496010C9496010C94960174
:1000B0000C9496010C9496010C9496010C94960164
:1000C0000C9496010C9496010C9496010C94960154
:1000D0000C9496010C9496010C9496010C94960144
:1000E0000C9496010C94E1030C94371D0C9483043A
:1000F0000C9490040C948C0D0C944E030C94F41CF2
:100100000C9442120C946F040C94501D0C944512E4
:100110000C948B040C943A030C945A040C946B04C6
:100120000C942B030C9487040C94421D0C94451DD5
:100130000C945E040C9450040C9495040C94790473
:100140000C943E120C94CA1C0C947D040C94E91C73
:100150000C9494030C9462040C9475040C9456044F
:100160000C94C9170C945C030C94001D0C9491041E
:100170000C9465040C94FE02CDCCCC3D0AD7233CF4
:1001800017B7D13877CC2B329595E6241FB14F0A9B
:10019000000020410000C84200401C4620BCBE4C6C
:1001A000CA1B0E5AAEC59D74000021002400270012
:1001B0002A002D0030003300010100000401070176
:1001C0000A0100002200250028002B002E0031002B
:1001D000340002010000050108010B0100002000AD
:1001E0002300260029002C002F003200000100000F
:1001F00003010601090105050505070508080808AA
:10020000020202020A0A08080404040401010101AE
:1002100001010101030303030303030304070707A9
:100220000C0C0C0C0C0C0C0C02020202060606064E
:10023000060606060B0B0B0B0B0B0B0B010210201B
:10024000200808102040102040800201020108040C
:1002500002010102040810204080804020100804A0
:1002600002018004020180402010080402010804F9
:10027000020101020408102040800102040810203D
:10028000408000000A0B02090C0D0E080703040150
:10029000000000000000000000000000000000005E
:1002A000000000000000000000000000000012112B
:1002B000100000000000000000000000000000002E
:1002C0000000000000000000C91711241FBECFEF7E
:1002D000D1E2DEBFCDBF00E00CBF13E0A0E0B2E092
:1002E000ECE3FCE500E00BBF02C007900D92A03DDF
:1002F000B107D9F727E0A0EDB3E001C01D92A43506
:10030000B207E1F711E0C5E6D1E000E006C02197B1
:100310000109802FFE010E942629C436D10780E002
:100320000807A9F70E9475180C941C2E0C94000065
:10033000FC016431710509F447C094F4683071051B
:1003400089F13CF461157105F9F06430710521F112
:1003500008956C30710561F16031710579F108958E
:100360006032710509F442C03CF46831710591F1C5
:100370006C317105A9F1089564327105E9F16F3F9F
:10038000710509F43FC00895ED5AFF4F80819181B6
:100390008160918380830895ED5AFF4F8081918120
:1003A0008260F7CFED5AFF4F808191818460F1CF59
:1003B000ED5AFF4F808191818860EBCFED5AFF4F5E
:1003C000808191818061E5CFED5AFF4F80819181DD
:1003D0008062DFCFED5AFF4F808191818064D9CF59
:1003E000ED5AFF4F808191818068D3CFED5AFF4F46
:1003F000808191819160CDCFED5AFF4F80819181B5
:100400009260C7CF8D5A9F4F2FEF3FEFFC01318392
:1004100020830895BC019091F804292F30E0359590
:100420002795359527952370E22FF0E0EC50FB4F90
:10043000658340E150E0022E01C0440F0A94EAF7C0
:1004400070FF11C0492B4093F80481E0820F63E0F4
:100450000E94F228990F990F8091F804837F980FDA
:100460009093F804089540954923EDCFCF92DF9201
:10047000EF92FF920F931F93CF93DF936B01CC24E6
:10048000C114D104C1F58730C1F068F4823079F02D
:10049000863071F1DF91CF911F910F91FF90EF9016
:1004A000DF90CF900895883091F08F3F99F76F3F9C
:1004B000710599F48FEF9FEF05C08091F40490913E
:1004C000F50481609093F5048093F404E3CF809168
:1004D000F4049091F5048260F5CFCB01DF91CF91C8
:1004E0001F910F91FF90EF90DF90CF900C940A0234
:1004F000CB019395F3CF0FEF070F84EFE82E84E045
:10050000F82E10E0EB01DD27011721F0C1148FEF69
:10051000D80629F4BE01C7014A960E9498011F5FC0
:100520008FE5E80EF11C163079F7B4CF89309105CC
:10053000D1F198F48230910569F130F4009721F1FE
:10054000019729F18FEF08958430910549F128F141
:100550000897C1F78091020508958D30910549F102
:1005600040F48A30910511F10C9761F780910505EF
:100570000895803F910501F1813F910509F10E97A2
:1005800009F78091060508958091FC0408958091F3
:10059000000508958091FF0408958091FE04089558
:1005A00080910105089580910405089580910305C7
:1005B000089580910705089580914D0781700895F1
:1005C00080914E07FBCFCF93DF93EC018881998117
:1005D000DC01ED91FC910190F081E02D64E270E08E
:1005E0001995009741F02FE1FC01238321E022833C
:1005F000DF91CF91089521E02A83FACFAF92BF9285
:10060000CF92DF92EF92FF920F931F93CF93DF93DE
:100610006C017B018B01040F151FEB015E01AE180D
:10062000BF08C017D10759F06991D601ED91FC912F
:100630000190F081E02DC6011995892B79F7C5014C
:10064000DF91CF911F910F91FF90EF90DF90CF90AE
:10065000BF90AF900895FC01538D448D252F30E05D
:10066000842F90E0821B930B541710F0CF960895BF
:1006700001970895FC01918D828D981761F0A28DEC
:10068000AE0FBF2FB11D5D968C91928D9F5F9F73B2
:10069000928F90E008958FEF9FEF0895FC01918D68
:1006A000828D981731F0828DE80FF11D858D90E0D5
:1006B00008958FEF9FEF0895FC01918D228D892F72
:1006C00090E0805C9F4F821B91098F73992708955A
:1006D0008EE494E00E945C0321E0892B09F420E081
:1006E000822F0895FC01A48DA80FB92FB11DA35A24
:1006F000BF4F2C91848D90E001968F739927848F42
:10070000A689B7892C93A089B1898C918370806464
:100710008C93938D848D981306C00288F389E02D05
:1007200080818F7D80830895EF92FF920F931F93B6
:10073000CF93DF93EC0181E0888F9B8D8C8D981394
:100740001AC0E889F989808185FF15C09FB7F894A0
:10075000EE89FF896083E889F989808183708064EC
:1007600080839FBF81E090E0DF91CF911F910F9137
:10077000FF90EF900895F62E0B8D10E00F5F1F4F46
:100780000F731127E02E8C8D8E110CC00FB607FC55
:10079000FACFE889F989808185FFF5CFCE010E94E3
:1007A0007203F1CFEB8DEC0FFD2FF11DE35AFF4FDC
:1007B000F0829FB7F8940B8FEA89FB898081806271
:1007C000CFCFCF93DF93EC01888D8823B9F0AA892E
:1007D000BB89E889F9898C9185FD03C0808186FDFC
:1007E0000DC00FB607FCF7CF8C9185FFF2CF80814B
:1007F00085FFEDCFCE010E947203E9CFDF91CF914B
:10080000089580E090E0892B29F00E94680381110F
:100810000E94000080E090E0892B49F080E090E0A9
:10082000892B29F00E94000081110E94000080E0C5
:1008300090E0892B49F080E090E0892B29F00E941C
:10084000000081110E94000080E090E0892B49F0B7
:1008500080E090E0892B29F00E94000081110C9427
:10086000000008958150823108F05AC0E82FF0E06E
:100870008827E25CFB4F8F4F0C9426295E046204AC
:10088000500456045A04900465046B046F04750404
:1008900079047D048304870490048B0491049504F7
:1008A000809180008F7780938000089580918000F0
:1008B0008F7DF9CF80918000877FF5CF84B58F77CA
:1008C00084BD089584B58F7DFBCF8091B0008F7774
:1008D0008093B00008958091B0008F7DF9CF809112
:1008E00090008F77809390000895809190008F7D85
:1008F000F9CF80919000877FF5CF8091A0008F770E
:100900008093A00008958091A0008F7DF9CF809101
:10091000A000877FF5CF809120018F778093200101
:100920000895809120018F7DF9CF80912001877FEC
:10093000F5CFCF93DF93282F30E0F901EE57FD4F2D
:100940008491F901E45CFD4FD491F901EA50FE4F26
:10095000C491CC23A1F081110E943204EC2FF0E06D
:10096000EE0FFF1FE452FE4FA591B491EC91ED23E1
:1009700081E090E009F480E0DF91CF91089580E07C
:1009800090E0FACF1F93CF93DF93282F30E0F90147
:10099000EE57FD4F8491F901E45CFD4FD491F901CC
:1009A000EA50FE4FC491CC23A9F0162F81110E946A
:1009B0003204EC2FF0E0EE0FFF1FEE53FE4FA59137
:1009C000B4918FB7F894EC91111108C0D095DE2343
:1009D000DC938FBFDF91CF911F910895DE2BF8CF6D
:1009E000CF93DF9390E0FC01E45CFD4F24918A50AB
:1009F0009E4FFC0184918823D1F090E0880F991FCD
:100A0000FC01E855FE4FA591B491FC01EE53FE4F59
:100A1000C591D49161110EC09FB7F8948C91E22FCB
:100A2000E0958E238C932881E223E8839FBFDF919A
:100A3000CF9108958FB7F894EC91E22BEC938FBF90
:100A4000F6CF863308F0865320917B00982F98705C
:100A5000277F922B90937B008770806480937C002B
:100A600080917A00806480937A0080917A0086FD7C
:100A7000FCCF809178009091790008953FB7F89469
:100A80008091D5039091D603A091D703B091D8035C
:100A900026B5A89B05C02F3F19F00196A11DB11DD9
:100AA0003FBFBA2FA92F982F8827BC01CD01620F15
:100AB000711D811D911D42E0660F771F881F991FD0
:100AC0004A95D1F708958F929F92AF92BF92CF929D
:100AD000DF92EF92FF924B015C010E943E056B0199
:100AE0007C010E943E056C197D098E099F09683EB4
:100AF000734081059105A8F321E0821A9108A108AD
:100B0000B10888EEC80E83E0D81EE11CF11C8114E8
:100B10009104A104B10429F7FF90EF90DF90CF90EA
:100B2000BF90AF909F908F9008952FB7F8946091E9
:100B3000D1037091D2038091D3039091D4032FBF3E
:100B400008956F3FB1F0E62FE295EF7044E0E49F27
:100B500090011124DC01ED91FC91E20FF31F6F7005
:100B6000B8E06B9FC001112462817381860F971FCB
:100B7000089590E080E00895CF93C82FCB016C2FAB
:100B800045960E94A1052FEF009711F0FC012581E9
:100B9000BC018C2F922FCF910895982F80336CF049
:100BA0008A3324F08F3524F08B3724F481E00895C4
:100BB00081341CF081E09B350CF080E00895FC014D
:100BC000828581110AC0A781B085CD0101969087E9
:100BD00087838C91818781E08287818508951F9327
:100BE000CF93DF93EC01162F0E94DF05811306C01F
:100BF0001A8681E0DF91CF911F91089580E0FACFAE
:100C00000F931F93CF93DF938C01EB01899188237E
:100C100069F0C8010E94DF05882379F0FE01319751
:100C2000908198130DC0F8011286F0CF90E080E01B
:100C3000DF91CF911F910F91089582E090E0F8CF5E
:100C400083E090E0F5CFCF93DF93EC01CE010E94DB
:100C5000DF058B304CF489305CF4882359F081E057
:100C60008E8390E080E00BC08D3011F08032B9F7B8
:100C70001A86ECCF8E81811105C081E090E0DF9172
:100C8000CF91089582E090E0FACF4F925F926F92F9
:100C90007F928F929F92AF92BF92CF92DF92EF920C
:100CA000FF920F931F93CF93DF93EB01DC012C9105
:100CB0002B32D9F12D32D1F50196FF24F394FC01AA
:100CC000208130ED320F3A3018F02E3209F042C157
:100CD0008C0160E070E0CB01F801219130ED832EB2
:100CE000820E39E0381520F16A3949E97407840722
:100CF00049E1940738F5AAE0B0E09B01AC010E94FD
:100D00001526912CB12CA12C24013501409450942E
:100D100060947094461657066806790698F0680D38
:100D2000791D8A1D9B1D8F01D7CF0196F12CC7CF4E
:100D3000211108C0FF20E9F161307105810550E8FB
:100D40009507A0F0E12CBAE08B2E912CA12CB12CB0
:100D50006115710530E883079105B0F1A501940193
:100D60000E942826CA01B901E394F2CF2C81207891
:100D70002A602C839B01AC0188279927DC01821B08
:100D8000930BA40BB50B88839983AA83BB838F2D08
:100D9000DF91CF911F910F91FF90EF90DF90CF9057
:100DA000BF90AF909F908F907F906F905F904F908B
:100DB00008952C81207828602C83688379838A8326
:100DC0009B83FF24F394E3CFF801D8012D918D018B
:100DD00030ED320F3A3010F4E394F6CF2E3201F5B5
:100DE0008F010F5F1F4FF8010F5F1F4F2081A0ED94
:100DF000DA2ED20EB9E0BD1598F06C3CECEC7E0713
:100E0000ECE08E07910578F7AAE0B0E09B01AC0119
:100E10000E9415266D0D711D811D911DEA94E3CF71
:100E200020812F7D10E000E0253409F05BC0218196
:100E30002D32D1F53296CC24C394DF0110E000E0CE
:100E40002E2D0E2C000C330B5AE0B52EFD01DD903B
:100E500040ED4D0D4A3008F040C0B09EA001B19E5B
:100E6000500D11240D2DDD0C110B00531109040F31
:100E7000151FA801420F531F473251053CF38C81C7
:100E8000CC20C9F040E050E060E070E8F11003C011
:100E900040E050E0BA0180788C608C8348835983AD
:100EA0006A837B83FC2C73CF2B3219F03196C12CD3
:100EB000C4CF3296FCCF40E050E060E87FEFF11005
:100EC00004C040E050E060E87FE780788C608C836D
:100ED000488359836A837B8374CFCC2019F01195A2
:100EE000019511092081211135C00E0D111DE7FC5E
:100EF0001A950E94732730E9C32E31E0D32E1016C5
:100F000011063CF011950195110948E7C42E41E006
:100F1000D42EE12C0115110591F000FF0CC024E046
:100F2000E29EF0011124EC0DFD1D259135914591B6
:100F300054910E942A2815950795E394EBCFF11060
:100F400090582C8120782C602C83688379838A8345
:100F50009B8337CFF12C1BCFCF92DF92EF92FF9282
:100F6000CF93DF9300D01F921F92CDB7DEB7FC0165
:100F700084818F778630C1F038F4843019F1853060
:100F800071F190E080E012C08A3021F08C3079F16C
:100F90008830B9F780819181A281B381009721E0E7
:100FA000A207B10518F0EDCF808190E00F900F906F
:100FB0000F900F900F90DF91CF91FF90EF90DF9007
:100FC000CF900895808191811D82BE016F5F7F4F18
:100FD0000E944506CE0101960E94AC07E7CF8081B2
:100FE00091811D82BE016F5F7F4F0496F1CFC0805B
:100FF000D180E280F38020E030E0A901C701B60192
:101000000E94252887FDBDCF20E03FEF4FE757E442
:10101000C701B6010E94C62618160CF4B2CFC7014C
:10102000B6010E944427CB01C1CFCF92DF92EF924D
:10103000FF92CF93DF9300D01F921F92CDB7DEB700
:10104000FC0184818F778630C1F030F4843011F157
:10105000853069F180E012C08A3021F08C3079F15E
:101060008830C1F780819181A281B3818F3F910542
:10107000A105B10519F010F0EDCF80810F900F9010
:101080000F900F900F90DF91CF91FF90EF90DF9036
:10109000CF900895808191811D82BE016F5F7F4F47
:1010A0000E944506CE0101960E941508E7CF808177
:1010B00091811D82BE016F5F7F4F0496F1CFC0808A
:1010C000D180E280F38020E030E0A901C701B601C1
:1010D0000E94252887FDBECF20E030E04FE753E493
:1010E000C701B6010E94C62618160CF4B3CFC7017B
:1010F000B6010E944427862FC1CFCF92DF92EF9294
:10110000FF92CF93DF9300D01F921F92CDB7DEB72F
:10111000FC0184818F778630C1F030F4843099F1FE
:101120008530F1F180E012C08A30E1F08C3009F4B2
:101130003FC08830B9F780819181A281B381803826
:101140009105A105B10570F701C080810F900F9046
:101150000F900F900F90DF91CF91FF90EF90DF9065
:10116000CF90089580819181A281B381AC01BD01AE
:1011700040585F4F6F4F7F4F4F3F510561057105DD
:1011800009F080F6E3CF808191811D82BE016F5FFF
:101190007F4F0E944506CE0101960E947D08D6CF62
:1011A000808191811D82BE016F5F7F4F0496F1CFD8
:1011B000C080D180E280F38020E030E040E053EC5A
:1011C000C701B6010E94252887FDACCF20E030E0A2
:1011D0004EEF52E4C701B6010E94C62618160CF461
:1011E000A1CFC701B6010E943D27862FAFCF1F9325
:1011F000CF93DF93EC01CB011B81612F45960E94B9
:10120000A105998388831A83009719F0FC018581D1
:101210008B83DF91CF911F910895EF92FF920F93EF
:101220001F93CF93DF9300D01F92CDB7DEB7FC01A1
:10123000E380F480058116810180F281E02D3097F2
:1012400049F19481892F807496FF19C0B70180817C
:101250000E94BC0569837A838B839C8389819A81F0
:101260000097C1F00115110541F0B701CE010196BB
:101270000E94F70801501109F1CF0E9415080F9044
:101280000F900F900F90DF91CF911F910F91FF90D2
:10129000EF90089580E0F3CFFC019289915084E0B3
:1012A000989F90011124A089B189A20FB31F1296B3
:1012B000ED91FC9113973097E9F011962C911197CD
:1012C0008C912817B8F481E0820F11968C9388E0F6
:1012D000289FA0011124E40FF51F309759F01482C4
:1012E0008FEF858317821682BF01892F8295807FB9
:1012F000820F089560E070E08FEF0895DF92EF9223
:10130000FF920F931F93CF93DF93EC017B01D12CBE
:10131000688979898A89D816E0F484E0D89E8001AA
:101320001124060F171FD80112966D917C9161153B
:10133000710541F0D701ED91FC910280F381E02D20
:10134000C7011995F8011382128210821182D39479
:10135000DFCF1A8A8FEF8C8BC617D70761F0D701C2
:10136000ED91FC910280F381E02DC7011995D98B95
:10137000C88B84E08B8BDF91CF911F910F91FF90F1
:10138000EF90DF900895DB01ED91FC9111970280C1
:10139000F381E02DBC01CD0119940F931F93CF93DE
:1013A000DF93EC01088119818B819C81009749F0C2
:1013B000FC01208131813C832B83B8010E94C30949
:1013C000F3CF68817981CE010596DF91CF911F918E
:1013D0000F910C947E09CF93DF93EC01E881F981A2
:1013E000B0E0A0E03097F9F09F012C5F3F4F62170B
:1013F0007307A1F4928191509283911114C080815E
:101400009181109741F08D939C93BA01CF01DF91A8
:10141000CF910C94C30999838883F7CFDF010190A2
:10142000F081E02DDFCFDF91CF9108958F929F92D1
:10143000AF92BF92CF92DF92EF92FF920F931F93E2
:10144000CF93DF938C01EB01FC01848180FF0AC004
:1014500048815981608171816C5F7F4FCE01039615
:101460000E94EB09F8018481807681F10115110554
:1014700069F1D0805E01F5E1AF0EB11C4E0183E051
:10148000880E911CEFEFDE16F1F06D2DC5010E9464
:10149000A1057C01FC01C580848187FF07C04881CC
:1014A000598166817781C4010E94EB09BE01C701A1
:1014B0000E94160AF701848180788483898D858350
:1014C000D98EDC2CDFCFF801D082D182DF91CF9191
:1014D0001F910F91FF90EF90DF90CF90BF90AF9052
:1014E0009F908F900895EF92FF920F931F93CF9349
:1014F000DF937C018B01EA016F3F710509F0B0F4C5
:10150000E881F9810480F581E02DAB014B5F5F4FED
:10151000BC01CE011995009749F0FC010383DF91CE
:10152000CF911F910F91FF90EF900895E881F9817D
:101530000280F381E02DB701CE01199590E080E0A3
:10154000EECFFF920F931F93CF93DF93EC01F62E14
:101550008A819B810097C9F06C817D81FC01238188
:101560002617170691F408811981F80140815181ED
:10157000660F771F6F5F7F4F0E94730A009719F401
:1015800021E0F80122839B838A838A819B810097D3
:1015900059F02C813D81A9014F5F5F4F5D834C83E2
:1015A000820F931FFC01F482DF91CF911F910F9165
:1015B000FF9008959F92AF92BF92CF92DF92EF92E9
:1015C000FF920F931F93CF93DF9300D01F921F9230
:1015D000CDB7DEB78C010E94DF05D82EF801128648
:1015E000F12CE12C60EFC62EC8010E94DF05F80146
:1015F0001286D81609F4B3C0811113C082E090E0BE
:101600000F900F900F900F900F90DF91CF911F913F
:101610000F91FF90EF90DF90CF90BF90AF909F9091
:1016200008958C3509F099C0C8010E94DF05882310
:1016300029F3E0E4F2E0853709F083C0F80112866F
:1016400054E0952EB12CA12CC8010E94DF058823FF
:10165000A9F2813434F48053803130F083E090E09B
:10166000CFCF8F7D8753F8CF44E0AA0CBB1C4A959F
:10167000E1F7A82AF80112869A949110E5CFC501E6
:10168000985D8115944020F47501F3E0FF22ACCF02
:10169000C5019C5D81159440A8F483E0B822B70190
:1016A000762F6627770F770F6A297B2990E080E0F5
:1016B0000196603871058105910540F4C8010E94CA
:1016C000A10A92CFB50190E080E0F3CF1982262FD6
:1016D0002F7320682A8326E09695879577956795DE
:1016E0002A95D1F76032710580F4606C6B835E01DE
:1016F000E4E0AE0EB11CF50162915F01662309F4CE
:1017000073CFC8010E94A10AF6CF262F2F7320683D
:101710002B8386E0769567958A95E1F760317105B0
:1017200038F4606E6C835E01F5E0AF0EB11CE3CF60
:1017300060686C83CD825E0126E0A20EB11CDBCF17
:1017400032969081992309F489CF8913F9CF818149
:10175000882309F483CFF8011286682FAFCF8281E6
:101760009381892B19F484E090E04ACF90E080E0E7
:1017700047CFAF92BF92CF92DF92EF92FF920F933B
:101780001F93CF93DF93DC011296ED91FC91139799
:1017900014968D919C911597E80FF91F14820D9165
:1017A0001C91119714966D917C91159712968D91BD
:1017B0009C9113979C012C5F3F4FE801EB81FC81CA
:1017C0007B01E20EF31E3097B9F0438146171706EE
:1017D00079F45901AF014C5F5F4FEA14FB0499F1B2
:1017E000E501C9905E01EA01D990AE01CD14A9F3DB
:1017F0000190F081E02DE7CFED01F80140815181AA
:101800000E94730AFC01892B21F481E0D801129611
:101810008C93A881B98113968D919C911497918393
:1018200080831496FC93EE9313971B821A82CF0148
:10183000DF91CF911F910F91FF90EF90DF90CF90AC
:10184000BF90AF90089582818F5F8283F0CFCF9356
:10185000DF93EC018A81823070F0623020F4DF91F6
:10186000CF910C94C2040E94990461E0892B09F085
:1018700060E08A81F4CFDF91CF9108951F93CF93D9
:10188000DF93EC01162F88810E94C20411110DC054
:101890000E949505FE01E75BFF4F608371838283A1
:1018A0009383CD5BDF4F19821882DF91CF911F9117
:1018B0000895CF93DF938F3F39F5809101058F70A5
:1018C00080934E07C0E0DFE58091FC04C81718F54F
:1018D00020914E07DC9FC00111248C509B4FFC01CE
:1018E000E659FF4F208387599F4FFC01108261E02A
:1018F000213009F060E0CD9FC0011124825F9A4F32
:101900000E943E0CCF5FE0CF8E3FD1F680914E0714
:1019100091E08927D5CFDF91CF910895CF92DF92C3
:10192000EF92FF920F931F93CF93DF93EC0188A95F
:1019300099A989359240B0F089AD90E0019663E0B5
:1019400070E00E94122989AFFC013996EE0FFF1F4B
:10195000EE0FFF1FEC0FFD1F108211821282138207
:1019600019AA18AA89810E9421057C0109AD84E089
:10197000089F800111240C0F1D1FC70196958795A4
:1019800096958795889FB001899F700D700D1124E1
:1019900090E080E00E9473279B01AC01F80164A1F4
:1019A00075A186A197A10E945A26F80164A375A388
:1019B00086A397A388A999A9019699AB88ABFE0144
:1019C000E05CFF4F208131818E01015B1F4FF801E8
:1019D00080818130B9F170F08330C9F1853009F42C
:1019E00091C0DF91CF911F910F91FF90EF90DF9009
:1019F000CF9008952E153F05F0F48D85882341F092
:101A00006FEFCE010E94270C81E0F8018083E9CFBF
:101A1000FE01ED5BFF4F8081918101969183808370
:101A20003197208128171906E0F660E0CE010E9468
:101A30003E0C83E0EACFC35BDF4F84EF91E09983F4
:101A40008883CFCF2E153F0518F31082CACF8C851F
:101A5000813059F108F45EC0823019F60E94950574
:101A6000FE01E35BFF4F20813181DE01A75BBF4FA9
:101A7000CD90DD90ED90FC90AB01BC014C195D095F
:101A80006E097F096901F12CE12CC416D506E60622
:101A9000F70608F0A6CF203187E2380728F5C901FC
:101AA0008C509E4F918380831FC00E949505FE013C
:101AB000E75BFF4FC080D180E280F3806C197D0925
:101AC0008E099F09653F71408105910508F489CF12
:101AD000FE01E35BFF4F808191818C509E4F91838B
:101AE0008083843C9940B0F4F801108261E0CE011B
:101AF000DF91CF911F910F91FF90EF90DF90CF90EA
:101B00000C943E0C8EA99FA9CC9708F06ACF8C85C7
:101B10008111EACF86E079CF8F929F92AF92BF92E8
:101B2000CF92DF92EF92FF920F931F93CF93DF93A9
:101B300082E00E949904892B09F447C080914807EC
:101B40008F5F8093480783E00E949904892B09F4F2
:101B500042C080914A078F5F80934A0780914C076B
:101B60008F5F80934C07C09109058091FC04C817D2
:101B7000A8F40C2F10E03FE5B32ECB9DE00111241B
:101B8000CE01825F9A4F6C01CC50DB4FFE01E659CB
:101B9000FF4F8081823028F1823039F18091090530
:101BA00090E0019667E070E00E9412298093090599
:101BB000DF91CF911F910F91FF90EF90DF90CF9029
:101BC000BF90AF909F908F900895809149078F5F4D
:101BD00080934907B8CF80914B078F5F80934B0765
:101BE000BDCFC6010E948E0CD9CF7E019DE5E90EC6
:101BF000F11CF701808191818E30914008F04EC038
:101C00008A8D0E949904811105C061E0C6010E947D
:101C10003E0CC4CFF701808191817C0123E0F694D2
:101C2000E7942A95E1F78F709927E894E0F8F1E0BE
:101C3000FF22892B41F48B8D0E942105F701E45D81
:101C4000FB4F9183808398012F5F3F4F8FE5829FE9
:101C5000D001839FB00D1124AC50BB4FF701E45D60
:101C6000FB4F208131814D915D916D917C91139756
:101C7000420F531F611D711D4D935D936D937C93B6
:101C80001397809FF001819FF00D1124EF5AFA4FB6
:101C90008081918101969183808380CF60E0C6012D
:101CA0000E943E0CC8010196B89EF001B99EF00D4D
:101CB0001124EC50FB4F60817181828193810E94DD
:101CC00073272D8D3E8D4F8D58A10E942A284B01E0
:101CD0005C01F7016081718190E080E00E947327D0
:101CE0009B01AC01C501B4010E94CB266B017C01B4
:101CF00020E030E0A9010E94252820E030E040E00B
:101D00005FE387FD1DC0C701B6010E945A260E94ED
:101D10003D278FE5809FF001819FF00D1124EC504D
:101D2000FB4F74A363A3DF01A359BF4F8D919C9117
:101D3000119796608D939C93E659FF4F10822ECF9A
:101D4000C701B6010E945926E2CFCF93DF93EC0181
:101D50008881843018F061E00E94F0048A81843028
:101D600028F061E0DF91CF910C94F004DF91CF91E6
:101D70000895FC0101900020E9F73197AF01481B5D
:101D8000590BBC018EE494E00C94FE02CF93DF93D8
:101D9000D0E0C0E0009719F00E94B90EEC0181E597
:101DA00092E00E94B90E8C0F9D1FDF91CF91089594
:101DB0000C94B90EDF92EF92FF920F931F93CF9383
:101DC000DF9300D01F92CDB7DEB76115710581F4A6
:101DD00060E070E08FEF9D2D0F900F900F900F90AF
:101DE000DF91CF911F910F91FF90EF90DF900895B9
:101DF0007A018B01BA01FC0180810E94BC056983D4
:101E00007A838B839C83E981FA81309709F3A681D9
:101E1000B781F80101900020E9F731979F01201B5D
:101E2000310B90E080E0109741F0FD01019000201F
:101E3000E9F7CF0101978A1B9B0B2817390769F433
:101E4000C801A901400F511F4817590761F0FC0153
:101E50003191CF012D913217B9F3B701CE0101961F
:101E60000E94F708D0CF69817A818B81DC80B3CF63
:101E7000FC01248125FF06C0009721F00E94DA0EA4
:101E8000CB01089590E080E00895FC0140815181EC
:101E9000CA014A9662817381009711F00C94380F41
:101EA00090E080E008950F931F93CF93DF93FC01A0
:101EB00001811281C581D68101960E94450F00974C
:101EC00041F0A801BE01DF91CF911F910F910C94B9
:101ED000380F90E080E0DF91CF911F910F9108952E
:101EE0000E94530F009711F00C94AC0790E080E033
:101EF0000895CF93DF93FC01C181D2810E94530FDB
:101F0000009761F0FC01248126FF08C0382F292F9B
:101F1000632F722FCE01DF91CF91089530E020E042
:101F2000F7CFAC014A960E94380F21E0892B09F4C3
:101F300020E0822F08950F931F93CF93DF93CDB7A7
:101F4000DEB7E2970FB6F894DEBF0FBECDBF1F928B
:101F50004F937F936F931F928F9384E592E09F93AB
:101F60008F938E010F5F1F4F1F930F930E94462B7D
:101F7000C8010E94D80E0FB6F894DEBF0FBECDBFC9
:101F8000E2960FB6F894DEBF0FBECDBFDF91CF91C2
:101F90001F910F9108958F929F92AF92BF92CF920F
:101FA000DF92EF92FF920F931F93CF93DF936C0119
:101FB0008B01DB015996FC90BFEFFB1621F16F2DD1
:101FC000C80145960E94A105EC018D81F801818F21
:101FD000209709F496C01C828FEF8D831F821E828A
:101FE000D60111966C916F3F09F49FC0C8014596C8
:101FF0000E94A105FC01F582D6011196FC92BE015A
:102000008F2D9D8084C05B01F5E0AF0EB11CDB011C
:10201000ED90FC90119757968C91882349F0C5015B
:102020000E944C09C62FD72F209711F0F82ED8CF39
:10203000F801C789908DC91325C0C03109F461C06A
:10204000CC0F65897689D701ED91FC91B4E0CB9FE7
:10205000A0011124A616B70609F04BC00190F0812B
:10206000E02DBA01C7011995009709F44AC020E193
:10207000F501DC0101900D922A95E1F7F801968BAC
:10208000858BC08FD8015596CD91DC915697579688
:102090008C91579721E0280F57962C93B4E08B9F93
:1020A000C0011124C80FD91F90E1892E203111F4ED
:1020B0008FE0882EE8E08E9EB0011124D701ED91CB
:1020C000FC910190F081E02DC70119959B838A83D3
:1020D000892B09F4812C88821982CD2B91F0C501BE
:1020E0000E944C09C62FD72FF82E209709F078CFE1
:1020F00008C00480F581E02DC7011995009709F00B
:10210000BDCF81E0F801828360E070E08FEF992D10
:10211000DF91CF911F910F91FF90EF90DF90CF90C3
:10212000BF90AF909F908F900895F601F082F1825A
:1021300066CF8F929F92AF92BF92CF92DF92EF9233
:10214000FF920F931F93CF93DF93EC018B01D42E5B
:102150000E9423067C01892B09F047C0CE010E9412
:10216000DF05863609F452C124F5873229F08B3514
:1021700061F1823209F053C11D821C828A819B81E8
:10218000892B31F4888199810E94E3029B838A83A1
:10219000CE010E94DA0A7C01892B39F5CE010E941A
:1021A000B90BF801248120782560248391838083F2
:1021B0001CC0843709F412C18B3709F45BC08E361A
:1021C00009F02DC16BE872E012C1F80184818078BA
:1021D000806484830115110519F08FEF808381835A
:1021E000D11011C025E0E22EF12CC701DF91CF9173
:1021F0001F910F91FF90EF90DF90CF90BF90AF9025
:102200009F908F9008951A86CE010E942306009712
:1022100009F085C06DE5CE010E94EF058111E5CF83
:10222000DA946B857C85C8010E94CB0F611571051E
:1022300021F484E0E82EF12CD8CF4D2DCE010E9460
:102240009910009709F06BC0CE010E9423060097F9
:1022500009F065C06DE5CE010E94EF058111C5CF83
:102260006CE2CE010E94EF058111DBCF93E0E92EF5
:10227000F12CBBCFF80184818078806284830115C2
:10228000110519F08FEF80838183DD2009F4AACF37
:102290001A86CE010E942306009709F040C06DE720
:1022A000CE010E94EF058111A0CFBB24BA94BD0CD2
:1022B0001D821C828A819B81892B31F488819981BE
:1022C0000E94E3029B838A83CE010E94DF0587324E
:1022D000E1F08232D1F0CE010E94DF05D82E0E94BB
:1022E000CD05882319F21A866D2DCE010E94A10A10
:1022F000CE010E94DF05D82E0E94CD058111F3CFBB
:102300008A819B81892B31F494CFCE010E94DA0A15
:10231000009729F4CE010E942306009711F07C015A
:1023200064CF6AE3CE010E94EF05882309F49ECFB3
:10233000EA81FB818C819D81E80FF91F14824B8516
:102340005C856A817B816C5F7F4FC8010E94DA0ED9
:10235000CB016B01672BC9F5CE010E94B90B4C0173
:102360006B857C85C8010E94CB0F6B0161157105DF
:1023700009F45FCFFB01848180688483F4E08F0ED1
:10238000911CF601978286824B2DB601CE010E94E8
:102390009910009721F6CE010E942306009709F0BC
:1023A000BECF6DE7CE010E94EF0581111ECF6CE21A
:1023B000CE010E94EF05882309F458CFCE010E9478
:1023C0002306009709F474CFAACF6B857C850E9401
:1023D000160AF601848180788483D6CFF80184813F
:1023E00080788660848381E0808360E872E0CE013B
:1023F000DF91CF911F910F91FF90EF90DF90CF90E1
:10240000BF90AF909F908F900C940006F80184814C
:10241000807886608483108265E872E0E8CFCE0120
:102420000E94DF055E01FDE0AF0EB11CD12C9A2C9D
:10243000CB2C803374F08A3374F49FE3D91699F06F
:102440001A86D394F50181935F01CE010E94DF05C6
:10245000F0CF8B3291F393ED980F923070F3982F69
:102460009F7D953451F3CD0DD11D1D86B801892D69
:102470009C2D0E9445068111B8CEF8CECB01BA0141
:102480000C94532ACB010C94CA29CB010C942E290D
:102490006F927F928F929F92AF92BF92CF92DF9274
:1024A000EF92FF920F931F93CF93DF93CDB7DEB7D9
:1024B000A4970FB6F894DEBF0FBECDBF8C013C01D0
:1024C00082E5680E711CF301608339965183408365
:1024D000E62EF12CFFEFEF1AFF0AF694FE2CEE2405
:1024E000F794E794CE0101966C014E0195E2890EB6
:1024F000911C5601EC18FD08F70131967F01C701C8
:102500008A0D9B1D0E94E025F50181935F01E8156E
:10251000F905A9F780E0F6019E012C5D3F4F9191EE
:102520008927E217F307D9F79CA1891303C08150CB
:102530008E3F78F180E992E00E94C60EF30120817F
:10254000822F90E0FC01E45EFD4F308139832A5CEC
:102550002A838A5E9D4FFC0180818B831B861A86AD
:1025600083E393E3A3E4B1E48C839D83AE83BF83D1
:1025700088EB9BE0998788878EE18C8781E08D8747
:102580001E861F861A8A1D8A188E1B8E1E8E19A201
:102590001CA284E2F601D80101900D928A95E1F720
:1025A000F80183A1811104C08AE992E00E94C60E5D
:1025B000F801878190856AE070E00E94FE282385FB
:1025C000269FC001279F900D1124BC0190E080E060
:1025D0000E94732720E030E040E05FE30E945A262B
:1025E0000E943D27F80177AF66AF13AA12AAC8016F
:1025F0000E94A50E60E0C8010E943E0C0E94882542
:1026000028E532E040E050E00E94F625F80171AB89
:1026100060AB6781708590E080E00E9473272DECAD
:102620003CEC4CEA5FE30E942A28F80123813481C4
:10263000458156810E94CB266B017C0120E030E071
:10264000A9010E94252820E030E040E05FE387FDFB
:1026500049C0C701B6010E945A260E943D27F801D1
:10266000E05CFF4F718360833F9610823196108249
:1026700031961082F80183856AE00E94F228F82ED4
:10268000682F70E090E080E00E94752720E030E045
:1026900040E85FE30E94C62687FF02C0FF24F39450
:1026A000F801EE5BFF4FF082ECE2F4E08EE494E0A0
:1026B000119211928E179F07D9F7A4960FB6F8942E
:1026C000DEBF0FBECDBFDF91CF911F910F91FF9065
:1026D000EF90DF90CF90BF90AF909F908F907F90C2
:1026E0006F900895C701B6010E945926B6CF1F9278
:1026F0000F920FB60F9211240BB60F922F933F93A8
:102700004F935F936F937F938F939F93AF93BF93F9
:10271000EF93FF938EE494E00E947203FF91EF9198
:10272000BF91AF919F918F917F916F915F914F91E9
:102730003F912F910F900BBE0F900FBE0F901F90E7
:1027400018951F920F920FB60F9211240BB60F928D
:102750002F938F939F93EF93FF93E0915E04F091FB
:102760005F048081E0916404F091650482FD1DC0E6
:102770009081809167048F5F8F7320916804821726
:1027800041F0E0916704F0E0E25BFB4F958F8093AE
:102790006704FF91EF919F918F912F910F900BBE46
:1027A0000F900FBE0F901F9018958081F2CF1F924F
:1027B0000F920FB60F9211242F933F938F939F93F5
:1027C000AF93BF938091D1039091D203A091D30393
:1027D000B091D4033091D00323E0230F2D3758F567
:1027E0000196A11DB11D2093D0038093D103909336
:1027F000D203A093D303B093D4038091D5039091D7
:10280000D603A091D703B091D8030196A11DB11DA5
:102810008093D5039093D603A093D703B093D803A6
:10282000BF91AF919F918F913F912F910F900FBECC
:102830000F901F90189526E8230F0296A11DB11D39
:10284000D2CF1F920F920FB60F9211240BB60F9298
:102850002F933F934F935F936F937F938F939F93A8
:10286000AF93BF93EF93FF93E091D903F091DA0315
:102870001995FF91EF91BF91AF919F918F917F91AA
:102880006F915F914F913F912F910F900BBE0F90E1
:102890000FBE0F901F9018959F92AF92BF92CF924C
:1028A000DF92EF92FF920F931F93CF93DF939C01E0
:1028B000862F2930310509F48CC028F522303105E6
:1028C00009F46FC0A0F42115310509F448C0213086
:1028D000310509F45FC0DF91CF911F910F91FF90F7
:1028E000EF90DF90CF90BF90AF909F9008952430ED
:1028F000310509F46BC008F460C02830310559F780
:1029000060930205E8CF2E30310509F47DC090F4C4
:102910002C30310509F469C008F06AC02A3031054D
:10292000D1F660910305709104056627860F972FF5
:10293000911D56C0213F310509F46FC02F3F31056D
:1029400009F478C0203F310531F68091F40490916C
:10295000F50491609093F5048093F404BCCFC0918A
:10296000FC04C61709F4B7CF6093FC04DFE580913F
:10297000FC04C81708F0AFCF4091FE045091FF044B
:10298000CD9FC00111246C2F825F9A4F0E94481284
:10299000CF5FEDCF91E0611101C090E09093000511
:1029A0009ACF6091FE0490E0982F8827860F911DA2
:1029B0009093FF048093FE048ECF6091FE0470918B
:1029C000FF046627860F972F911DF2CF60930105B4
:1029D00082CF6091030590E0982F8827860F911D84
:1029E000909304058093030576CF6093050573CF1C
:1029F0006091060590E0982F8827860F911D90938F
:102A000007058093060567CF60910605709107055D
:102A10006627860F972F911DF2CFDF91CF911F91DF
:102A20000F91FF90EF90DF90CF90BF90AF909F906D
:102A30000C94590C10920805ECEFF4E08091080515
:102A4000919189278093080525E0E830F207B1F7D6
:102A50000CEF14E0C1E0D0E0F801F1908F01CE015D
:102A60000E94E025F81621F06F2DCE010E94E82586
:102A70002196CE30D10581F710E00FE58091FC045E
:102A8000181708F028CF109FF0011124CF01825FA2
:102A90009A4FEC50FB4FDF01A459BF4FCC91D0E0CF
:102AA0002196D695DC2FCC27D795C79515AEAC01CE
:102AB0004D5D5F4FDC01FD9620813D9123272083F2
:102AC000A417B507C9F76C01F4E2CF0ED11C7C0145
:102AD000C81BD90BF70191907F015E01AE0EBF1E9E
:102AE000C5010E94E025981621F0692DC5010E94BC
:102AF000E825EC14FD0471F71F5FC0CF2F923F92C1
:102B00004F925F926F927F928F929F92AF92BF92FD
:102B1000CF92DF92EF92FF920F931F93CF93DF93A9
:102B200000D000D000D01F92CDB7DEB77B015A870E
:102B300049871B01222421143104E1F0893009F076
:102B400056C02A960FB6F894DEBF0FBECDBFDF91F8
:102B5000CF911F910F91FF90EF90DF90CF90BF909A
:102B6000AF909F908F907F906F905F904F903F902D
:102B70002F9008958130D1F0853019F729853A8555
:102B80003A83298310E000E0E981FA816191FA83B8
:102B9000E983C701800F911F0E944C140F5F1F4FE4
:102BA0000430110589F7C701939507C0E985FA85B7
:102BB0006081C7010E944C14C7012A960FB6F89491
:102BC000DEBF0FBECDBFDF91CF911F910F91FF9060
:102BD000EF90DF90CF90BF90AF909F908F907F90BD
:102BE0006F905F904F903F902F900C940A02442476
:102BF0004A944F0C842D90E04FE5449E80011124AF
:102C00009801225F3A4F6901512CFF240C501B4F51
:102C100058013AE6A30EB11C4801E9E68E0E911C5C
:102C20009801235A3F4F3A8329830196489F900188
:102C3000499F300D1124C9018C509B4F9C838B837D
:102C400038019DE6690E711CF801E85AFF4FFE83BA
:102C5000ED839801245B3F4F38872F83451421F083
:102C600021143FEF3306C9F488E1E816F10409F4B2
:102C70003CC1C4F5E8E0EE16F10409F400C194F497
:102C8000E114F10409F46DC024E0E216F10409F442
:102C9000B2C0B701C6010E9498015394F6E05F12DA
:102CA000DDCF4FCF30E1E316F10409F4FAC084E13F
:102CB000E816F10409F407C19CE0E916F10449F7AC
:102CC000E985FA858081F80183A7E985FA85818104
:102CD00090E0982F88272281820F911DF80195A7F7
:102CE00084A7D7CFE0EFEE16F10409F422C1DCF49B
:102CF0002CE1E216F10409F40AC130E2E316F10412
:102D000041F6E985FA858081F80182AFE985FA8587
:102D1000818190E0982F88272281820F911DF801F0
:102D200094AF83AFB6CF82EFE816F10409F422C165
:102D30000CF419C1E3EFEE16F10409F0AACFF50186
:102D40008081811121C1E981FA8111821082EB8198
:102D5000FC81108211821282138282E0F50180834D
:102D600098CFF801828D843018F060E00E94F00462
:102D7000F801848D843018F060E00E94F004E98549
:102D8000FA85808190E034E0959587953A95E1F752
:102D9000F801828FE985FA8580818F708A5CF8015D
:102DA000838FE985FA8581818F70F801848FE985A9
:102DB000FA85628170E0762F66278381680F711D26
:102DC000072E000C880B990B0E94752720E030E03D
:102DD00048EC52E40E94CB26F801658F768F878FEE
:102DE00090A3F30180819181816091838083C601EA
:102DF0000E94A50E4ECFE985FA85808190E09595D9
:102E000087959595879521E0892B09F420E0F801B5
:102E100027A3E985FA8580818370F80186A3E98577
:102E2000FA852181F80125A3E985FA85828190E060
:102E3000982F88273381830F911DF80192A381A3D6
:102E40006AE070E00E94FE28269FC001279F900D37
:102E50001124BC0190E080E00E94732720E030E064
:102E600040E05FE30E945A260E943D27ED81FE81EB
:102E700071836083EF81F885118210820ACFE98522
:102E8000FA858081F80180A7E985FA85818190E043
:102E9000982F88272281820F911DF80192A781A780
:102EA000F8CEE985FA858081F80186A7E985FA855B
:102EB000818190E0982F88272281820F911DF8014F
:102EC00090AB87A7E6CEE985FA858081F80181ABD2
:102ED000E985FA85818190E0982F88272281820FE9
:102EE000911DF80193AB82ABD4CEE985FA85808140
:102EF000F80184ABE985FA85818190E0982F8827D5
:102F00002281820F911DF80196AB85ABC2CEE98577
:102F1000FA858081F80187ABE985FA85818190E0A7
:102F2000982F88272281820F911DF80191AF80AFE1
:102F3000B0CEE985FA858081F5018F3F61F480810B
:102F4000811122C081E08083F401108261E0C6011A
:102F50000E943E0C9ECE8083F401108261E081309D
:102F6000B1F360E0F4CFE985FA856081C6010E9483
:102F7000270C8FCEF4018081863009F08ACE108232
:102F800081E0F5018083E2CFF5011082F401108227
:102F9000E8CF109251041092500488EE93E0A0E024
:102FA000B0E08093520490935304A0935404B093E0
:102FB000550482E392E090934F0480934E0485EC95
:102FC00090E090935B0480935A0484EC90E090939B
:102FD0005D0480935C0480EC90E090935F048093A8
:102FE0005E0481EC90E0909361048093600482EC35
:102FF00090E0909363048093620486EC90E0909359
:10300000650480936404109267041092680410921F
:10301000690410926A04ABEEB4E090E080E041E213
:10302000FC013E9621E030E08630910510F430E05E
:1030300020E0E20FF31F40935700E491ED930196D7
:103040008930910569F71092F7041092F6041092F6
:10305000F804109209050E94950560930A05709383
:103060000B0580930C0590930D05E2E3F5E022E05B
:1030700080ED97E0108211821282138214821582F1
:10308000168217821086118612861386158614867C
:1030900017861686118A108A138A128A148A158A4C
:1030A000158E148E268F92A781A713A614A615A697
:1030B00016A612AA11AA13AA11AE12AEE15AFF4F18
:1030C00037E0EC36F307B1F6109248071092490743
:1030D00010924A0710924B0710924C0710924D071E
:1030E00010924E0710924F070895CF93DF93CDB7FC
:1030F000DEB7CE59D1090FB6F894DEBF0FBECDBFF3
:10310000789484B5826084BD84B5816084BD85B5C2
:10311000826085BD85B5816085BD80916E008160CE
:1031200080936E0010928100809181008260809374
:103130008100809181008160809381008091800076
:103140008160809380008091B10084608093B100A1
:103150008091B00081608093B00080919100826086
:103160008093910080919100816080939100809183
:1031700090008160809390008091A1008260809394
:10318000A1008091A10081608093A1008091A000A6
:1031900081608093A0008091210182608093210151
:1031A00080912101816080932101809120018160C3
:1031B0008093200180917A00846080937A008091CE
:1031C0007A00826080937A0080917A008160809397
:1031D0007A0080917A00806880937A001092C10012
:1031E00068EE73E080E090E00E946305E0915E0489
:1031F000F0915F0482E08083E0915A04F0915B04D7
:103200001082E0915C04F0915D0480E18083109273
:103210006604E0916204F091630486E08083E091AB
:103220006004F0916104808180618083E09160049A
:10323000F0916104808188608083E0916004F09166
:103240006104808180688083E0916004F091610472
:1032500080818F7D80838EE494E00E945C03892BC3
:1032600029F08EE494E00E943A03F5CF84EB92E0DB
:103270000E94D80E84ED92E00E94D80E8AED92E072
:103280000E94C60E0E943E056115710581059105DB
:1032900011F00E94D7256E0126E8C20ED11CEE2443
:1032A000E394F12C8601C7010E94E025D6018D939D
:1032B0006D01BFEFEB1AFB0AEEE0EE16F10499F791
:1032C00080E0F8019801245F3F4F91918927E21730
:1032D000F307D9F7D8011C969C91891303C081503C
:1032E0008E3FB0F08DED92E00E94C60E81E0F801B5
:1032F00080838091EB04818382ED94E093838283C9
:103300001482158216821086178211861386128601
:103310008DE0F801ACEFB4E001900D928A95E1F7F1
:103320001092600581E08093BF0582E080931E06C5
:1033300083E080937D0684E08093DC0685E08093C3
:103340003B0710E00FE58091FC04181770F44091E2
:10335000FE045091FF04109FC0011124612F825F71
:103360009A4F0E9448121F5FEECF80E00E94590CD6
:103370006AE070E080E090E00E9463058CE89DE0E8
:103380009093DA038093D903F89480917A00887F30
:10339000846080937A001092800080E892E090939D
:1033A000870080938600109285001092840081E14E
:1033B0008093810081E080936F0078946AE070E0F0
:1033C00080E090E00E9463058FEF0E94590C6FEF40
:1033D00070E08FEF0E9436026FEF7FEF8FEF0E9459
:1033E00036021E01F5E62F0E311C91012B5F3F4F77
:1033F000C756DF4F39832883C959D040A101465EA3
:103400005F4FC356DF4F59834883CD59D040CE011B
:1034100001964C018EE494E00E945C03892B09F430
:103420008AC38EE494E00E943A0390912B04E92F22
:10343000F0E0E552FC4F808391110AC08091DB03DC
:103440008D3041F38A3031F381E080932B04E2CF59
:103450008D3019F08A3009F06AC31082E0E0F2E0A2
:10346000D1011196FC93EE9312961C92129714962A
:103470001C921E921397C756DF4F28813981C95974
:10348000D04056963C932E93559757961C9257973B
:1034900084E058968C9358978FEF59968C93599750
:1034A0005E961C925E9740E051E090965C934E933E
:1034B0005F97BF01C9010E947E09D10112961C923B
:1034C00012970D911C91F10183819481009749F02D
:1034D000DC012D913C9134832383B8010E94C30900
:1034E000F2CF168E3A8229821C821B821E821D8296
:1034F0001F822BED33E0398728871B863D862C867B
:103500004AE0C356DF4F68817981CD59D040C4016C
:103510000E9499108C01892B51F48A85882339F0F7
:10352000D1015E968C9183FF02C003E010E08B8195
:103530009C81009731F0E981FA81608171810E945C
:10354000C3090115110509F0E8C266EE72E0C10178
:103550000E94910F882309F483C03A82298286EE63
:1035600092E09C838B83C4010E94450FFC01892B50
:1035700039F084818F77843031F0853009F476C05A
:10358000B12CA12C02C0A080B18065E972E0C1011C
:103590000E94910F882369F03A82298285E992E09E
:1035A0009C838B83C4010E94450F009711F00E94F9
:1035B0007D086AEE72E0C5010E943D2B892B09F05F
:1035C0002AC16DEE72E0C1010E94910F882309F4B7
:1035D00022C13B822A828DEE92E09D838C83E1EFB3
:1035E000F2E0FF83EE83C4010E94530F00E00097D6
:1035F00019F00E941508082F3B822A828DEEE82ED2
:1036000082E0F82EFD82EC8225EF32E03F832E83AC
:10361000C4010E94790F2B013C014A825B826C82BB
:103620007D821F821E82C4010E940D09182F382F2F
:103630003F71D32E3B822A82FD82EC824AEF52E018
:103640005F834E83C4010E94700F7C01023B09F42A
:10365000C7C090F4013709F4CBC0003B09F4B6C0F1
:10366000C1010E94CD0910922B04D4CEA080B1805C
:10367000B4E0AB0EB11C89CF0D3B09F4A7C010E438
:10368000712E7D0C0D3E61F78091020578120AC003
:103690008091030590910405E816F90619F481E07C
:1036A0000E94590C8091050578120AC08091060588
:1036B00090910705E816F90619F480E00E94590C6C
:1036C000612CFFE55F2E442443948091FC0468162E
:1036D00008F0A1C0C62CD12C659CF00111248F01EB
:1036E000025F1A4FEC50FB4F80A5781210C081A5E5
:1036F00092A5E816F90659F4DF01A659BF4F4C927E
:10370000E759FF4F108261E0C8010E943E0C5C9CAB
:10371000F0015D9CF00D1124EC50FB4F83A5781255
:1037200010C084A595A5E816F90659F4DF01A6593D
:10373000BF4F1C92E759FF4F108260E0C8010E9402
:103740003E0C5C9CF0015D9CF00D1124EC50FB4F95
:1037500086A5781213C087A590A9E816F90671F41A
:10376000DF01A759BF4F8C91863041F41C92E65976
:10377000FF4F408261E0C8010E943E0C5C9CF0015A
:103780005D9CF00D1124EC50FB4F81A9781209C00B
:1037900082A993A9E816F90621F460E0C8010E9405
:1037A000270C5C9CF0015D9CF00D1124EC50FB4F4C
:1037B00084A9781209C085A996A9E816F90621F40A
:1037C00061E0C8010E94270C63947FCFD1FADD2409
:1037D000D0F800E2702E7D0C5FEFE51AF50A54CFA9
:1037E0001170B0E87B2E710E8FEFE81AF80A4CCFFB
:1037F00091E0D91235CF4A825B826C827D82A1E052
:10380000B0E0BF83AE83C4010E940D098370A0E6BF
:103810007A2E780E39CF6FEF72E0C5010E943D2BF2
:10382000892B19F48EEF0E94590C63E073E0C501F7
:103830000E943D2B892B09F013CF6DEE72E0C10180
:103840000E94910F882309F40BCFEDB7FEB7C55640
:10385000DF4FF983E883CB59D0403B822A828DEE3B
:1038600092E09D838C8321EF32E03F832E83C4015D
:103870000E94530F009709F45BC00E941508C856B8
:10388000DF4F8883C859D0403B822A82EDEECE2E8E
:10389000E2E0DE2EDD82CC824AEF52E05F834E838F
:1038A000C4010E94700F8C013B822A82DD82CC828F
:1038B00086E093E09F838E83C4010E94700F5C01B9
:1038C0003B822A82DD82CC82A5EFB2E0BF83AE8349
:1038D000C4010E94790F2B013C01CC56DF4F798344
:1038E0006883C459D040CA56DF4F99838883C6592C
:1038F000D040FB01C12C309709F1BC0180810E94AE
:10390000BC0569837A838B839C83D12CC12C8981EC
:103910009A81892B99F0FFEFCF1ADF0ACA56DF4F41
:1039200068817981C659D040C4010E94F708EFCF61
:10393000C856DF4F1882C859D040A6CFCD56DF4FAA
:10394000C882C359D0402DB73EB72C1931090FB6E4
:10395000F8943EBF0FBE2DBF4DB75EB74F5F5F4FB0
:103960007A01C856DF4FE881C859D040E150E930AC
:1039700008F03AC0F0E08827EF53F34E8F4F0C94D5
:103980002629CA1CE91CF41CF41C001D371D421D0D
:10399000451D501DCD56DF4F5881C359D04055238A
:1039A00019F18091FE049091FF04A816B906E1F484
:1039B0005B824A827D826C821F821E82C4010E94C9
:1039C0000D09D7018C93A701B80181E00E947E15F3
:1039D0000BC08091FE049091FF04A816B90621F453
:1039E000B80182E00E943602C556DF4F2881398136
:1039F000CB59D0400FB6F8943EBF0FBE2DBF30CE8E
:103A0000CD56DF4FB881C359D040B43068F38091B0
:103A1000FE049091FF04A816B90631F76A01B12C93
:103A2000A12CCC56DF4FE881F981C459D040FB83EB
:103A3000EA83CA56DF4F28813981C659D0403D8379
:103A40002C83BF82AE82C4010E940D09D6018D93E2
:103A50006D01BFEFAB1ABB0ACD56DF4FE881C359EA
:103A6000D040AE16F0F2A701B80185E0AFCF80914B
:103A7000FE049091FF04A816B90609F0B5CFB8016D
:103A800086E0B0CFB80187E0ADCF8091FE04909181
:103A9000FF04A816B90609F0A7CFB80188E0A2CFA5
:103AA000B80189E00E943602CD56DF4FF881C35934
:103AB000D040F43008F498CF8091FE049091FF0438
:103AC0000817190709F090CF8701D12CC12CCC56CB
:103AD000DF4F28813981C459D0403B832A83CA569D
:103AE000DF4F48815981C659D0405D834C83DF82C6
:103AF000CE82C4010E940D09D8018D938D01BFEFC4
:103B0000CB1ADB0ACD56DF4FE881C359D040CE1621
:103B1000F0F2A701B50189E059CF000F111FF8019C
:103B2000EE5DFD4F808191810E94C60E99CD9F5F11
:103B300090932B046FCC80914C07893208F470C0AD
:103B400020914807222329F031E080914907811113
:103B500001C030E060914B0780914A07882319F03B
:103B600081E0611101C080E050910105507F932FE9
:103B7000982741E0503109F040E04923332369F0B0
:103B8000882361F0261B330B37FF03C03195219545
:103B9000310981E02A3031050CF080E091E05111CB
:103BA00090E08923942F990F890F90914D078917E1
:103BB00069F180934D0710E00FE58091FC04181720
:103BC000E0F4019FC00111248C509B4FFC01E5598A
:103BD000FF4F20914D07208386599F4F61E0DC0104
:103BE0008C91813009F060E0109FC0011124825F48
:103BF0009A4F0E943E0C1F5FE0CF8091F404909199
:103C0000F50491609093F5048093F40410924907B1
:103C10001092480710924B0710924A0710924C07D7
:103C20000E94950500910A0510910B0520910C0545
:103C300030910D05601B710B820B930B6531710583
:103C40008105910508F47CC00E94950560930A05E2
:103C500070930B0580930C0590930D054091F8042B
:103C6000242F30E0C90195958795959587958427F0
:103C7000932783709927892B09F48DC0E42FE37073
:103C80002E2F30E0C901019663E070E00E941229F6
:103C90004C7F840F8093F80490E002C0959587953F
:103CA000EA95E2F754E0880F991F5A95E1F78827C3
:103CB00091702C503B4FF9012581820F911D8C0191
:103CC0001127F090FE04E090FF0490FF3CC0C80173
:103CD00003960E949602B82EC80102960E94960290
:103CE000C82EC80101960E949602D82EC8010E94D3
:103CF00096021F92BF921F92CF921F92DF921F9245
:103D00008F931F930F931F9286E48F93EF92FF92EE
:103D10008AE093E09F938F9381E193E09F938F9349
:103D20009F928F920E94462B2DB73EB72C5E3F4F3D
:103D30000FB6F8943EBF0FBE2DBFC4010E94D80E2F
:103D40000E94010467CBC8010E9496021F921F9235
:103D50001F921F921F921F921F928F931F930F9378
:103D60001F9282E48F93EF92FF9286E593E09F93F8
:103D70008F9381E193E09F938F939F928F920E9404
:103D8000462B4DB75EB74C5E5F4F0FB6F8945EBFE3
:103D90000FBE4DBFD2CF8091F4049091F50480FF07
:103DA00034C08E7F9093F5048093F4048091FD04D9
:103DB0001F928F931F9281E08F931F9289E18F93BF
:103DC0001F928F931F921F921F9287E48F9380916F
:103DD000FF048F938091FE048F938AE093E09F937A
:103DE0008F9381E193E09F938F939F928F920E9494
:103DF000462BC4010E94D80E8DB79EB744960FB6CD
:103E0000F8949EBF0FBE8DBF9BCF81FF1FC08D7FDB
:103E10009093F5048093F4048091FD041F928F9396
:103E20001F9281E08F931F9289E18F931F928F934E
:103E30001F921F921F9288E48F938091FF048F93AB
:103E40008091FE048F938AE093E0D1C082FF21C06D
:103E50008B7F9093F5048093F4048091FE049091FD
:103E6000FF049C0133273F932F931F929F93209130
:103E700000051F922F932091FC041F922F931F92F5
:103E80001F921F9226E42F939F938F938AE093E0D3
:103E9000E3C083FF34C0877F9093F5048093F404DC
:103EA0001F921F921F921F921F921F9280910105D5
:103EB0001F928F931F9284E08F931F9282E48F93BF
:103EC0008091FF048F938091FE048F9386E593E0A9
:103ED0009F938F9381E193E09F938F939F928F9213
:103EE0000E94462BC4010E94D80E2DB73EB72C5E0F
:103EF0003F4F0FB6F8943EBF0FBE2DBF21CF84FFBA
:103F00003AC08F7E9093F5048093F404809103056A
:103F1000909104051F921F929C0133273F932F938A
:103F20001F929F93809102051F928F931F9288E0AA
:103F30008F931F9286E48F938091FF048F938091DB
:103F4000FE048F938AE093E09F938F9381E193E047
:103F50009F938F939F928F920E94462BC4010E9441
:103F6000D80E4DB75EB74C5E5F4F0FB6F8945EBF8C
:103F70000FBE4DBFE5CE85FF1BC08F7D9093F5042E
:103F80008093F40480910605909107051F921F927B
:103F90009C0133273F932F931F929F938091050598
:103FA0001F928F931F928CE08F931F9286E40ECF07
:103FB00090FF33C09E7F9093F5048093F4041F928A
:103FC0001F921F921F921F921F9280914D071F9266
:103FD0008F931F9280EF8F931F9282E48F93809133
:103FE000FF048F938091FE048F9386E593E09F9367
:103FF0008F9381E193E09F938F939F928F920E9482
:10400000462BC4010E94D80EADB7BEB754960FB66A
:10401000F894BEBF0FBEADBF93CE91FF33C09D7F5E
:104020009093F5048093F4041F921F921F921F92A5
:104030001F921F9280914E071F928F931F9281EFC4
:104040008F931F9282E48F938091FF048F938091CE
:10405000FE048F9386E593E09F938F9381E193E035
:104060009F938F939F928F920E94462BC4010E9430
:10407000D80EEDB7FEB774960FB6F894FEBF0FBE1C
:10408000EDBF5ECECD56DF4F1882C359D0402FE52D
:104090008091FC04CD56DF4FF881C359D040F8170A
:1040A00008F04ECE0F2F10E0209FF001219FF00D61
:1040B0001124EC50FB4FDF01A359BF4F8D919C9110
:1040C000119780FF53C08E7F8D939C9320E030E04A
:1040D00048EC52E4658D768D878D90A10E942A2848
:1040E0006B017C0120E030E0A9010E94252820E03E
:1040F00030E040E05FE387FD34C0C701B6010E94B5
:104100005A260E943D27CB0199279F938F931F9298
:104110007F938FE5809FF001819FF00D1124EC507B
:10412000FB4F848D1F928F93828D20E1829FC0016F
:104130001124238D2653330B820F931F9F938F934C
:10414000DF01A459BF4F8C9190E001968F931F928D
:104150001F9286E48F93EB58FF4F81818F9380816C
:10416000F0CEC701B6010E945926CBCF81FF2EC0E9
:104170008D7F8D939C9381A192A19C0133273F93C6
:104180002F931F929F9385A11F928F9387A154E035
:10419000859F9001112486A18370820F932F911D1A
:1041A0009F938F93DF01A459BF4F8C9190E0982F7C
:1041B00088278C5F9E4F9F938F931F9286E48F93E7
:1041C000EB58FF4F81818F93808106CE82FF24C000
:1041D0008B7F8D939C9381A592A51F921F929C012A
:1041E00033273F932F931F929F9380A51F928F9306
:1041F000DF01A459BF4F8C9190E0982F8827885FEA
:104200009E4F9F938F931F9286E48F93EB58FF4F9F
:1042100081818F93808116CE83FF24C0877F8D9309
:104220009C9384A595A51F921F929C0133273F93D1
:104230002F931F929F9383A51F928F93DF01A45901
:10424000BF4F8C9190E0982F8827845F9E4F9F935B
:104250008F931F9286E48F93EB58FF4F81818F934A
:10426000808113CE84FF27C08F7E8D939C9387A57A
:1042700090A91F921F929C0133273F932F931F9267
:104280009F9386A51F928F93DF01A459BF4F8C91F6
:1042900090E0982F8827805F9E4F9F938F931F9267
:1042A00086E48F93EB58FF4F81818F9380818F93AA
:1042B0008AE093E00DCE85FF1CC08F7D8D939C938B
:1042C00082A993A91F921F929C0133273F932F939A
:1042D0001F929F9381A91F928F93DF01A459BF4F13
:1042E0008C9190E0982F88278C5E9E4F9F938F93A0
:1042F0002FCF86FF1AC08F7B8D939C9385A996A99B
:104300001F921F929C0133273F932F931F929F93DD
:1043100084A91F928F93DF01A459BF4F8C9190E025
:10432000982F8827885E9E4F46CF87FF1AC08F77C9
:104330008D939C9380AD91AD1F921F929C0133276A
:104340003F932F931F929F9387A91F928F93DF0113
:10435000A459BF4F8C9190E0982F8827845E9E4F80
:1043600050CF90FF24C02FE5209FF001219FF00D3A
:104370001124EC50FB4FDF01A359BF4F9E7F1196D4
:104380009C938E9383AD94AD1F921F929C01332713
:104390003F932F931F929F9382AD1F928F931197FC
:1043A0008C9190E0982F8827805E9E4F50CF91FF90
:1043B00023C02FE5209FF001219FF00D1124EC5028
:1043C000FB4FDF01A359BF4F9D7F11969C938E93A6
:1043D00083A194A11F921F921F921F929C013327C9
:1043E0003F932F931F929F9311978C9190E0982F5A
:1043F00088278C5D9E4F51CF92FF3AC04FE5409F7A
:104400009001419F300D11242C503B4FF901E3598D
:10441000FF4F9B7F9183808380914D048F93809188
:104420004C048F93809143048F93809142048F9327
:10443000809137048F93809136048F9380912D045F
:104440008F9380912C048F933197808190E0982FE7
:104450008827885D9E4F9F938F931F9286E48F934A
:10446000399681818F9380818F938DE593E06CCD18
:10447000209FC001219F900D1124DC01AC50BB4F47
:104480007D01FD01EE5AFF4FE081AD5ABF4F3C91D7
:10449000E31709F4E5C2F0E03996EE0FFF1FEE0FC7
:1044A000FF1FE80FF91FEC50FB4F20E030E046E122
:1044B00054E4628D738D848D958D0E94CB260E946D
:1044C0009D2820E030E040E850E40E942A28F701CF
:1044D000258D368D478D50A10E942A282B013C0145
:1044E00020E030E040E251E40E94CB269B01AC0189
:1044F0000E942A285B016C01D70191968D919C91B5
:104500006AE070E00E94FE2890E080E00E9473273D
:104510009B01AC01C601B5010E94CB266B017C0159
:1045200020E030E0A9010E94252820E030E040E0B2
:104530005FE387FDB8C1C701B6010E945A260E94F9
:104540003D277B018FE5809FF001819FF00D1124B5
:10455000EC50FB4FDF01A45BBF4FAD90BC9065A159
:1045600070E0C5010E94FE2890E080E00E94732761
:1045700020E030E040E05FE30E945A260E943D27A1
:104580006A3071058105910524F46AE070E080E0ED
:1045900090E0EA0CFB1C2FE5209FF001219FF00D1D
:1045A0001124E05CFA4FF182E0826E157F0508F07D
:1045B0007FC1E61AF70AF182E0822FE5209FC00151
:1045C000219F900D1124FC01EC50FB4F7F01E45B17
:1045D000FF4F6081718190E080E00E9473275B0152
:1045E0006C01F701E85AFF4F6081718190E080E033
:1045F0000E9473279B01AC01C601B5010E94CB2626
:1046000020E030E048EC52E40E942A286B017C0153
:1046100020E030E0A9010E94252820E030E040E0C1
:104620005FE387FD48C1C701B6010E945A260E9478
:104630003D278FE5809FF001819FF00D1124EC5BF9
:10464000FA4F7183608320E030E0A901C301B20119
:104650000E94252820E030E040E05FE387FD30C184
:10466000C301B2010E945A260E943D272FE5209FD8
:10467000C001219F900D11249C012C503B4F7901CA
:10468000F901E25BFF4F7183608336964080518071
:104690006280738038EE430E33E0531E611C711C40
:1046A0000E949505461657066806790608F0CDC0A3
:1046B000D701D7968C91D797807E59F0A759BF4FD5
:1046C000F701E958FF4F442443949C91808198134B
:1046D00001C0412C8FE5809FF001819FF00D1124D6
:1046E000EC50FB4FDF01A05BBF4FAD90BC9082ADA3
:1046F000807E41F0E858FF4F8081552453948A15FD
:104700001B0409F4512C2FE5209FC001219F900D1F
:104710001124FC01EC50FB4F7F01E45BFF4F8081D3
:10472000918164E670E00E94FE2890E080E00E94A3
:10473000732720E030E040E05FE30E945A260E94A9
:104740003D276B01D7015C968C910E9499049F9341
:104750008F93F701E659FF4F80811F928F933701A6
:10476000B9E66B0E711CF30180811F928F933F9607
:1047700080811F928F93BA9781818F9380818F93CD
:10478000DF92CF92B50190E080E00E94732720E095
:1047900030E040E05FE30E945A260E943D277F936D
:1047A0006F93F701E459FF4F80811F928F9384E646
:1047B00093E09F938F939F928F920E94462BC40108
:1047C0000E94D80E2DB73EB72C5E3F4F0FB6F8941F
:1047D0003EBF0FBE2DBF442009F4C0C0D3012C91B1
:1047E000F70182AD90E035E0959587953A95E1F730
:1047F0008230910509F499C00CF067C0019709F463
:104800007EC02FE5209FC001219F900D11248C5068
:104810009B4FFC01E958FF4F87599F4FDC018C915A
:1048200080838FE5809FF001819FF00D1124E85B6C
:10483000FA4F80819181A281B38188519C4FAF4F03
:10484000BF4F80839183A283B3832FE5209FC00154
:10485000219F900D11248C010C501B4FF801EE5A32
:10486000FF4F808190E0019663E070E00E94122982
:1048700080833297808191818937910508F460CADD
:10488000CD56DF4FB881C359D040B29FC00111242B
:1048900060E0825F9A4F0E943E0CF801E759FF4F9B
:1048A00085E080834DCAC701B6010E94592647CED4
:1048B0001182108282CEC701B6010E945926B7CE5E
:1048C000C301B2010E945926CFCE8330910591F1E8
:1048D000049709F096CF87A9482F4170233018F02C
:1048E0008095482F41708FE5809FF001819FF00DEA
:1048F0001124EC50FB4F63AD74AD82EB13C087A95C
:10490000482F4170233018F08095482F41708FE573
:10491000809FF001819FF00D1124EC50FB4F63AD9F
:1049200074AD80EB0E949B0F6CCF63AD74AD422FD2
:104930008DEEF8CF87A9482F4170233018F080956D
:10494000482F41708FE5809FF001819FF00D112469
:10495000EC50FB4F63AD74AD85EEE4CF552009F408
:1049600060CFF70182ADE05BFF4F60817181282F3E
:1049700030E095E0359527959A95E1F7223031059D
:1049800009F443C08CF42130310549F12FE5209F13
:10499000C001219F900D11248C509B4FFC01E858C1
:1049A000FF4F805B9F4F3ACF2330310509F444C05D
:1049B0002430310559F7482F41706536710518F4D8
:1049C0008095482F41708FE5809FF001819FF00D09
:1049D0001124EC50FB4F63AD74AD82EB13C0482F34
:1049E00041706536710518F48095482F41708FE548
:1049F000809FF001819FF00D1124EC50FB4F63ADBF
:104A000074AD80EB0E949B0FC1CF7695679576952C
:104A1000679590E080E00E94732720E030E040E05E
:104A20005FE30E945A260E943D27462FD701DB965E
:104A30006D917C918DEEE6CF482F41706536710502
:104A400018F48095482F41708FE5809FF001819F79
:104A5000F00D1124EC50FB4F63AD74AD85EED2CF59
:104A6000CD56DF4FE881C359D040EF5FCD56DF4FC1
:104A7000E883C359D0400CCB8F929F92AF92BF92E4
:104A8000CF92DF92EF92FF92CF93DF93EC01688198
:104A900079818A819B81611571058105910521F4D8
:104AA00064E279ED8BE597E02DE133EF41E050E0F2
:104AB0000E94F62549015A019B01AC01A7EAB1E425
:104AC0000E9415266B017C01ACEEB4EFA5019401A8
:104AD0000E942326C60ED71EE81EF91EF7FE06C04A
:104AE00081E0C81AD108E10880E8F80AC882D982B2
:104AF000EA82FB82C701B6019F77DF91CF91FF90D9
:104B0000EF90DF90CF90BF90AF909F908F900895DF
:104B10008F929F92AF92BF92CF92DF92EF92FF92CD
:104B2000609102027091030280910402909105024B
:104B3000611571058105910521F464E279ED8BE53C
:104B400097E02DE133EF41E050E00E94F625490166
:104B50005A019B01AC01A7EAB1E40E9415266B0142
:104B60007C01ACEEB4EFA50194010E942326C60E91
:104B7000D71EE81EF91EF7FE06C081E0C81AD1084C
:104B8000E10880E8F80AC0920202D0920302E092A3
:104B90000402F0920502C701B6019F77FF90EF90E3
:104BA000DF90CF90BF90AF909F908F9008956093CB
:104BB0000202709303028093040290930502089509
:104BC000F999FECF92BD81BDF89A992780B50895D5
:104BD000262FF999FECF1FBA92BD81BD20BD0FB619
:104BE000F894FA9AF99A0FBE01960895052E97FB4C
:104BF0001EF400940E940D2657FD07D00E9428261F
:104C000007FC03D04EF40C940D265095409530953A
:104C100021953F4F4F4F5F4F089590958095709528
:104C200061957F4F8F4F9F4F08950E944A26A59F01
:104C3000900DB49F900DA49F800D911D1124089597
:104C4000B7FF0C9415260E941526821B930B08951E
:104C5000A1E21A2EAA1BBB1BFD010DC0AA1FBB1F80
:104C6000EE1FFF1FA217B307E407F50720F0A21BF2
:104C7000B30BE40BF50B661F771F881F991F1A945F
:104C800069F760957095809590959B01AC01BD0189
:104C9000CF010895A29FB001B39FC001A39F700DE3
:104CA000811D1124911DB29F700D811D1124911D34
:104CB00008955058BB27AA270E9471260C94EB2711
:104CC0000E94DD2738F00E94E42720F039F49F3F4E
:104CD00019F426F40C94DA270EF4E095E7FB0C9413
:104CE000D427E92F0E94FC2758F3BA1762077307ED
:104CF0008407950720F079F4A6F50C941E280EF48D
:104D0000E0950B2EBA2FA02D0B01B90190010C01DB
:104D1000CA01A0011124FF27591B99F0593F50F4F3
:104D2000503E68F11A16F040A22F232F342F44274B
:104D3000585FF3CF469537952795A795F040539543
:104D4000C9F77EF41F16BA0B620B730B840BBAF013
:104D50009150A1F0FF0FBB1F661F771F881FC2F77E
:104D60000EC0BA0F621F731F841F48F48795779592
:104D70006795B795F7959E3F08F0B0CF9395880F4C
:104D800008F09927EE0F9795879508950E94B02710
:104D900008F481E008950E94DF260C94EB270E941E
:104DA000E42758F00E94DD2740F029F45F3F29F006
:104DB0000C94D42751110C941F280C94DA270E94CC
:104DC000FC2768F39923B1F3552391F3951B550BF9
:104DD000BB27AA2762177307840738F09F5F5F4FCE
:104DE000220F331F441FAA1FA9F335D00E2E3AF00D
:104DF000E0E832D091505040E695001CCAF72BD025
:104E0000FE2F29D0660F771F881FBB1F2617370775
:104E10004807AB07B0E809F0BB0B802DBF01FF27A7
:104E200093585F4F3AF09E3F510578F00C94D42789
:104E30000C941F285F3FE4F3983ED4F38695779552
:104E40006795B795F7959F5FC9F7880F911D969560
:104E5000879597F90895E1E0660F771F881FBB1FBC
:104E6000621773078407BA0720F0621B730B840B69
:104E7000BA0BEE1F88F7E09508950E9444276894C6
:104E8000B1110C941F2808950E94042888F09F57A0
:104E900098F0B92F9927B751B0F0E1F0660F771F5E
:104EA000881F991F1AF0BA95C9F714C0B13091F054
:104EB0000E941E28B1E008950C941E28672F782FB9
:104EC0008827B85F39F0B93FCCF386957795679519
:104ED000B395D9F73EF490958095709561957F4F85
:104EE0008F4F9F4F0895E89409C097FB3EF490952B
:104EF0008095709561957F4F8F4F9F4F9923A9F0B3
:104F0000F92F96E9BB279395F69587957795679541
:104F1000B795F111F8CFFAF4BB0F11F460FF1BC085
:104F20006F5F7F4F8F4F9F4F16C0882311F096E918
:104F300011C0772321F09EE8872F762F05C06623C6
:104F400071F096E8862F70E060E02AF09A95660F7F
:104F5000771F881FDAF7880F9695879597F9089538
:104F6000990F0008550FAA0BE0E8FEEF161617067A
:104F7000E807F907C0F012161306E407F50798F0E2
:104F8000621B730B840B950B39F40A2661F0232BFB
:104F9000242B252B21F408950A2609F4A140A69577
:104FA0008FEF811D811D089597F99F6780E870E05C
:104FB00060E008959FEF80EC089500240A9416168F
:104FC000170618060906089500240A9412161306F7
:104FD000140605060895092E0394000C11F4882385
:104FE00052F0BB0F40F4BF2B11F460FF04C06F5FA1
:104FF0007F4F8F4F9F4F089557FD9058440F551F77
:1050000059F05F3F71F04795880F97FB991F61F04A
:105010009F3F79F087950895121613061406551FC1
:10502000F2CF4695F1DF08C0161617061806991F2D
:10503000F1CF86957105610508940895E894BB2722
:1050400066277727CB0197F908950E94B02708F4C7
:105050008FEF08950E943D280C94EB270E94DD27D6
:1050600038F00E94E42720F0952311F00C94D42707
:105070000C94DA2711240C941F280E94FC2770F34B
:10508000959FC1F3950F50E0551F629FF001729FED
:10509000BB27F00DB11D639FAA27F00DB11DAA1FFC
:1050A000649F6627B00DA11D661F829F2227B00D49
:1050B000A11D621F739FB00DA11D621F839FA00DD4
:1050C000611D221F749F3327A00D611D231F849F24
:1050D000600D211D822F762F6A2F11249F5750407B
:1050E0009AF0F1F088234AF0EE0FFF1FBB1F661FF6
:1050F000771F881F91505040A9F79E3F510580F0BF
:105100000C94D4270C941F285F3FE4F3983ED4F30B
:10511000869577956795B795F795E7959F5FC1F762
:10512000FE2B880F911D9695879597F9089519F490
:1051300016F40C94DA270C94DD280E940428B8F3A6
:105140009923C9F3B6F39F57550B87FF0E94EB28AD
:105150000024A0E640EA900180585695979528F4DF
:10516000805C660F771F881F20F0261737074807D7
:1051700030F4621B730B840B202931294A2BA6952E
:1051800017940794202531254A2758F7660F771F73
:10519000881F20F026173707480730F4620B730B7F
:1051A000840B200D311D411DA09581F7B901842F7D
:1051B0009158880F9695879508959F3F31F09150AB
:1051C00020F4879577956795B795880F911D9695EB
:1051D000879597F9089591505040660F771F881F63
:1051E000D2F70895991B79E004C0991F961708F02B
:1051F000961B881F7A95C9F780950895AA1BBB1B3B
:1052000051E107C0AA1FBB1FA617B70710F0A61BC6
:10521000B70B881F991F5A95A9F780959095BC01E7
:10522000CD01089597FB072E16F4009407D077FD63
:1052300009D00E94FE2807FC05D03EF49095819588
:105240009F4F0895709561957F4F0895EE0FFF1F52
:10525000881F8BBF0790F691E02D19940F931F9331
:10526000CF93DF938230910510F482E090E0E091DB
:105270005207F091530730E020E0B0E0A0E0309713
:1052800099F42115310509F44AC0281B390B243043
:105290003105D8F58A819B816115710589F1FB0182
:1052A00093838283FE0111C0408151810281138169
:1052B00048175907E0F04817590799F4109761F01B
:1052C00012960C93129713961C933296CF01DF918E
:1052D000CF911F910F910895009352071093530798
:1052E000F4CF2115310551F04217530738F0A901C9
:1052F000DB019A01BD01DF01F801C1CFEF01F9CF58
:105300009093530780935207CDCFFE01E20FF31F16
:10531000819391932250310939832883D7CF2091EB
:10532000500730915107232B41F42091080230910E
:1053300009023093510720935007209106023091C3
:1053400007022115310541F42DB73EB740910A02FD
:1053500050910B02241B350BE0915007F09151073F
:10536000E217F307A0F42E1B3F0B2817390778F03C
:10537000AC014E5F5F4F2417350748F04E0F5F1F9B
:105380005093510740935007819391939FCFF0E042
:10539000E0E09CCFCF93DF930097E9F0FC013297D8
:1053A00013821282A0915207B0915307ED0130E0B1
:1053B00020E01097A1F420813181820F931F20916A
:1053C0005007309151072817390709F061C0F09351
:1053D0005107E0935007DF91CF910895EA01CE176E
:1053E000DF07E8F54A815B819E0141155105B1F760
:1053F000E901FB83EA8349915991C40FD51FEC174A
:10540000FD0761F4808191810296840F951FE90167
:1054100099838883828193819B838A83F0E0E0E093
:1054200012968D919C9113970097B9F52D913C910F
:105430001197CD010296820F931F20915007309152
:1054400051072817390739F6309751F5109253074D
:1054500010925207B0935107A0935007BCCFD3834B
:10546000C28340815181840F951FC817D90761F409
:105470004E5F5F4F88819981480F591F5183408348
:105480008A819B81938382832115310509F0B0CFF6
:10549000F0935307E09352079ECFFD01DC01C0CF8C
:1054A00013821282D7CF4F925F926F927F928F9228
:1054B0009F92AF92BF92CF92DF92EF92FF920F93A3
:1054C0001F93CF93DF938C01009799F4CB01DF9169
:1054D000CF911F910F91FF90EF90DF90CF90BF90F1
:1054E000AF909F908F907F906F905F904F900C94B3
:1054F0002E29FC01E60FF71F9C0122503109E2170B
:10550000F30708F4AEC0D901CD91DC911197C6170D
:10551000D70720F1C530D10578F0CE010497861762
:10552000970750F0C61BD70B2297C193D1936D9369
:105530007C93CF010E94CA29C801DF91CF911F91AE
:105540000F91FF90EF90DF90CF90BF90AF909F9022
:105550008F907F906F905F904F9008955B01AC1A91
:10556000BD0A4C018C0E9D1EA0915207B0915307AD
:10557000512C412CF12CE12C109731F580915007E2
:10558000909151078815990509F05CC04616570699
:1055900008F058C08091060290910702009741F4EC
:1055A0008DB79EB740910A0250910B02841B950B58
:1055B000E817F90708F055C0F0935107E09350073A
:1055C000F90171836083B8CF8D919C9111971296E8
:1055D0006C90129713967C901397A815B90559F5FE
:1055E0006C0142E0C40ED11CCA14DB0420F1AC01F2
:1055F0004A195B09DA011296159780F0628273826C
:1056000051834083D9016D937C93E114F10471F0CF
:10561000D7011396FC93EE9312978ECF22968C0FA0
:105620009D1FF90191838083F301EFCFF09353071E
:10563000E093520781CF4816590608F42C017D01EA
:10564000D3019ACFCB010E942E297C01009749F00B
:10565000AE01B8010E94342BC8010E94CA298701FB
:105660006BCF10E000E068CFFB01DC0102C00190CD
:105670000D9241505040D8F70895FB01DC018D9107
:10568000019080190110D9F3990B08950F931F937E
:10569000CF93DF93CDB7DEB72E970FB6F894DEBF6A
:1056A0000FBECDBF0E891F8986E08C831A830983C4
:1056B0008FEF9FE79E838D83AE01465E5F4F688DBF
:1056C000798DCE0101960E94762B2F813885020FAD
:1056D000131FF80110822E960FB6F894DEBF0FBE8E
:1056E000CDBFDF91CF911F910F9108952F923F92DF
:1056F0004F925F926F927F928F929F92AF92BF92E2
:10570000CF92DF92EF92FF920F931F93CF93DF938D
:1057100000D000D000D01F921F92CDB7DEB77C0121
:105720003B018A01FC0117821682838181FFDDC162
:10573000CE0101965C01F7019381F30193FD859100
:1057400093FF81913F01882309F453C1853239F4D5
:1057500093FD859193FF81913F01853229F4B70133
:1057600090E00E948E2DE7CF912C212C312CFFE16F
:10577000F31538F08B3211F190F4803209F1833255
:1057800029F137FC3CC020ED280F2A3050F536FEB9
:1057900020C08AE0989E200D1124922E06C08D32E2
:1057A00091F0803371F7689430F8F30193FD85919F
:1057B00093FF81913F018111DACF21C0689431F8C4
:1057C000689432F8F2CF689433F8EFCF689434F8E5
:1057D000ECCFEAE02E9E200D1124222E689435F89D
:1057E000E4CF8E3229F436FC04C1689436F8DDCF5C
:1057F0008C3619F4689437F8D8CF8836B1F2982FE0
:105800009F7D95549330E0F08336A1F18337C1F149
:10581000833509F063C02801F2E04F0E511CF801F6
:10582000C080D180692D70E036FC02C06FEF7FEF41
:10583000C6010E94782D4C01689437F882010AC095
:105840000C5F1F4FFFE3F98388248394912C65013B
:10585000E89437F833FE2DC0522C8114910471F571
:10586000552009F468CFB70180E290E00E948E2DA8
:105870005A94F6CFF801808189830E5F1F4FE4CFE1
:105880002801F2E04F0E511CF801C080D180692D33
:1058900070E036FC02C06FEF7FEFC6010E94832DDF
:1058A0004C018201D5CFB70180E290E00E948E2D9D
:1058B0002A942814190409F0B0F7CECFF60137FC6A
:1058C000859137FE81916F01B70190E00E948E2D86
:1058D00051105A94F1E08F1A9108BFCF843619F015
:1058E000893609F077C0F80137FE6BC0608171819D
:1058F000828193810C5F1F4FF32DFF763F2E97FF20
:1059000009C090958095709561957F4F8F4F9F4FFF
:10591000689437F82AE030E0A5010E94BE2DC82E19
:10592000CA188C2C432C36FE0CC0E89440F8C914DD
:1059300040F434FE05C032FC03C0F32DFE7E4F2E32
:10594000892C44FEAAC0FE01EC0DF11D808180333C
:1059500009F09CC0242D297E422E842D8870582E5B
:1059600043FCAAC040FEA4C09C2C821418F42C0C4A
:10597000922C981844FEA6C0B70180E390E00E94E4
:105980008E2D42FE09C088E790E041FE02C088E506
:1059900090E0B7010E948E2DC91408F49FC0CA94EC
:1059A000D12C9FEFC91AD90ACA0CDB1CF6018291CF
:1059B0006F01B70190E00E948E2DAC14BD04B1F7C9
:1059C0004FCF60817181072E000C880B990B0E5F01
:1059D0001F4F92CFD32CE894D4F82AE030E08537DB
:1059E000E1F1232D297FD22E8F36A9F1F0F48835ED
:1059F00051F1F701868197812B960FB6F894DEBF9F
:105A00000FBECDBFDF91CF911F910F91FF90EF900F
:105A1000DF90CF90BF90AF909F908F907F906F90CE
:105A20005F904F903F902F900895803749F08837CE
:105A300001F7D4FE02C06894D2F820E130E00DC036
:105A40006894D4F8F6CF34FE03C0822F8660D82E37
:105A500020E132E002C028E030E0F801D7FE0FC0BC
:105A600060817181828193810C5F1F4FA5010E942B
:105A7000BE2DC82ECA183D2CE89437F852CF60814D
:105A8000718190E080E00E5F1F4FF0CF42FC02C0BA
:105A9000839463CF8394839460CF842D867809F4B4
:105AA0005CCFF6CFB70180E290E00E948E2D839408
:105AB0008214C0F3512C5ECF522C5818821408F473
:105AC00059CFF8CF842D867809F466CF8BE241FE5A
:105AD00080E247FC8DE2B70190E05CCFB70180E344
